{
  "contractName": "AcademicCredentials",
  "abi": [
    {
      "constant": false,
      "inputs": [
        {
          "name": "_name",
          "type": "string"
        },
        {
          "name": "_type",
          "type": "uint8"
        },
        {
          "name": "_dateOfIssue",
          "type": "uint256"
        },
        {
          "name": "_expirationDate",
          "type": "uint256"
        },
        {
          "name": "_description",
          "type": "string"
        },
        {
          "name": "_credentialUrl",
          "type": "string"
        }
      ],
      "name": "createCredential",
      "outputs": [],
      "payable": false,
      "stateMutability": "nonpayable",
      "type": "function"
    },
    {
      "constant": true,
      "inputs": [],
      "name": "getRankingTypes",
      "outputs": [
        {
          "name": "",
          "type": "uint8[]"
        }
      ],
      "payable": false,
      "stateMutability": "pure",
      "type": "function"
    },
    {
      "constant": false,
      "inputs": [
        {
          "name": "_approved",
          "type": "address"
        },
        {
          "name": "_tokenId",
          "type": "uint256"
        }
      ],
      "name": "approve",
      "outputs": [],
      "payable": true,
      "stateMutability": "payable",
      "type": "function"
    },
    {
      "constant": false,
      "inputs": [
        {
          "name": "_credentialId",
          "type": "uint256"
        },
        {
          "name": "_newCredentialUrl",
          "type": "string"
        }
      ],
      "name": "changeCredentialUrl",
      "outputs": [],
      "payable": false,
      "stateMutability": "nonpayable",
      "type": "function"
    },
    {
      "constant": false,
      "inputs": [
        {
          "name": "_from",
          "type": "address"
        },
        {
          "name": "_to",
          "type": "address"
        },
        {
          "name": "_tokenId",
          "type": "uint256"
        }
      ],
      "name": "transferFrom",
      "outputs": [],
      "payable": true,
      "stateMutability": "payable",
      "type": "function"
    },
    {
      "constant": true,
      "inputs": [
        {
          "name": "",
          "type": "uint256"
        }
      ],
      "name": "credentialToOwner",
      "outputs": [
        {
          "name": "",
          "type": "address"
        }
      ],
      "payable": false,
      "stateMutability": "view",
      "type": "function"
    },
    {
      "constant": true,
      "inputs": [
        {
          "name": "_owner",
          "type": "address"
        },
        {
          "name": "_type",
          "type": "uint16"
        }
      ],
      "name": "balanceOfCredentialType",
      "outputs": [
        {
          "name": "",
          "type": "uint16"
        }
      ],
      "payable": false,
      "stateMutability": "view",
      "type": "function"
    },
    {
      "constant": true,
      "inputs": [
        {
          "name": "",
          "type": "uint256"
        }
      ],
      "name": "credentialToIssuer",
      "outputs": [
        {
          "name": "",
          "type": "address"
        }
      ],
      "payable": false,
      "stateMutability": "view",
      "type": "function"
    },
    {
      "constant": false,
      "inputs": [
        {
          "name": "_credentialId",
          "type": "uint256"
        }
      ],
      "name": "changeRank",
      "outputs": [],
      "payable": true,
      "stateMutability": "payable",
      "type": "function"
    },
    {
      "constant": false,
      "inputs": [
        {
          "name": "_credentialId",
          "type": "uint256"
        },
        {
          "name": "_newRank",
          "type": "uint8"
        }
      ],
      "name": "setRankByIssuer",
      "outputs": [],
      "payable": false,
      "stateMutability": "nonpayable",
      "type": "function"
    },
    {
      "constant": true,
      "inputs": [
        {
          "name": "_tokenId",
          "type": "uint256"
        }
      ],
      "name": "ownerOf",
      "outputs": [
        {
          "name": "",
          "type": "address"
        }
      ],
      "payable": false,
      "stateMutability": "view",
      "type": "function"
    },
    {
      "constant": true,
      "inputs": [
        {
          "name": "_owner",
          "type": "address"
        }
      ],
      "name": "balanceOf",
      "outputs": [
        {
          "name": "",
          "type": "uint256"
        }
      ],
      "payable": false,
      "stateMutability": "view",
      "type": "function"
    },
    {
      "constant": false,
      "inputs": [],
      "name": "renounceOwnership",
      "outputs": [],
      "payable": false,
      "stateMutability": "nonpayable",
      "type": "function"
    },
    {
      "constant": true,
      "inputs": [],
      "name": "owner",
      "outputs": [
        {
          "name": "",
          "type": "address"
        }
      ],
      "payable": false,
      "stateMutability": "view",
      "type": "function"
    },
    {
      "constant": true,
      "inputs": [],
      "name": "isOwner",
      "outputs": [
        {
          "name": "",
          "type": "bool"
        }
      ],
      "payable": false,
      "stateMutability": "view",
      "type": "function"
    },
    {
      "constant": true,
      "inputs": [
        {
          "name": "",
          "type": "address"
        },
        {
          "name": "",
          "type": "uint16"
        }
      ],
      "name": "ownerCredentialTypeCount",
      "outputs": [
        {
          "name": "",
          "type": "uint16"
        }
      ],
      "payable": false,
      "stateMutability": "view",
      "type": "function"
    },
    {
      "constant": false,
      "inputs": [
        {
          "name": "_credentialId",
          "type": "uint256"
        },
        {
          "name": "_newName",
          "type": "string"
        }
      ],
      "name": "changeName",
      "outputs": [],
      "payable": false,
      "stateMutability": "nonpayable",
      "type": "function"
    },
    {
      "constant": true,
      "inputs": [
        {
          "name": "_owner",
          "type": "address"
        }
      ],
      "name": "getCredentialsByOwner",
      "outputs": [
        {
          "name": "",
          "type": "uint256[]"
        }
      ],
      "payable": false,
      "stateMutability": "view",
      "type": "function"
    },
    {
      "constant": false,
      "inputs": [
        {
          "name": "_credentialId",
          "type": "uint256"
        },
        {
          "name": "_newType",
          "type": "uint8"
        }
      ],
      "name": "changeCredentialType",
      "outputs": [],
      "payable": false,
      "stateMutability": "nonpayable",
      "type": "function"
    },
    {
      "constant": false,
      "inputs": [
        {
          "name": "_credentialId",
          "type": "uint256"
        },
        {
          "name": "_newExpirationDate",
          "type": "uint256"
        }
      ],
      "name": "changeExpirationDate",
      "outputs": [],
      "payable": false,
      "stateMutability": "nonpayable",
      "type": "function"
    },
    {
      "constant": false,
      "inputs": [
        {
          "name": "_credentialId",
          "type": "uint256"
        },
        {
          "name": "_newDescription",
          "type": "string"
        }
      ],
      "name": "changeDescription",
      "outputs": [],
      "payable": false,
      "stateMutability": "nonpayable",
      "type": "function"
    },
    {
      "constant": true,
      "inputs": [
        {
          "name": "",
          "type": "uint256"
        }
      ],
      "name": "credentials",
      "outputs": [
        {
          "name": "name",
          "type": "string"
        },
        {
          "name": "credentialType",
          "type": "uint8"
        },
        {
          "name": "dateIssued",
          "type": "uint256"
        },
        {
          "name": "expirationDate",
          "type": "uint256"
        },
        {
          "name": "description",
          "type": "string"
        },
        {
          "name": "credentialUrl",
          "type": "string"
        },
        {
          "name": "rank",
          "type": "uint8"
        }
      ],
      "payable": false,
      "stateMutability": "view",
      "type": "function"
    },
    {
      "constant": false,
      "inputs": [
        {
          "name": "_fee",
          "type": "uint256"
        }
      ],
      "name": "setRankingFee",
      "outputs": [],
      "payable": false,
      "stateMutability": "nonpayable",
      "type": "function"
    },
    {
      "constant": false,
      "inputs": [
        {
          "name": "newOwner",
          "type": "address"
        }
      ],
      "name": "transferOwnership",
      "outputs": [],
      "payable": false,
      "stateMutability": "nonpayable",
      "type": "function"
    },
    {
      "constant": false,
      "inputs": [
        {
          "name": "_credentialId",
          "type": "uint256"
        },
        {
          "name": "_newDateIssued",
          "type": "uint256"
        }
      ],
      "name": "changeDateIssued",
      "outputs": [],
      "payable": false,
      "stateMutability": "nonpayable",
      "type": "function"
    },
    {
      "anonymous": false,
      "inputs": [
        {
          "indexed": true,
          "name": "_from",
          "type": "address"
        },
        {
          "indexed": true,
          "name": "_to",
          "type": "address"
        },
        {
          "indexed": true,
          "name": "_tokenId",
          "type": "uint256"
        }
      ],
      "name": "Transfer",
      "type": "event"
    },
    {
      "anonymous": false,
      "inputs": [
        {
          "indexed": true,
          "name": "_owner",
          "type": "address"
        },
        {
          "indexed": true,
          "name": "_approved",
          "type": "address"
        },
        {
          "indexed": true,
          "name": "_tokenId",
          "type": "uint256"
        }
      ],
      "name": "Approval",
      "type": "event"
    },
    {
      "anonymous": false,
      "inputs": [
        {
          "indexed": false,
          "name": "credentialId",
          "type": "uint256"
        },
        {
          "indexed": false,
          "name": "name",
          "type": "string"
        },
        {
          "indexed": false,
          "name": "credentialType",
          "type": "uint8"
        }
      ],
      "name": "NewCredential",
      "type": "event"
    },
    {
      "anonymous": false,
      "inputs": [
        {
          "indexed": false,
          "name": "credentialId",
          "type": "uint256"
        },
        {
          "indexed": false,
          "name": "oldRank",
          "type": "uint8"
        },
        {
          "indexed": false,
          "name": "newRank",
          "type": "uint8"
        }
      ],
      "name": "RankChanged",
      "type": "event"
    },
    {
      "anonymous": false,
      "inputs": [
        {
          "indexed": true,
          "name": "previousOwner",
          "type": "address"
        },
        {
          "indexed": true,
          "name": "newOwner",
          "type": "address"
        }
      ],
      "name": "OwnershipTransferred",
      "type": "event"
    }
  ],
  "bytecode": "0x608060405266071afd498d0000600655336000806101000a81548173ffffffffffffffffffffffffffffffffffffffff021916908373ffffffffffffffffffffffffffffffffffffffff1602179055506000809054906101000a900473ffffffffffffffffffffffffffffffffffffffff1673ffffffffffffffffffffffffffffffffffffffff16600073ffffffffffffffffffffffffffffffffffffffff167f8be0079c531659141344cd1fd0a4f28419497f9722a3daafe3b4186f6b6457e060405160405180910390a3612e79806100da6000396000f3fe608060405260043610610142576000357c0100000000000000000000000000000000000000000000000000000000900480623f9d2f1461014757806304daef361461035e578063095ea7b3146103ca578063160e92911461041857806323b872dd146104a85780632f9830f5146105165780632fb1125b14610591578063392de9991461060c5780634085901614610687578063568965c4146106b55780636352211e146106fd57806370a0823114610778578063715018a6146107dd5780638da5cb5b146107f45780638f32d59b1461084b578063a398dc0b1461087a578063c39cbef1146108f5578063c96015db14610985578063cbfa7b2314610a2b578063d82d20c114610a73578063de6a06ed14610ab8578063e0574e3f14610b48578063f0f1c82b14610d0c578063f2fde38b14610d47578063ff89edbe14610d98575b600080fd5b34801561015357600080fd5b5061035c600480360360c081101561016a57600080fd5b810190808035906020019064010000000081111561018757600080fd5b82018360208201111561019957600080fd5b803590602001918460018302840111640100000000831117156101bb57600080fd5b91908080601f016020809104026020016040519081016040528093929190818152602001838380828437600081840152601f19601f820116905080830192505050505050509192919290803560ff16906020019092919080359060200190929190803590602001909291908035906020019064010000000081111561023f57600080fd5b82018360208201111561025157600080fd5b8035906020019184600183028401116401000000008311171561027357600080fd5b91908080601f016020809104026020016040519081016040528093929190818152602001838380828437600081840152601f19601f820116905080830192505050505050509192919290803590602001906401000000008111156102d657600080fd5b8201836020820111156102e857600080fd5b8035906020019184600183028401116401000000008311171561030a57600080fd5b91908080601f016020809104026020016040519081016040528093929190818152602001838380828437600081840152601f19601f820116905080830192505050505050509192919290505050610ddd565b005b34801561036a57600080fd5b50610373610df3565b6040518080602001828103825283818151815260200191508051906020019060200280838360005b838110156103b657808201518184015260208101905061039b565b505050509050019250505060405180910390f35b610416600480360360408110156103e057600080fd5b81019080803573ffffffffffffffffffffffffffffffffffffffff16906020019092919080359060200190929190505050610f43565b005b34801561042457600080fd5b506104a66004803603604081101561043b57600080fd5b81019080803590602001909291908035906020019064010000000081111561046257600080fd5b82018360208201111561047457600080fd5b8035906020019184600183028401116401000000008311171561049657600080fd5b9091929391929390505050611063565b005b610514600480360360608110156104be57600080fd5b81019080803573ffffffffffffffffffffffffffffffffffffffff169060200190929190803573ffffffffffffffffffffffffffffffffffffffff16906020019092919080359060200190929190505050611107565b005b34801561052257600080fd5b5061054f6004803603602081101561053957600080fd5b81019080803590602001909291905050506111ed565b604051808273ffffffffffffffffffffffffffffffffffffffff1673ffffffffffffffffffffffffffffffffffffffff16815260200191505060405180910390f35b34801561059d57600080fd5b506105ee600480360360408110156105b457600080fd5b81019080803573ffffffffffffffffffffffffffffffffffffffff169060200190929190803561ffff169060200190929190505050611220565b604051808261ffff1661ffff16815260200191505060405180910390f35b34801561061857600080fd5b506106456004803603602081101561062f57600080fd5b8101908080359060200190929190505050611291565b604051808273ffffffffffffffffffffffffffffffffffffffff1673ffffffffffffffffffffffffffffffffffffffff16815260200191505060405180910390f35b6106b36004803603602081101561069d57600080fd5b81019080803590602001909291905050506112c4565b005b3480156106c157600080fd5b506106fb600480360360408110156106d857600080fd5b8101908080359060200190929190803560ff169060200190929190505050611688565b005b34801561070957600080fd5b506107366004803603602081101561072057600080fd5b8101908080359060200190929190505050611998565b604051808273ffffffffffffffffffffffffffffffffffffffff1673ffffffffffffffffffffffffffffffffffffffff16815260200191505060405180910390f35b34801561078457600080fd5b506107c76004803603602081101561079b57600080fd5b81019080803573ffffffffffffffffffffffffffffffffffffffff1690602001909291905050506119d5565b6040518082815260200191505060405180910390f35b3480156107e957600080fd5b506107f2611a30565b005b34801561080057600080fd5b50610809611b02565b604051808273ffffffffffffffffffffffffffffffffffffffff1673ffffffffffffffffffffffffffffffffffffffff16815260200191505060405180910390f35b34801561085757600080fd5b50610860611b2b565b604051808215151515815260200191505060405180910390f35b34801561088657600080fd5b506108d76004803603604081101561089d57600080fd5b81019080803573ffffffffffffffffffffffffffffffffffffffff169060200190929190803561ffff169060200190929190505050611b82565b604051808261ffff1661ffff16815260200191505060405180910390f35b34801561090157600080fd5b506109836004803603604081101561091857600080fd5b81019080803590602001909291908035906020019064010000000081111561093f57600080fd5b82018360208201111561095157600080fd5b8035906020019184600183028401116401000000008311171561097357600080fd5b9091929391929390505050611bb2565b005b34801561099157600080fd5b506109d4600480360360208110156109a857600080fd5b81019080803573ffffffffffffffffffffffffffffffffffffffff169060200190929190505050611c56565b6040518080602001828103825283818151815260200191508051906020019060200280838360005b83811015610a175780820151818401526020810190506109fc565b505050509050019250505060405180910390f35b348015610a3757600080fd5b50610a7160048036036040811015610a4e57600080fd5b8101908080359060200190929190803560ff169060200190929190505050611d99565b005b348015610a7f57600080fd5b50610ab660048036036040811015610a9657600080fd5b810190808035906020019092919080359060200190929190505050611f1e565b005b348015610ac457600080fd5b50610b4660048036036040811015610adb57600080fd5b810190808035906020019092919080359060200190640100000000811115610b0257600080fd5b820183602082011115610b1457600080fd5b80359060200191846001830284011164010000000083111715610b3657600080fd5b909192939192939050505061203b565b005b348015610b5457600080fd5b50610b8160048036036020811015610b6b57600080fd5b81019080803590602001909291905050506120df565b6040518080602001886002811115610b9557fe5b60ff1681526020018781526020018681526020018060200180602001856004811115610bbd57fe5b60ff16815260200184810384528b818151815260200191508051906020019080838360005b83811015610bfd578082015181840152602081019050610be2565b50505050905090810190601f168015610c2a5780820380516001836020036101000a031916815260200191505b50848103835287818151815260200191508051906020019080838360005b83811015610c63578082015181840152602081019050610c48565b50505050905090810190601f168015610c905780820380516001836020036101000a031916815260200191505b50848103825286818151815260200191508051906020019080838360005b83811015610cc9578082015181840152602081019050610cae565b50505050905090810190601f168015610cf65780820380516001836020036101000a031916815260200191505b509a505050505050505050505060405180910390f35b348015610d1857600080fd5b50610d4560048036036020811015610d2f57600080fd5b8101908080359060200190929190505050612312565b005b348015610d5357600080fd5b50610d9660048036036020811015610d6a57600080fd5b81019080803573ffffffffffffffffffffffffffffffffffffffff16906020019092919050505061232f565b005b348015610da457600080fd5b50610ddb60048036036040811015610dbb57600080fd5b81019080803590602001909291908035906020019092919050505061234e565b005b610deb8686868686866123e6565b505050505050565b6060806005604051908082528060200260200182016040528015610e265781602001602082028038833980820191505090505b5090506000816000815181101515610e3a57fe5b906020019060200201906004811115610e4f57fe5b90816004811115610e5c57fe5b815250506001816001815181101515610e7157fe5b906020019060200201906004811115610e8657fe5b90816004811115610e9357fe5b815250506002816002815181101515610ea857fe5b906020019060200201906004811115610ebd57fe5b90816004811115610eca57fe5b815250506003816003815181101515610edf57fe5b906020019060200201906004811115610ef457fe5b90816004811115610f0157fe5b815250506004816004815181101515610f1657fe5b906020019060200201906004811115610f2b57fe5b90816004811115610f3857fe5b815250508091505090565b806003600082815260200190815260200160002060009054906101000a900473ffffffffffffffffffffffffffffffffffffffff1673ffffffffffffffffffffffffffffffffffffffff163373ffffffffffffffffffffffffffffffffffffffff16141515610fb157600080fd5b826007600084815260200190815260200160002060006101000a81548173ffffffffffffffffffffffffffffffffffffffff021916908373ffffffffffffffffffffffffffffffffffffffff160217905550818373ffffffffffffffffffffffffffffffffffffffff163373ffffffffffffffffffffffffffffffffffffffff167f8c5be1e5ebec7d5bd14f71427d1e84f3dd0314c0f7b2291e5b200ac8c7c3b92560405160405180910390a4505050565b826003600082815260200190815260200160002060009054906101000a900473ffffffffffffffffffffffffffffffffffffffff1673ffffffffffffffffffffffffffffffffffffffff163373ffffffffffffffffffffffffffffffffffffffff161415156110d157600080fd5b82826001868154811015156110e257fe5b90600052602060002090600702016005019190611100929190612cd4565b5050505050565b3373ffffffffffffffffffffffffffffffffffffffff166003600083815260200190815260200160002060009054906101000a900473ffffffffffffffffffffffffffffffffffffffff1673ffffffffffffffffffffffffffffffffffffffff1614806111d257503373ffffffffffffffffffffffffffffffffffffffff166007600083815260200190815260200160002060009054906101000a900473ffffffffffffffffffffffffffffffffffffffff1673ffffffffffffffffffffffffffffffffffffffff16145b15156111dd57600080fd5b6111e8838383612965565b505050565b60026020528060005260406000206000915054906101000a900473ffffffffffffffffffffffffffffffffffffffff1681565b6000600560008473ffffffffffffffffffffffffffffffffffffffff1673ffffffffffffffffffffffffffffffffffffffff16815260200190815260200160002060008361ffff1661ffff16815260200190815260200160002060009054906101000a900461ffff16905092915050565b60036020528060005260406000206000915054906101000a900473ffffffffffffffffffffffffffffffffffffffff1681565b806003600082815260200190815260200160002060009054906101000a900473ffffffffffffffffffffffffffffffffffffffff1673ffffffffffffffffffffffffffffffffffffffff163373ffffffffffffffffffffffffffffffffffffffff16148061139057506002600082815260200190815260200160002060009054906101000a900473ffffffffffffffffffffffffffffffffffffffff1673ffffffffffffffffffffffffffffffffffffffff163373ffffffffffffffffffffffffffffffffffffffff16145b151561139b57600080fd5b816004808111156113a857fe5b6001828154811015156113b757fe5b906000526020600020906007020160060160009054906101000a900460ff1660048111156113e157fe5b14151515611457576040517f08c379a00000000000000000000000000000000000000000000000000000000081526004018080602001828103825260178152602001807f52616e6b20697320616c7265616479204469616d6f6e6400000000000000000081525060200191505060405180910390fd5b6002600084815260200190815260200160002060009054906101000a900473ffffffffffffffffffffffffffffffffffffffff1673ffffffffffffffffffffffffffffffffffffffff163373ffffffffffffffffffffffffffffffffffffffff1614156115385760065434141515611537576040517f08c379a00000000000000000000000000000000000000000000000000000000081526004018080602001828103825260168152602001807f46656520726571756972656420666f72206f776e65720000000000000000000081525060200191505060405180910390fd5b5b600060018481548110151561154957fe5b906000526020600020906007020160060160009054906101000a900460ff1690506001808581548110151561157a57fe5b906000526020600020906007020160060160009054906101000a900460ff1660048111156115a457fe5b0160ff1660048111156115b357fe5b6001858154811015156115c257fe5b906000526020600020906007020160060160006101000a81548160ff021916908360048111156115ee57fe5b02179055507eb858b01e1fe72d3245324108c0bb4a0c180a17f35133d3b699795c6b5c6405848260018781548110151561162457fe5b906000526020600020906007020160060160009054906101000a900460ff166040518084815260200183600481111561165957fe5b60ff16815260200182600481111561166d57fe5b60ff168152602001935050505060405180910390a150505050565b816003600082815260200190815260200160002060009054906101000a900473ffffffffffffffffffffffffffffffffffffffff1673ffffffffffffffffffffffffffffffffffffffff163373ffffffffffffffffffffffffffffffffffffffff161415156116f657600080fd5b816000600481111561170457fe5b81600481111561171057fe5b148061173257506001600481111561172457fe5b81600481111561173057fe5b145b8061175357506002600481111561174557fe5b81600481111561175157fe5b145b8061177457506003600481111561176657fe5b81600481111561177257fe5b145b80611794575060048081111561178657fe5b81600481111561179257fe5b145b1515611808576040517f08c379a00000000000000000000000000000000000000000000000000000000081526004018080602001828103825260178152602001807f496e76616c69642063726564656e7469616c2072616e6b00000000000000000081525060200191505060405180910390fd5b60048081111561181457fe5b83600481111561182057fe5b141515156118bc576040517f08c379a00000000000000000000000000000000000000000000000000000000081526004018080602001828103825260238152602001807f4469616d6f6e642072616e6b2063616e6e6f74206265206469726563746c792081526020017f736574000000000000000000000000000000000000000000000000000000000081525060400191505060405180910390fd5b60006001858154811015156118cd57fe5b906000526020600020906007020160060160009054906101000a900460ff169050836001868154811015156118fe57fe5b906000526020600020906007020160060160006101000a81548160ff0219169083600481111561192a57fe5b02179055507eb858b01e1fe72d3245324108c0bb4a0c180a17f35133d3b699795c6b5c64058582866040518084815260200183600481111561196857fe5b60ff16815260200182600481111561197c57fe5b60ff168152602001935050505060405180910390a15050505050565b60006002600083815260200190815260200160002060009054906101000a900473ffffffffffffffffffffffffffffffffffffffff169050919050565b6000600460008373ffffffffffffffffffffffffffffffffffffffff1673ffffffffffffffffffffffffffffffffffffffff16815260200190815260200160002060009054906101000a900461ffff1661ffff169050919050565b611a38611b2b565b1515611a4357600080fd5b600073ffffffffffffffffffffffffffffffffffffffff166000809054906101000a900473ffffffffffffffffffffffffffffffffffffffff1673ffffffffffffffffffffffffffffffffffffffff167f8be0079c531659141344cd1fd0a4f28419497f9722a3daafe3b4186f6b6457e060405160405180910390a360008060006101000a81548173ffffffffffffffffffffffffffffffffffffffff021916908373ffffffffffffffffffffffffffffffffffffffff160217905550565b60008060009054906101000a900473ffffffffffffffffffffffffffffffffffffffff16905090565b60008060009054906101000a900473ffffffffffffffffffffffffffffffffffffffff1673ffffffffffffffffffffffffffffffffffffffff163373ffffffffffffffffffffffffffffffffffffffff1614905090565b60056020528160005260406000206020528060005260406000206000915091509054906101000a900461ffff1681565b826003600082815260200190815260200160002060009054906101000a900473ffffffffffffffffffffffffffffffffffffffff1673ffffffffffffffffffffffffffffffffffffffff163373ffffffffffffffffffffffffffffffffffffffff16141515611c2057600080fd5b8282600186815481101515611c3157fe5b90600052602060002090600702016000019190611c4f929190612cd4565b5050505050565b606080600460008473ffffffffffffffffffffffffffffffffffffffff1673ffffffffffffffffffffffffffffffffffffffff16815260200190815260200160002060009054906101000a900461ffff1661ffff16604051908082528060200260200182016040528015611cd95781602001602082028038833980820191505090505b509050600080905060008090505b600180549050811015611d8e578473ffffffffffffffffffffffffffffffffffffffff166002600083815260200190815260200160002060009054906101000a900473ffffffffffffffffffffffffffffffffffffffff1673ffffffffffffffffffffffffffffffffffffffff161415611d8157808383815181101515611d6a57fe5b906020019060200201818152505081806001019250505b8080600101915050611ce7565b508192505050919050565b816003600082815260200190815260200160002060009054906101000a900473ffffffffffffffffffffffffffffffffffffffff1673ffffffffffffffffffffffffffffffffffffffff163373ffffffffffffffffffffffffffffffffffffffff16141515611e0757600080fd5b8160006002811115611e1557fe5b816002811115611e2157fe5b1480611e43575060016002811115611e3557fe5b816002811115611e4157fe5b145b80611e635750600280811115611e5557fe5b816002811115611e6157fe5b145b1515611ed7576040517f08c379a00000000000000000000000000000000000000000000000000000000081526004018080602001828103825260178152602001807f496e76616c69642063726564656e7469616c207479706500000000000000000081525060200191505060405180910390fd5b82600185815481101515611ee757fe5b906000526020600020906007020160010160006101000a81548160ff02191690836002811115611f1357fe5b021790555050505050565b816003600082815260200190815260200160002060009054906101000a900473ffffffffffffffffffffffffffffffffffffffff1673ffffffffffffffffffffffffffffffffffffffff163373ffffffffffffffffffffffffffffffffffffffff16141515611f8c57600080fd5b814281101580611f9c5750600081145b1515612010576040517f08c379a00000000000000000000000000000000000000000000000000000000081526004018080602001828103825260168152602001807f43726564656e7469616c2068617320657870697265640000000000000000000081525060200191505060405180910390fd5b8260018581548110151561202057fe5b90600052602060002090600702016003018190555050505050565b826003600082815260200190815260200160002060009054906101000a900473ffffffffffffffffffffffffffffffffffffffff1673ffffffffffffffffffffffffffffffffffffffff163373ffffffffffffffffffffffffffffffffffffffff161415156120a957600080fd5b82826001868154811015156120ba57fe5b906000526020600020906007020160040191906120d8929190612cd4565b5050505050565b6001818154811015156120ee57fe5b9060005260206000209060070201600091509050806000018054600181600116156101000203166002900480601f01602080910402602001604051908101604052809291908181526020018280546001816001161561010002031660029004801561219a5780601f1061216f5761010080835404028352916020019161219a565b820191906000526020600020905b81548152906001019060200180831161217d57829003601f168201915b5050505050908060010160009054906101000a900460ff1690806002015490806003015490806004018054600181600116156101000203166002900480601f0160208091040260200160405190810160405280929190818152602001828054600181600116156101000203166002900480156122575780601f1061222c57610100808354040283529160200191612257565b820191906000526020600020905b81548152906001019060200180831161223a57829003601f168201915b505050505090806005018054600181600116156101000203166002900480601f0160208091040260200160405190810160405280929190818152602001828054600181600116156101000203166002900480156122f55780601f106122ca576101008083540402835291602001916122f5565b820191906000526020600020905b8154815290600101906020018083116122d857829003601f168201915b5050505050908060060160009054906101000a900460ff16905087565b61231a611b2b565b151561232557600080fd5b8060068190555050565b612337611b2b565b151561234257600080fd5b61234b81612b93565b50565b816003600082815260200190815260200160002060009054906101000a900473ffffffffffffffffffffffffffffffffffffffff1673ffffffffffffffffffffffffffffffffffffffff163373ffffffffffffffffffffffffffffffffffffffff161415156123bc57600080fd5b816001848154811015156123cc57fe5b906000526020600020906007020160020181905550505050565b84600060028111156123f457fe5b81600281111561240057fe5b148061242257506001600281111561241457fe5b81600281111561242057fe5b145b80612442575060028081111561243457fe5b81600281111561244057fe5b145b15156124b6576040517f08c379a00000000000000000000000000000000000000000000000000000000081526004018080602001828103825260178152602001807f496e76616c69642063726564656e7469616c207479706500000000000000000081525060200191505060405180910390fd5b8342811015806124c65750600081145b151561253a576040517f08c379a00000000000000000000000000000000000000000000000000000000081526004018080602001828103825260168152602001807f43726564656e7469616c2068617320657870697265640000000000000000000081525060200191505060405180910390fd5b612542612d54565b60e0604051908101604052808a815260200189600281111561256057fe5b81526020018881526020018781526020018681526020018581526020016000600481111561258a57fe5b81525090506001819080600181540180825580915050906001820390600052602060002090600702016000909192909190915060008201518160000190805190602001906125d9929190612da8565b5060208201518160010160006101000a81548160ff021916908360028111156125fe57fe5b021790555060408201518160020155606082015181600301556080820151816004019080519060200190612633929190612da8565b5060a0820151816005019080519060200190612650929190612da8565b5060c08201518160060160006101000a81548160ff0219169083600481111561267557fe5b0217905550505050600060018080549050039050336003600083815260200190815260200160002060006101000a81548173ffffffffffffffffffffffffffffffffffffffff021916908373ffffffffffffffffffffffffffffffffffffffff1602179055506127406001600460003373ffffffffffffffffffffffffffffffffffffffff1673ffffffffffffffffffffffffffffffffffffffff16815260200190815260200160002060009054906101000a900461ffff1661ffff16612c8d90919063ffffffff16565b600460003373ffffffffffffffffffffffffffffffffffffffff1673ffffffffffffffffffffffffffffffffffffffff16815260200190815260200160002060006101000a81548161ffff021916908361ffff1602179055506128226001600560003373ffffffffffffffffffffffffffffffffffffffff1673ffffffffffffffffffffffffffffffffffffffff16815260200190815260200160002060008c60028111156127eb57fe5b61ffff1661ffff16815260200190815260200160002060009054906101000a900461ffff1661ffff16612c8d90919063ffffffff16565b600560003373ffffffffffffffffffffffffffffffffffffffff1673ffffffffffffffffffffffffffffffffffffffff16815260200190815260200160002060008b600281111561286f57fe5b61ffff1661ffff16815260200190815260200160002060006101000a81548161ffff021916908361ffff1602179055507f23d9062788d2086cfbb06d0ff5a81bddd65416aee568ab05b91bb60852648040818b8b60405180848152602001806020018360028111156128dd57fe5b60ff168152602001828103825284818151815260200191508051906020019080838360005b8381101561291d578082015181840152602081019050612902565b50505050905090810190601f16801561294a5780820380516001836020036101000a031916815260200191505b5094505050505060405180910390a150505050505050505050565b6129ca6001600460008573ffffffffffffffffffffffffffffffffffffffff1673ffffffffffffffffffffffffffffffffffffffff16815260200190815260200160002060009054906101000a900461ffff1661ffff16612c8d90919063ffffffff16565b600460008473ffffffffffffffffffffffffffffffffffffffff1673ffffffffffffffffffffffffffffffffffffffff16815260200190815260200160002060006101000a81548161ffff021916908361ffff160217905550612a886001600460003373ffffffffffffffffffffffffffffffffffffffff1673ffffffffffffffffffffffffffffffffffffffff16815260200190815260200160002060009054906101000a900461ffff1661ffff16612cb390919063ffffffff16565b600460003373ffffffffffffffffffffffffffffffffffffffff1673ffffffffffffffffffffffffffffffffffffffff16815260200190815260200160002060006101000a81548161ffff021916908361ffff160217905550816002600083815260200190815260200160002060006101000a81548173ffffffffffffffffffffffffffffffffffffffff021916908373ffffffffffffffffffffffffffffffffffffffff160217905550808273ffffffffffffffffffffffffffffffffffffffff168473ffffffffffffffffffffffffffffffffffffffff167fddf252ad1be2c89b69c2b068fc378daa952ba7f163c4a11628f55a4df523b3ef60405160405180910390a4505050565b600073ffffffffffffffffffffffffffffffffffffffff168173ffffffffffffffffffffffffffffffffffffffff1614151515612bcf57600080fd5b8073ffffffffffffffffffffffffffffffffffffffff166000809054906101000a900473ffffffffffffffffffffffffffffffffffffffff1673ffffffffffffffffffffffffffffffffffffffff167f8be0079c531659141344cd1fd0a4f28419497f9722a3daafe3b4186f6b6457e060405160405180910390a3806000806101000a81548173ffffffffffffffffffffffffffffffffffffffff021916908373ffffffffffffffffffffffffffffffffffffffff16021790555050565b60008082840190508361ffff168161ffff1610151515612ca957fe5b8091505092915050565b60008261ffff168261ffff1611151515612cc957fe5b818303905092915050565b828054600181600116156101000203166002900490600052602060002090601f016020900481019282601f10612d1557803560ff1916838001178555612d43565b82800160010185558215612d43579182015b82811115612d42578235825591602001919060010190612d27565b5b509050612d509190612e28565b5090565b60e0604051908101604052806060815260200160006002811115612d7457fe5b81526020016000815260200160008152602001606081526020016060815260200160006004811115612da257fe5b81525090565b828054600181600116156101000203166002900490600052602060002090601f016020900481019282601f10612de957805160ff1916838001178555612e17565b82800160010185558215612e17579182015b82811115612e16578251825591602001919060010190612dfb565b5b509050612e249190612e28565b5090565b612e4a91905b80821115612e46576000816000905550600101612e2e565b5090565b9056fea165627a7a72305820066214e80766d193cab15ff737f065dfee685df0382d6e1d962a371dab1d804d0029",
  "source": "// SPDX-License-Identifier: MIT\r\npragma solidity >=0.4.22 <0.9.0;\r\n\r\nimport \"./CredentialOwnership.sol\";\r\n\r\ncontract AcademicCredentials is CredentialOwnership {}\r\n",
  "sourcePath": "C:\\GIT\\Immutable-Academic-Credentials\\contracts\\AcademicCredentials.sol",
  "compiler": {
    "name": "solc",
    "version": "0.5.1+commit.c8a2cb62.Emscripten.clang"
  },
  "schemaVersion": "3.4.16",
  "updatedAt": "2024-04-28T15:49:05.485Z",
  "networkType": "ethereum",
  "devdoc": {
    "methods": {
      "approve(address,uint256)": {
        "details": "Approves another address to transfer the given credential ID\r The zero address indicates there is no approved address.\r There can only be one approved address per credential at a time.\r Can only be called by the issuer of the credential.\r",
        "params": {
          "_approved": "The new approved person that can transfer the credential to himself\r",
          "_tokenId": "The credential that is being approved\r"
        }
      },
      "balanceOf(address)": {
        "details": "Returns the number of credentials owned by a specific address.\r",
        "params": {
          "_owner": "The owner address to check\r"
        },
        "return": "uint256 representing the number of credentials owned by the passed address\r"
      },
      "balanceOfCredentialType(address,uint16)": {
        "details": "Returns the number of credentials of a specific type owned by a specific address.\r",
        "params": {
          "_owner": "The owner address to check\r",
          "_type": "The type of credential to check\r"
        },
        "return": "uint16 representing the number of credentials of a specific type owned by the passed address\r"
      },
      "changeRank(uint256)": {
        "details": "This function is can be called by the owner of the credential to change the rank of the credential or by the issuer of the credential.\r The rank can only be changed if the rank is not already Diamond.\r The function requires the caller to send the ranking fee in order to change the rank if the caller is the owner.\r The function allows the issuer to directly set the rank without paying the fee.\r The function increments the rank of the credential by one.\r",
        "params": {
          "_credentialId": "The ID of the credential to change the rank of.\r"
        }
      },
      "getCredentialsByOwner(address)": {
        "details": "This function returns all the credentials owned by a given address.\r",
        "params": {
          "_owner": "The address to query the credentials of.\r"
        },
        "return": "An array of credential IDs owned by the address.\r"
      },
      "getRankingTypes()": {
        "details": "This function returns all the credentials ranking types.\r",
        "return": "An array of credential ranking types.\r"
      },
      "isOwner()": {
        "return": "true if `msg.sender` is the owner of the contract.\r"
      },
      "owner()": {
        "return": "the address of the owner.\r"
      },
      "ownerOf(uint256)": {
        "details": "Returns the owner of the credential with the given ID.\r",
        "params": {
          "_tokenId": "The ID of the credential to query the owner of\r"
        },
        "return": "the owner of the credential\r"
      },
      "renounceOwnership()": {
        "details": "Allows the current owner to relinquish control of the contract.\r"
      },
      "setRankByIssuer(uint256,uint8)": {
        "details": "This function allows the issuer of the credential to directly set the rank to the desired type without requiring a fee.\r",
        "params": {
          "_credentialId": "The ID of the credential to change the rank of.\r",
          "_newRank": "The desired rank to set for the credential.\r"
        }
      },
      "transferFrom(address,address,uint256)": {
        "details": "Transfers the ownership of a given credential ID to another address.\r Only the issuer of the credential or an approved address can transfer\r a credential.\r",
        "params": {
          "_from": "The current owner of the credential (aka issuer)\r",
          "_to": "The new owner (aka employee)\r",
          "_tokenId": "The credential ID to transfer\r"
        }
      },
      "transferOwnership(address)": {
        "details": "Allows the current owner to transfer control of the contract to a newOwner.\r",
        "params": {
          "newOwner": "The address to transfer ownership to.\r"
        }
      }
    }
  },
  "userdoc": {
    "methods": {
      "renounceOwnership()": {
        "notice": "Renouncing to ownership will leave the contract without an owner.\r It will not be possible to call the functions with the `onlyOwner`\r modifier anymore.\r"
      }
    }
  }
}