{
  "contractName": "CredentialHelper",
  "abi": [
    {
      "constant": false,
      "inputs": [
        {
          "name": "_name",
          "type": "string"
        },
        {
          "name": "_type",
          "type": "uint8"
        },
        {
          "name": "_dateOfIssue",
          "type": "uint256"
        },
        {
          "name": "_expirationDate",
          "type": "uint256"
        },
        {
          "name": "_description",
          "type": "string"
        },
        {
          "name": "_credentialUrl",
          "type": "string"
        }
      ],
      "name": "createCredential",
      "outputs": [],
      "payable": false,
      "stateMutability": "nonpayable",
      "type": "function"
    },
    {
      "constant": true,
      "inputs": [
        {
          "name": "",
          "type": "uint256"
        }
      ],
      "name": "credentialToOwner",
      "outputs": [
        {
          "name": "",
          "type": "address"
        }
      ],
      "payable": false,
      "stateMutability": "view",
      "type": "function"
    },
    {
      "constant": true,
      "inputs": [
        {
          "name": "",
          "type": "uint256"
        }
      ],
      "name": "credentialToIssuer",
      "outputs": [
        {
          "name": "",
          "type": "address"
        }
      ],
      "payable": false,
      "stateMutability": "view",
      "type": "function"
    },
    {
      "constant": false,
      "inputs": [],
      "name": "renounceOwnership",
      "outputs": [],
      "payable": false,
      "stateMutability": "nonpayable",
      "type": "function"
    },
    {
      "constant": true,
      "inputs": [],
      "name": "owner",
      "outputs": [
        {
          "name": "",
          "type": "address"
        }
      ],
      "payable": false,
      "stateMutability": "view",
      "type": "function"
    },
    {
      "constant": true,
      "inputs": [],
      "name": "isOwner",
      "outputs": [
        {
          "name": "",
          "type": "bool"
        }
      ],
      "payable": false,
      "stateMutability": "view",
      "type": "function"
    },
    {
      "constant": true,
      "inputs": [
        {
          "name": "",
          "type": "address"
        },
        {
          "name": "",
          "type": "uint16"
        }
      ],
      "name": "ownerCredentialTypeCount",
      "outputs": [
        {
          "name": "",
          "type": "uint16"
        }
      ],
      "payable": false,
      "stateMutability": "view",
      "type": "function"
    },
    {
      "constant": true,
      "inputs": [
        {
          "name": "",
          "type": "uint256"
        }
      ],
      "name": "credentials",
      "outputs": [
        {
          "name": "name",
          "type": "string"
        },
        {
          "name": "credentialType",
          "type": "uint8"
        },
        {
          "name": "dateIssued",
          "type": "uint256"
        },
        {
          "name": "expirationDate",
          "type": "uint256"
        },
        {
          "name": "description",
          "type": "string"
        },
        {
          "name": "credentialUrl",
          "type": "string"
        },
        {
          "name": "rank",
          "type": "uint8"
        }
      ],
      "payable": false,
      "stateMutability": "view",
      "type": "function"
    },
    {
      "constant": false,
      "inputs": [
        {
          "name": "newOwner",
          "type": "address"
        }
      ],
      "name": "transferOwnership",
      "outputs": [],
      "payable": false,
      "stateMutability": "nonpayable",
      "type": "function"
    },
    {
      "anonymous": false,
      "inputs": [
        {
          "indexed": false,
          "name": "credentialId",
          "type": "uint256"
        },
        {
          "indexed": false,
          "name": "name",
          "type": "string"
        },
        {
          "indexed": false,
          "name": "credentialType",
          "type": "uint8"
        },
        {
          "indexed": false,
          "name": "issuer",
          "type": "address"
        }
      ],
      "name": "NewCredential",
      "type": "event"
    },
    {
      "anonymous": false,
      "inputs": [
        {
          "indexed": false,
          "name": "credentialId",
          "type": "uint256"
        },
        {
          "indexed": false,
          "name": "oldRank",
          "type": "uint8"
        },
        {
          "indexed": false,
          "name": "newRank",
          "type": "uint8"
        }
      ],
      "name": "RankChanged",
      "type": "event"
    },
    {
      "anonymous": false,
      "inputs": [
        {
          "indexed": false,
          "name": "credentialId",
          "type": "uint256"
        },
        {
          "indexed": false,
          "name": "name",
          "type": "string"
        },
        {
          "indexed": false,
          "name": "credentialType",
          "type": "uint8"
        },
        {
          "indexed": false,
          "name": "dateIssued",
          "type": "uint256"
        },
        {
          "indexed": false,
          "name": "expirationDate",
          "type": "uint256"
        },
        {
          "indexed": false,
          "name": "description",
          "type": "string"
        },
        {
          "indexed": false,
          "name": "credentialUrl",
          "type": "string"
        }
      ],
      "name": "CredentialChanged",
      "type": "event"
    },
    {
      "anonymous": false,
      "inputs": [
        {
          "indexed": true,
          "name": "previousOwner",
          "type": "address"
        },
        {
          "indexed": true,
          "name": "newOwner",
          "type": "address"
        }
      ],
      "name": "OwnershipTransferred",
      "type": "event"
    },
    {
      "constant": false,
      "inputs": [
        {
          "name": "_fee",
          "type": "uint256"
        }
      ],
      "name": "setRankingFee",
      "outputs": [],
      "payable": false,
      "stateMutability": "nonpayable",
      "type": "function"
    },
    {
      "constant": false,
      "inputs": [
        {
          "name": "_credentialId",
          "type": "uint256"
        },
        {
          "name": "_newName",
          "type": "string"
        },
        {
          "name": "_newType",
          "type": "uint8"
        },
        {
          "name": "_newDateIssued",
          "type": "uint256"
        },
        {
          "name": "_newExpirationDate",
          "type": "uint256"
        },
        {
          "name": "_newDescription",
          "type": "string"
        },
        {
          "name": "_newCredentialUrl",
          "type": "string"
        }
      ],
      "name": "changeCredential",
      "outputs": [],
      "payable": false,
      "stateMutability": "nonpayable",
      "type": "function"
    },
    {
      "constant": false,
      "inputs": [
        {
          "name": "_credentialId",
          "type": "uint256"
        }
      ],
      "name": "changeRank",
      "outputs": [],
      "payable": true,
      "stateMutability": "payable",
      "type": "function"
    },
    {
      "constant": false,
      "inputs": [
        {
          "name": "_credentialId",
          "type": "uint256"
        },
        {
          "name": "_newRank",
          "type": "uint8"
        }
      ],
      "name": "setRankByIssuer",
      "outputs": [],
      "payable": false,
      "stateMutability": "nonpayable",
      "type": "function"
    },
    {
      "constant": true,
      "inputs": [
        {
          "name": "_owner",
          "type": "address"
        }
      ],
      "name": "getCredentialsByOwner",
      "outputs": [
        {
          "name": "",
          "type": "uint256[]"
        }
      ],
      "payable": false,
      "stateMutability": "view",
      "type": "function"
    },
    {
      "constant": true,
      "inputs": [
        {
          "name": "_issuer",
          "type": "address"
        }
      ],
      "name": "getCredentialsByIssuer",
      "outputs": [
        {
          "name": "",
          "type": "uint256[]"
        }
      ],
      "payable": false,
      "stateMutability": "view",
      "type": "function"
    },
    {
      "constant": true,
      "inputs": [],
      "name": "getRankingTypes",
      "outputs": [
        {
          "name": "",
          "type": "uint8[]"
        }
      ],
      "payable": false,
      "stateMutability": "pure",
      "type": "function"
    }
  ],
  "bytecode": "0x608060405266071afd498d0000600755336000806101000a81548173ffffffffffffffffffffffffffffffffffffffff021916908373ffffffffffffffffffffffffffffffffffffffff1602179055506000809054906101000a900473ffffffffffffffffffffffffffffffffffffffff1673ffffffffffffffffffffffffffffffffffffffff16600073ffffffffffffffffffffffffffffffffffffffff167f8be0079c531659141344cd1fd0a4f28419497f9722a3daafe3b4186f6b6457e060405160405180910390a3612919806100da6000396000f3fe6080604052600436106100df576000357c0100000000000000000000000000000000000000000000000000000000900480623f9d2f146100e457806304daef36146102fb5780632f9830f51461036757806332860d6b146103e2578063392de999146104885780634085901614610503578063568965c4146105315780636e03b07f14610579578063715018a6146106d45780638da5cb5b146106eb5780638f32d59b14610742578063a398dc0b14610771578063c96015db146107ec578063e0574e3f14610892578063f0f1c82b14610a56578063f2fde38b14610a91575b600080fd5b3480156100f057600080fd5b506102f9600480360360c081101561010757600080fd5b810190808035906020019064010000000081111561012457600080fd5b82018360208201111561013657600080fd5b8035906020019184600183028401116401000000008311171561015857600080fd5b91908080601f016020809104026020016040519081016040528093929190818152602001838380828437600081840152601f19601f820116905080830192505050505050509192919290803560ff1690602001909291908035906020019092919080359060200190929190803590602001906401000000008111156101dc57600080fd5b8201836020820111156101ee57600080fd5b8035906020019184600183028401116401000000008311171561021057600080fd5b91908080601f016020809104026020016040519081016040528093929190818152602001838380828437600081840152601f19601f8201169050808301925050505050505091929192908035906020019064010000000081111561027357600080fd5b82018360208201111561028557600080fd5b803590602001918460018302840111640100000000831117156102a757600080fd5b91908080601f016020809104026020016040519081016040528093929190818152602001838380828437600081840152601f19601f820116905080830192505050505050509192919290505050610ae2565b005b34801561030757600080fd5b50610310610af8565b6040518080602001828103825283818151815260200191508051906020019060200280838360005b83811015610353578082015181840152602081019050610338565b505050509050019250505060405180910390f35b34801561037357600080fd5b506103a06004803603602081101561038a57600080fd5b8101908080359060200190929190505050610c48565b604051808273ffffffffffffffffffffffffffffffffffffffff1673ffffffffffffffffffffffffffffffffffffffff16815260200191505060405180910390f35b3480156103ee57600080fd5b506104316004803603602081101561040557600080fd5b81019080803573ffffffffffffffffffffffffffffffffffffffff169060200190929190505050610c7b565b6040518080602001828103825283818151815260200191508051906020019060200280838360005b83811015610474578082015181840152602081019050610459565b505050509050019250505060405180910390f35b34801561049457600080fd5b506104c1600480360360208110156104ab57600080fd5b8101908080359060200190929190505050610dbe565b604051808273ffffffffffffffffffffffffffffffffffffffff1673ffffffffffffffffffffffffffffffffffffffff16815260200191505060405180910390f35b61052f6004803603602081101561051957600080fd5b8101908080359060200190929190505050610df1565b005b34801561053d57600080fd5b506105776004803603604081101561055457600080fd5b8101908080359060200190929190803560ff1690602001909291905050506111b5565b005b34801561058557600080fd5b506106d2600480360360e081101561059c57600080fd5b8101908080359060200190929190803590602001906401000000008111156105c357600080fd5b8201836020820111156105d557600080fd5b803590602001918460018302840111640100000000831117156105f757600080fd5b9091929391929390803560ff16906020019092919080359060200190929190803590602001909291908035906020019064010000000081111561063957600080fd5b82018360208201111561064b57600080fd5b8035906020019184600183028401116401000000008311171561066d57600080fd5b90919293919293908035906020019064010000000081111561068e57600080fd5b8201836020820111156106a057600080fd5b803590602001918460018302840111640100000000831117156106c257600080fd5b90919293919293905050506114c5565b005b3480156106e057600080fd5b506106e9611741565b005b3480156106f757600080fd5b50610700611813565b604051808273ffffffffffffffffffffffffffffffffffffffff1673ffffffffffffffffffffffffffffffffffffffff16815260200191505060405180910390f35b34801561074e57600080fd5b5061075761183c565b604051808215151515815260200191505060405180910390f35b34801561077d57600080fd5b506107ce6004803603604081101561079457600080fd5b81019080803573ffffffffffffffffffffffffffffffffffffffff169060200190929190803561ffff169060200190929190505050611893565b604051808261ffff1661ffff16815260200191505060405180910390f35b3480156107f857600080fd5b5061083b6004803603602081101561080f57600080fd5b81019080803573ffffffffffffffffffffffffffffffffffffffff1690602001909291905050506118c3565b6040518080602001828103825283818151815260200191508051906020019060200280838360005b8381101561087e578082015181840152602081019050610863565b505050509050019250505060405180910390f35b34801561089e57600080fd5b506108cb600480360360208110156108b557600080fd5b8101908080359060200190929190505050611a06565b60405180806020018860028111156108df57fe5b60ff168152602001878152602001868152602001806020018060200185600481111561090757fe5b60ff16815260200184810384528b818151815260200191508051906020019080838360005b8381101561094757808201518184015260208101905061092c565b50505050905090810190601f1680156109745780820380516001836020036101000a031916815260200191505b50848103835287818151815260200191508051906020019080838360005b838110156109ad578082015181840152602081019050610992565b50505050905090810190601f1680156109da5780820380516001836020036101000a031916815260200191505b50848103825286818151815260200191508051906020019080838360005b83811015610a135780820151818401526020810190506109f8565b50505050905090810190601f168015610a405780820380516001836020036101000a031916815260200191505b509a505050505050505050505060405180910390f35b348015610a6257600080fd5b50610a8f60048036036020811015610a7957600080fd5b8101908080359060200190929190505050611c39565b005b348015610a9d57600080fd5b50610ae060048036036020811015610ab457600080fd5b81019080803573ffffffffffffffffffffffffffffffffffffffff169060200190929190505050611c56565b005b610af0868686868686611c75565b505050505050565b6060806005604051908082528060200260200182016040528015610b2b5781602001602082028038833980820191505090505b5090506000816000815181101515610b3f57fe5b906020019060200201906004811115610b5457fe5b90816004811115610b6157fe5b815250506001816001815181101515610b7657fe5b906020019060200201906004811115610b8b57fe5b90816004811115610b9857fe5b815250506002816002815181101515610bad57fe5b906020019060200201906004811115610bc257fe5b90816004811115610bcf57fe5b815250506003816003815181101515610be457fe5b906020019060200201906004811115610bf957fe5b90816004811115610c0657fe5b815250506004816004815181101515610c1b57fe5b906020019060200201906004811115610c3057fe5b90816004811115610c3d57fe5b815250508091505090565b60026020528060005260406000206000915054906101000a900473ffffffffffffffffffffffffffffffffffffffff1681565b606080600560008473ffffffffffffffffffffffffffffffffffffffff1673ffffffffffffffffffffffffffffffffffffffff16815260200190815260200160002060009054906101000a900461ffff1661ffff16604051908082528060200260200182016040528015610cfe5781602001602082028038833980820191505090505b509050600080905060008090505b600180549050811015610db3578473ffffffffffffffffffffffffffffffffffffffff166003600083815260200190815260200160002060009054906101000a900473ffffffffffffffffffffffffffffffffffffffff1673ffffffffffffffffffffffffffffffffffffffff161415610da657808383815181101515610d8f57fe5b906020019060200201818152505081806001019250505b8080600101915050610d0c565b508192505050919050565b60036020528060005260406000206000915054906101000a900473ffffffffffffffffffffffffffffffffffffffff1681565b806003600082815260200190815260200160002060009054906101000a900473ffffffffffffffffffffffffffffffffffffffff1673ffffffffffffffffffffffffffffffffffffffff163373ffffffffffffffffffffffffffffffffffffffff161480610ebd57506002600082815260200190815260200160002060009054906101000a900473ffffffffffffffffffffffffffffffffffffffff1673ffffffffffffffffffffffffffffffffffffffff163373ffffffffffffffffffffffffffffffffffffffff16145b1515610ec857600080fd5b81600480811115610ed557fe5b600182815481101515610ee457fe5b906000526020600020906007020160060160009054906101000a900460ff166004811115610f0e57fe5b14151515610f84576040517f08c379a00000000000000000000000000000000000000000000000000000000081526004018080602001828103825260178152602001807f52616e6b20697320616c7265616479204469616d6f6e6400000000000000000081525060200191505060405180910390fd5b6002600084815260200190815260200160002060009054906101000a900473ffffffffffffffffffffffffffffffffffffffff1673ffffffffffffffffffffffffffffffffffffffff163373ffffffffffffffffffffffffffffffffffffffff1614156110655760075434141515611064576040517f08c379a00000000000000000000000000000000000000000000000000000000081526004018080602001828103825260168152602001807f46656520726571756972656420666f72206f776e65720000000000000000000081525060200191505060405180910390fd5b5b600060018481548110151561107657fe5b906000526020600020906007020160060160009054906101000a900460ff169050600180858154811015156110a757fe5b906000526020600020906007020160060160009054906101000a900460ff1660048111156110d157fe5b0160ff1660048111156110e057fe5b6001858154811015156110ef57fe5b906000526020600020906007020160060160006101000a81548160ff0219169083600481111561111b57fe5b02179055507eb858b01e1fe72d3245324108c0bb4a0c180a17f35133d3b699795c6b5c6405848260018781548110151561115157fe5b906000526020600020906007020160060160009054906101000a900460ff166040518084815260200183600481111561118657fe5b60ff16815260200182600481111561119a57fe5b60ff168152602001935050505060405180910390a150505050565b816003600082815260200190815260200160002060009054906101000a900473ffffffffffffffffffffffffffffffffffffffff1673ffffffffffffffffffffffffffffffffffffffff163373ffffffffffffffffffffffffffffffffffffffff1614151561122357600080fd5b816000600481111561123157fe5b81600481111561123d57fe5b148061125f57506001600481111561125157fe5b81600481111561125d57fe5b145b8061128057506002600481111561127257fe5b81600481111561127e57fe5b145b806112a157506003600481111561129357fe5b81600481111561129f57fe5b145b806112c157506004808111156112b357fe5b8160048111156112bf57fe5b145b1515611335576040517f08c379a00000000000000000000000000000000000000000000000000000000081526004018080602001828103825260178152602001807f496e76616c69642063726564656e7469616c2072616e6b00000000000000000081525060200191505060405180910390fd5b60048081111561134157fe5b83600481111561134d57fe5b141515156113e9576040517f08c379a00000000000000000000000000000000000000000000000000000000081526004018080602001828103825260238152602001807f4469616d6f6e642072616e6b2063616e6e6f74206265206469726563746c792081526020017f736574000000000000000000000000000000000000000000000000000000000081525060400191505060405180910390fd5b60006001858154811015156113fa57fe5b906000526020600020906007020160060160009054906101000a900460ff1690508360018681548110151561142b57fe5b906000526020600020906007020160060160006101000a81548160ff0219169083600481111561145757fe5b02179055507eb858b01e1fe72d3245324108c0bb4a0c180a17f35133d3b699795c6b5c64058582866040518084815260200183600481111561149557fe5b60ff1681526020018260048111156114a957fe5b60ff168152602001935050505060405180910390a15050505050565b896003600082815260200190815260200160002060009054906101000a900473ffffffffffffffffffffffffffffffffffffffff1673ffffffffffffffffffffffffffffffffffffffff163373ffffffffffffffffffffffffffffffffffffffff1614151561153357600080fd5b6115818b8b8b8080601f016020809104026020016040519081016040528093929190818152602001838380828437600081840152601f19601f82011690508083019250505050505050612122565b61158b8b896121ca565b6115958b8861234f565b61159f8b876123e7565b6115ed8b86868080601f016020809104026020016040519081016040528093929190818152602001838380828437600081840152601f19601f82011690508083019250505050505050612504565b61163b8b84848080601f016020809104026020016040519081016040528093929190818152602001838380828437600081840152601f19601f820116905080830192505050505050506125ac565b7f31350a620a954dd1b89fe8a5534ca3f11839a50e23ec0cfd6c292438a3c2e6b38b8b8b8b8b8b8b8b8b8b604051808b81526020018060200189600281111561168057fe5b60ff168152602001888152602001878152602001806020018060200184810384528d8d82818152602001925080828437600081840152601f19601f8201169050808301925050508481038352888882818152602001925080828437600081840152601f19601f8201169050808301925050508481038252868682818152602001925080828437600081840152601f19601f8201169050808301925050509d505050505050505050505050505060405180910390a15050505050505050505050565b61174961183c565b151561175457600080fd5b600073ffffffffffffffffffffffffffffffffffffffff166000809054906101000a900473ffffffffffffffffffffffffffffffffffffffff1673ffffffffffffffffffffffffffffffffffffffff167f8be0079c531659141344cd1fd0a4f28419497f9722a3daafe3b4186f6b6457e060405160405180910390a360008060006101000a81548173ffffffffffffffffffffffffffffffffffffffff021916908373ffffffffffffffffffffffffffffffffffffffff160217905550565b60008060009054906101000a900473ffffffffffffffffffffffffffffffffffffffff16905090565b60008060009054906101000a900473ffffffffffffffffffffffffffffffffffffffff1673ffffffffffffffffffffffffffffffffffffffff163373ffffffffffffffffffffffffffffffffffffffff1614905090565b60066020528160005260406000206020528060005260406000206000915091509054906101000a900461ffff1681565b606080600460008473ffffffffffffffffffffffffffffffffffffffff1673ffffffffffffffffffffffffffffffffffffffff16815260200190815260200160002060009054906101000a900461ffff1661ffff166040519080825280602002602001820160405280156119465781602001602082028038833980820191505090505b509050600080905060008090505b6001805490508110156119fb578473ffffffffffffffffffffffffffffffffffffffff166002600083815260200190815260200160002060009054906101000a900473ffffffffffffffffffffffffffffffffffffffff1673ffffffffffffffffffffffffffffffffffffffff1614156119ee578083838151811015156119d757fe5b906020019060200201818152505081806001019250505b8080600101915050611954565b508192505050919050565b600181815481101515611a1557fe5b9060005260206000209060070201600091509050806000018054600181600116156101000203166002900480601f016020809104026020016040519081016040528092919081815260200182805460018160011615610100020316600290048015611ac15780601f10611a9657610100808354040283529160200191611ac1565b820191906000526020600020905b815481529060010190602001808311611aa457829003601f168201915b5050505050908060010160009054906101000a900460ff1690806002015490806003015490806004018054600181600116156101000203166002900480601f016020809104026020016040519081016040528092919081815260200182805460018160011615610100020316600290048015611b7e5780601f10611b5357610100808354040283529160200191611b7e565b820191906000526020600020905b815481529060010190602001808311611b6157829003601f168201915b505050505090806005018054600181600116156101000203166002900480601f016020809104026020016040519081016040528092919081815260200182805460018160011615610100020316600290048015611c1c5780601f10611bf157610100808354040283529160200191611c1c565b820191906000526020600020905b815481529060010190602001808311611bff57829003601f168201915b5050505050908060060160009054906101000a900460ff16905087565b611c4161183c565b1515611c4c57600080fd5b8060078190555050565b611c5e61183c565b1515611c6957600080fd5b611c7281612654565b50565b8460006002811115611c8357fe5b816002811115611c8f57fe5b1480611cb1575060016002811115611ca357fe5b816002811115611caf57fe5b145b80611cd15750600280811115611cc357fe5b816002811115611ccf57fe5b145b1515611d45576040517f08c379a00000000000000000000000000000000000000000000000000000000081526004018080602001828103825260178152602001807f496e76616c69642063726564656e7469616c207479706500000000000000000081525060200191505060405180910390fd5b834281101580611d555750600081145b1515611dc9576040517f08c379a00000000000000000000000000000000000000000000000000000000081526004018080602001828103825260168152602001807f43726564656e7469616c2068617320657870697265640000000000000000000081525060200191505060405180910390fd5b611dd1612774565b60e0604051908101604052808a8152602001896002811115611def57fe5b815260200188815260200187815260200186815260200185815260200160006004811115611e1957fe5b8152509050600181908060018154018082558091505090600182039060005260206000209060070201600090919290919091506000820151816000019080519060200190611e689291906127c8565b5060208201518160010160006101000a81548160ff02191690836002811115611e8d57fe5b021790555060408201518160020155606082015181600301556080820151816004019080519060200190611ec29291906127c8565b5060a0820151816005019080519060200190611edf9291906127c8565b5060c08201518160060160006101000a81548160ff02191690836004811115611f0457fe5b0217905550505050600060018080549050039050336003600083815260200190815260200160002060006101000a81548173ffffffffffffffffffffffffffffffffffffffff021916908373ffffffffffffffffffffffffffffffffffffffff160217905550611fcf6001600560003373ffffffffffffffffffffffffffffffffffffffff1673ffffffffffffffffffffffffffffffffffffffff16815260200190815260200160002060009054906101000a900461ffff1661ffff1661274e90919063ffffffff16565b600560003373ffffffffffffffffffffffffffffffffffffffff1673ffffffffffffffffffffffffffffffffffffffff16815260200190815260200160002060006101000a81548161ffff021916908361ffff1602179055507fbe135cbc475f7cdc37a822551dbd23653680d65440798fb5bd944dfff1bbd173818b8b33604051808581526020018060200184600281111561206757fe5b60ff1681526020018373ffffffffffffffffffffffffffffffffffffffff1673ffffffffffffffffffffffffffffffffffffffff168152602001828103825285818151815260200191508051906020019080838360005b838110156120d95780820151818401526020810190506120be565b50505050905090810190601f1680156121065780820380516001836020036101000a031916815260200191505b509550505050505060405180910390a150505050505050505050565b816003600082815260200190815260200160002060009054906101000a900473ffffffffffffffffffffffffffffffffffffffff1673ffffffffffffffffffffffffffffffffffffffff163373ffffffffffffffffffffffffffffffffffffffff1614151561219057600080fd5b816001848154811015156121a057fe5b906000526020600020906007020160000190805190602001906121c4929190612848565b50505050565b816003600082815260200190815260200160002060009054906101000a900473ffffffffffffffffffffffffffffffffffffffff1673ffffffffffffffffffffffffffffffffffffffff163373ffffffffffffffffffffffffffffffffffffffff1614151561223857600080fd5b816000600281111561224657fe5b81600281111561225257fe5b148061227457506001600281111561226657fe5b81600281111561227257fe5b145b80612294575060028081111561228657fe5b81600281111561229257fe5b145b1515612308576040517f08c379a00000000000000000000000000000000000000000000000000000000081526004018080602001828103825260178152602001807f496e76616c69642063726564656e7469616c207479706500000000000000000081525060200191505060405180910390fd5b8260018581548110151561231857fe5b906000526020600020906007020160010160006101000a81548160ff0219169083600281111561234457fe5b021790555050505050565b816003600082815260200190815260200160002060009054906101000a900473ffffffffffffffffffffffffffffffffffffffff1673ffffffffffffffffffffffffffffffffffffffff163373ffffffffffffffffffffffffffffffffffffffff161415156123bd57600080fd5b816001848154811015156123cd57fe5b906000526020600020906007020160020181905550505050565b816003600082815260200190815260200160002060009054906101000a900473ffffffffffffffffffffffffffffffffffffffff1673ffffffffffffffffffffffffffffffffffffffff163373ffffffffffffffffffffffffffffffffffffffff1614151561245557600080fd5b8142811015806124655750600081145b15156124d9576040517f08c379a00000000000000000000000000000000000000000000000000000000081526004018080602001828103825260168152602001807f43726564656e7469616c2068617320657870697265640000000000000000000081525060200191505060405180910390fd5b826001858154811015156124e957fe5b90600052602060002090600702016003018190555050505050565b816003600082815260200190815260200160002060009054906101000a900473ffffffffffffffffffffffffffffffffffffffff1673ffffffffffffffffffffffffffffffffffffffff163373ffffffffffffffffffffffffffffffffffffffff1614151561257257600080fd5b8160018481548110151561258257fe5b906000526020600020906007020160040190805190602001906125a6929190612848565b50505050565b816003600082815260200190815260200160002060009054906101000a900473ffffffffffffffffffffffffffffffffffffffff1673ffffffffffffffffffffffffffffffffffffffff163373ffffffffffffffffffffffffffffffffffffffff1614151561261a57600080fd5b8160018481548110151561262a57fe5b9060005260206000209060070201600501908051906020019061264e929190612848565b50505050565b600073ffffffffffffffffffffffffffffffffffffffff168173ffffffffffffffffffffffffffffffffffffffff161415151561269057600080fd5b8073ffffffffffffffffffffffffffffffffffffffff166000809054906101000a900473ffffffffffffffffffffffffffffffffffffffff1673ffffffffffffffffffffffffffffffffffffffff167f8be0079c531659141344cd1fd0a4f28419497f9722a3daafe3b4186f6b6457e060405160405180910390a3806000806101000a81548173ffffffffffffffffffffffffffffffffffffffff021916908373ffffffffffffffffffffffffffffffffffffffff16021790555050565b60008082840190508361ffff168161ffff161015151561276a57fe5b8091505092915050565b60e060405190810160405280606081526020016000600281111561279457fe5b815260200160008152602001600081526020016060815260200160608152602001600060048111156127c257fe5b81525090565b828054600181600116156101000203166002900490600052602060002090601f016020900481019282601f1061280957805160ff1916838001178555612837565b82800160010185558215612837579182015b8281111561283657825182559160200191906001019061281b565b5b50905061284491906128c8565b5090565b828054600181600116156101000203166002900490600052602060002090601f016020900481019282601f1061288957805160ff19168380011785556128b7565b828001600101855582156128b7579182015b828111156128b657825182559160200191906001019061289b565b5b5090506128c491906128c8565b5090565b6128ea91905b808211156128e65760008160009055506001016128ce565b5090565b9056fea165627a7a7230582010eeb1da64bbd054e46de04dd7e8a416abe59c1a39b894552164b67c5038fe4e0029",
  "source": "// SPDX-License-Identifier: MIT\r\npragma solidity >=0.4.22 <0.9.0;\r\n\r\nimport \"./CredentialFactory.sol\";\r\n\r\ncontract CredentialHelper is CredentialFactory {\r\n    uint rankingFee = 0.002 ether;\r\n\r\n    /**\r\n     * @dev This modifier checks if the sender is the issuer of the credential.\r\n     * @param _credentialId The ID of the credential to check the issuer of.\r\n     */\r\n    modifier onlyIssuerOf(uint _credentialId) {\r\n        require(msg.sender == credentialToIssuer[_credentialId]);\r\n        _;\r\n    }\r\n\r\n    /**\r\n     * @dev This modifier checks if the sender is the owner of the credential or the issuer of the credential.\r\n     * @param _credentialId The ID of the credential to check the owner of or the issuer of.\r\n     */\r\n    modifier onlyIssuerOrOwnerOf(uint _credentialId) {\r\n        require(\r\n            msg.sender == credentialToIssuer[_credentialId] ||\r\n                msg.sender == credentialToOwner[_credentialId]\r\n        );\r\n        _;\r\n    }\r\n\r\n    /**\r\n     * @dev This modifier checks if the rank of the credential is not Diamond.\r\n     * @param _credentialId The ID of the credential to check the rank of.\r\n     */\r\n    modifier canChangeRank(uint _credentialId) {\r\n        require(\r\n            credentials[_credentialId].rank != CredentialRank.Diamond,\r\n            \"Rank is already Diamond\"\r\n        );\r\n        _;\r\n    }\r\n\r\n    /**\r\n     * @dev This modifier checks if the credential rank is valid.\r\n     * @param _rank The credential rank to check.\r\n     */\r\n    modifier onlyValidCredentialRank(CredentialRank _rank) {\r\n        require(\r\n            _rank == CredentialRank.Bronze ||\r\n                _rank == CredentialRank.Silver ||\r\n                _rank == CredentialRank.Gold ||\r\n                _rank == CredentialRank.Platinum ||\r\n                _rank == CredentialRank.Diamond,\r\n            \"Invalid credential rank\"\r\n        );\r\n        _;\r\n    }\r\n\r\n    function setRankingFee(uint _fee) external onlyOwner {\r\n        rankingFee = _fee;\r\n    }\r\n\r\n    function changeName(\r\n        uint _credentialId,\r\n        string memory _newName\r\n    ) private onlyIssuerOf(_credentialId) {\r\n        credentials[_credentialId].name = _newName;\r\n    }\r\n\r\n    function changeCredentialType(\r\n        uint _credentialId,\r\n        CredentialType _newType\r\n    ) private onlyIssuerOf(_credentialId) onlyValidCredentialType(_newType) {\r\n        credentials[_credentialId].credentialType = _newType;\r\n    }\r\n\r\n    function changeDateIssued(\r\n        uint _credentialId,\r\n        uint _newDateIssued\r\n    ) private onlyIssuerOf(_credentialId) {\r\n        credentials[_credentialId].dateIssued = _newDateIssued;\r\n    }\r\n\r\n    function changeExpirationDate(\r\n        uint _credentialId,\r\n        uint _newExpirationDate\r\n    )\r\n        private\r\n        onlyIssuerOf(_credentialId)\r\n        onlyNonExpiredCredential(_newExpirationDate)\r\n    {\r\n        credentials[_credentialId].expirationDate = _newExpirationDate;\r\n    }\r\n\r\n    function changeDescription(\r\n        uint _credentialId,\r\n        string memory _newDescription\r\n    ) private onlyIssuerOf(_credentialId) {\r\n        credentials[_credentialId].description = _newDescription;\r\n    }\r\n\r\n    function changeCredentialUrl(\r\n        uint _credentialId,\r\n        string memory _newCredentialUrl\r\n    ) private onlyIssuerOf(_credentialId) {\r\n        credentials[_credentialId].credentialUrl = _newCredentialUrl;\r\n    }\r\n\r\n    function changeCredential(\r\n        uint _credentialId,\r\n        string calldata _newName,\r\n        CredentialType _newType,\r\n        uint _newDateIssued,\r\n        uint _newExpirationDate,\r\n        string calldata _newDescription,\r\n        string calldata _newCredentialUrl\r\n    ) external onlyIssuerOf(_credentialId) {\r\n        changeName(_credentialId, _newName);\r\n        changeCredentialType(_credentialId, _newType);\r\n        changeDateIssued(_credentialId, _newDateIssued);\r\n        changeExpirationDate(_credentialId, _newExpirationDate);\r\n        changeDescription(_credentialId, _newDescription);\r\n        changeCredentialUrl(_credentialId, _newCredentialUrl);\r\n        emit CredentialChanged(\r\n            _credentialId,\r\n            _newName,\r\n            _newType,\r\n            _newDateIssued,\r\n            _newExpirationDate,\r\n            _newDescription,\r\n            _newCredentialUrl\r\n        );\r\n    }\r\n\r\n    /**\r\n     * @dev This function is can be called by the owner of the credential to change the rank of the credential or by the issuer of the credential.\r\n     * The rank can only be changed if the rank is not already Diamond.\r\n     * The function requires the caller to send the ranking fee in order to change the rank if the caller is the owner.\r\n     * The function allows the issuer to directly set the rank without paying the fee.\r\n     * The function increments the rank of the credential by one.\r\n     * @param _credentialId The ID of the credential to change the rank of.\r\n     */\r\n    function changeRank(\r\n        uint _credentialId\r\n    )\r\n        external\r\n        payable\r\n        onlyIssuerOrOwnerOf(_credentialId)\r\n        canChangeRank(_credentialId)\r\n    {\r\n        if (msg.sender == credentialToOwner[_credentialId]) {\r\n            require(msg.value == rankingFee, \"Fee required for owner\");\r\n        }\r\n\r\n        CredentialRank oldRank = credentials[_credentialId].rank;\r\n        credentials[_credentialId].rank = CredentialRank(\r\n            uint8(credentials[_credentialId].rank) + 1\r\n        );\r\n        emit RankChanged(\r\n            _credentialId,\r\n            oldRank,\r\n            credentials[_credentialId].rank\r\n        );\r\n    }\r\n\r\n    /**\r\n     * @dev This function allows the issuer of the credential to directly set the rank to the desired type without requiring a fee.\r\n     * @param _credentialId The ID of the credential to change the rank of.\r\n     * @param _newRank The desired rank to set for the credential.\r\n     */\r\n    function setRankByIssuer(\r\n        uint _credentialId,\r\n        CredentialRank _newRank\r\n    ) external onlyIssuerOf(_credentialId) onlyValidCredentialRank(_newRank) {\r\n        require(\r\n            _newRank != CredentialRank.Diamond,\r\n            \"Diamond rank cannot be directly set\"\r\n        );\r\n\r\n        CredentialRank oldRank = credentials[_credentialId].rank;\r\n        credentials[_credentialId].rank = _newRank;\r\n        emit RankChanged(_credentialId, oldRank, _newRank);\r\n    }\r\n\r\n    /**\r\n     * @dev This function returns all the credentials owned by a given address.\r\n     * @param _owner The address to query the credentials of.\r\n     * @return An array of credential IDs owned by the address.\r\n     */\r\n    function getCredentialsByOwner(\r\n        address _owner\r\n    ) external view returns (uint[] memory) {\r\n        uint[] memory result = new uint[](ownerCredentialCount[_owner]);\r\n        uint counter = 0;\r\n        for (uint i = 0; i < credentials.length; i++) {\r\n            if (credentialToOwner[i] == _owner) {\r\n                result[counter] = i;\r\n                counter++;\r\n            }\r\n        }\r\n        return result;\r\n    }\r\n\r\n    /**\r\n     * @dev This function returns all the credentials issued by a given address.\r\n     * @param _issuer The address to query the credentials of.\r\n     * @return An array of credential IDs issued by the address.\r\n     */\r\n    function getCredentialsByIssuer(\r\n        address _issuer\r\n    ) external view returns (uint[] memory) {\r\n        uint[] memory result = new uint[](issuerCredentialCount[_issuer]);\r\n        uint counter = 0;\r\n        for (uint i = 0; i < credentials.length; i++) {\r\n            if (credentialToIssuer[i] == _issuer) {\r\n                result[counter] = i;\r\n                counter++;\r\n            }\r\n        }\r\n        return result;\r\n    }\r\n\r\n    /**\r\n     * @dev This function returns all the credentials ranking types.\r\n     * @return An array of credential ranking types.\r\n     */\r\n    function getRankingTypes() external pure returns (CredentialRank[] memory) {\r\n        CredentialRank[] memory result = new CredentialRank[](5);\r\n        result[0] = CredentialRank.Bronze;\r\n        result[1] = CredentialRank.Silver;\r\n        result[2] = CredentialRank.Gold;\r\n        result[3] = CredentialRank.Platinum;\r\n        result[4] = CredentialRank.Diamond;\r\n        return result;\r\n    }\r\n}\r\n",
  "sourcePath": "D:\\1. Repositories\\Immutable-Academic-Credentials\\contracts\\CredentialHelper.sol",
  "compiler": {
    "name": "solc",
    "version": "0.5.1+commit.c8a2cb62.Emscripten.clang"
  },
  "schemaVersion": "3.4.16",
  "updatedAt": "2024-04-29T11:59:25.657Z",
  "devdoc": {
    "methods": {
      "changeRank(uint256)": {
        "details": "This function is can be called by the owner of the credential to change the rank of the credential or by the issuer of the credential.\r The rank can only be changed if the rank is not already Diamond.\r The function requires the caller to send the ranking fee in order to change the rank if the caller is the owner.\r The function allows the issuer to directly set the rank without paying the fee.\r The function increments the rank of the credential by one.\r",
        "params": {
          "_credentialId": "The ID of the credential to change the rank of.\r"
        }
      },
      "getCredentialsByIssuer(address)": {
        "details": "This function returns all the credentials issued by a given address.\r",
        "params": {
          "_issuer": "The address to query the credentials of.\r"
        },
        "return": "An array of credential IDs issued by the address.\r"
      },
      "getCredentialsByOwner(address)": {
        "details": "This function returns all the credentials owned by a given address.\r",
        "params": {
          "_owner": "The address to query the credentials of.\r"
        },
        "return": "An array of credential IDs owned by the address.\r"
      },
      "getRankingTypes()": {
        "details": "This function returns all the credentials ranking types.\r",
        "return": "An array of credential ranking types.\r"
      },
      "isOwner()": {
        "return": "true if `msg.sender` is the owner of the contract.\r"
      },
      "owner()": {
        "return": "the address of the owner.\r"
      },
      "renounceOwnership()": {
        "details": "Allows the current owner to relinquish control of the contract.\r"
      },
      "setRankByIssuer(uint256,uint8)": {
        "details": "This function allows the issuer of the credential to directly set the rank to the desired type without requiring a fee.\r",
        "params": {
          "_credentialId": "The ID of the credential to change the rank of.\r",
          "_newRank": "The desired rank to set for the credential.\r"
        }
      },
      "transferOwnership(address)": {
        "details": "Allows the current owner to transfer control of the contract to a newOwner.\r",
        "params": {
          "newOwner": "The address to transfer ownership to.\r"
        }
      }
    }
  },
  "userdoc": {
    "methods": {
      "renounceOwnership()": {
        "notice": "Renouncing to ownership will leave the contract without an owner.\r It will not be possible to call the functions with the `onlyOwner`\r modifier anymore.\r"
      }
    }
  }
}