{
  "contractName": "CredentialOwnership",
  "abi": [
    {
      "constant": false,
      "inputs": [
        {
          "name": "_name",
          "type": "string"
        },
        {
          "name": "_type",
          "type": "uint8"
        },
        {
          "name": "_dateOfIssue",
          "type": "uint256"
        },
        {
          "name": "_expirationDate",
          "type": "uint256"
        },
        {
          "name": "_description",
          "type": "string"
        },
        {
          "name": "_credentialUrl",
          "type": "string"
        }
      ],
      "name": "createCredential",
      "outputs": [],
      "payable": false,
      "stateMutability": "nonpayable",
      "type": "function"
    },
    {
      "constant": true,
      "inputs": [
        {
          "name": "",
          "type": "uint256"
        }
      ],
      "name": "credentialToOwner",
      "outputs": [
        {
          "name": "",
          "type": "address"
        }
      ],
      "payable": false,
      "stateMutability": "view",
      "type": "function"
    },
    {
      "constant": true,
      "inputs": [
        {
          "name": "_issuer",
          "type": "address"
        }
      ],
      "name": "getCredentialsByIssuer",
      "outputs": [
        {
          "name": "",
          "type": "uint256[]"
        }
      ],
      "payable": false,
      "stateMutability": "view",
      "type": "function"
    },
    {
      "constant": true,
      "inputs": [
        {
          "name": "",
          "type": "uint256"
        }
      ],
      "name": "credentialToIssuer",
      "outputs": [
        {
          "name": "",
          "type": "address"
        }
      ],
      "payable": false,
      "stateMutability": "view",
      "type": "function"
    },
    {
      "constant": false,
      "inputs": [
        {
          "name": "_credentialId",
          "type": "uint256"
        }
      ],
      "name": "changeRank",
      "outputs": [],
      "payable": true,
      "stateMutability": "payable",
      "type": "function"
    },
    {
      "constant": true,
      "inputs": [
        {
          "name": "",
          "type": "address"
        },
        {
          "name": "",
          "type": "uint16"
        }
      ],
      "name": "ownerCredentialRankCount",
      "outputs": [
        {
          "name": "",
          "type": "uint16"
        }
      ],
      "payable": false,
      "stateMutability": "view",
      "type": "function"
    },
    {
      "constant": false,
      "inputs": [
        {
          "name": "_credentialId",
          "type": "uint256"
        },
        {
          "name": "_newName",
          "type": "string"
        },
        {
          "name": "_newType",
          "type": "uint8"
        },
        {
          "name": "_newDateIssued",
          "type": "uint256"
        },
        {
          "name": "_newExpirationDate",
          "type": "uint256"
        },
        {
          "name": "_newDescription",
          "type": "string"
        },
        {
          "name": "_newCredentialUrl",
          "type": "string"
        }
      ],
      "name": "changeCredential",
      "outputs": [],
      "payable": false,
      "stateMutability": "nonpayable",
      "type": "function"
    },
    {
      "constant": false,
      "inputs": [],
      "name": "renounceOwnership",
      "outputs": [],
      "payable": false,
      "stateMutability": "nonpayable",
      "type": "function"
    },
    {
      "constant": true,
      "inputs": [],
      "name": "owner",
      "outputs": [
        {
          "name": "",
          "type": "address"
        }
      ],
      "payable": false,
      "stateMutability": "view",
      "type": "function"
    },
    {
      "constant": true,
      "inputs": [],
      "name": "isOwner",
      "outputs": [
        {
          "name": "",
          "type": "bool"
        }
      ],
      "payable": false,
      "stateMutability": "view",
      "type": "function"
    },
    {
      "constant": true,
      "inputs": [
        {
          "name": "",
          "type": "uint8"
        }
      ],
      "name": "rankingFees",
      "outputs": [
        {
          "name": "",
          "type": "uint256"
        }
      ],
      "payable": false,
      "stateMutability": "view",
      "type": "function"
    },
    {
      "constant": true,
      "inputs": [
        {
          "name": "_owner",
          "type": "address"
        }
      ],
      "name": "getCredentialsByOwner",
      "outputs": [
        {
          "name": "",
          "type": "uint256[]"
        }
      ],
      "payable": false,
      "stateMutability": "view",
      "type": "function"
    },
    {
      "constant": true,
      "inputs": [
        {
          "name": "",
          "type": "uint256"
        }
      ],
      "name": "credentials",
      "outputs": [
        {
          "name": "name",
          "type": "string"
        },
        {
          "name": "credentialType",
          "type": "uint8"
        },
        {
          "name": "dateIssued",
          "type": "uint256"
        },
        {
          "name": "expirationDate",
          "type": "uint256"
        },
        {
          "name": "description",
          "type": "string"
        },
        {
          "name": "credentialUrl",
          "type": "string"
        },
        {
          "name": "rank",
          "type": "uint8"
        }
      ],
      "payable": false,
      "stateMutability": "view",
      "type": "function"
    },
    {
      "constant": false,
      "inputs": [
        {
          "name": "newOwner",
          "type": "address"
        }
      ],
      "name": "transferOwnership",
      "outputs": [],
      "payable": false,
      "stateMutability": "nonpayable",
      "type": "function"
    },
    {
      "anonymous": false,
      "inputs": [
        {
          "indexed": true,
          "name": "_from",
          "type": "address"
        },
        {
          "indexed": true,
          "name": "_to",
          "type": "address"
        },
        {
          "indexed": true,
          "name": "_tokenId",
          "type": "uint256"
        }
      ],
      "name": "Transfer",
      "type": "event"
    },
    {
      "anonymous": false,
      "inputs": [
        {
          "indexed": true,
          "name": "_owner",
          "type": "address"
        },
        {
          "indexed": true,
          "name": "_approved",
          "type": "address"
        },
        {
          "indexed": true,
          "name": "_tokenId",
          "type": "uint256"
        }
      ],
      "name": "Approval",
      "type": "event"
    },
    {
      "anonymous": false,
      "inputs": [
        {
          "indexed": false,
          "name": "credentialId",
          "type": "uint256"
        },
        {
          "indexed": false,
          "name": "name",
          "type": "string"
        },
        {
          "indexed": false,
          "name": "credentialType",
          "type": "uint8"
        },
        {
          "indexed": false,
          "name": "issuer",
          "type": "address"
        }
      ],
      "name": "NewCredential",
      "type": "event"
    },
    {
      "anonymous": false,
      "inputs": [
        {
          "indexed": false,
          "name": "credentialId",
          "type": "uint256"
        },
        {
          "indexed": false,
          "name": "oldRank",
          "type": "uint8"
        },
        {
          "indexed": false,
          "name": "newRank",
          "type": "uint8"
        }
      ],
      "name": "RankChanged",
      "type": "event"
    },
    {
      "anonymous": false,
      "inputs": [
        {
          "indexed": false,
          "name": "credentialId",
          "type": "uint256"
        },
        {
          "indexed": false,
          "name": "name",
          "type": "string"
        },
        {
          "indexed": false,
          "name": "credentialType",
          "type": "uint8"
        },
        {
          "indexed": false,
          "name": "dateIssued",
          "type": "uint256"
        },
        {
          "indexed": false,
          "name": "expirationDate",
          "type": "uint256"
        },
        {
          "indexed": false,
          "name": "description",
          "type": "string"
        },
        {
          "indexed": false,
          "name": "credentialUrl",
          "type": "string"
        }
      ],
      "name": "CredentialChanged",
      "type": "event"
    },
    {
      "anonymous": false,
      "inputs": [
        {
          "indexed": true,
          "name": "previousOwner",
          "type": "address"
        },
        {
          "indexed": true,
          "name": "newOwner",
          "type": "address"
        }
      ],
      "name": "OwnershipTransferred",
      "type": "event"
    },
    {
      "constant": true,
      "inputs": [
        {
          "name": "_owner",
          "type": "address"
        }
      ],
      "name": "balanceOf",
      "outputs": [
        {
          "name": "",
          "type": "uint256"
        }
      ],
      "payable": false,
      "stateMutability": "view",
      "type": "function"
    },
    {
      "constant": true,
      "inputs": [
        {
          "name": "_tokenId",
          "type": "uint256"
        }
      ],
      "name": "ownerOf",
      "outputs": [
        {
          "name": "",
          "type": "address"
        }
      ],
      "payable": false,
      "stateMutability": "view",
      "type": "function"
    },
    {
      "constant": false,
      "inputs": [
        {
          "name": "_from",
          "type": "address"
        },
        {
          "name": "_to",
          "type": "address"
        },
        {
          "name": "_tokenId",
          "type": "uint256"
        }
      ],
      "name": "transferFrom",
      "outputs": [],
      "payable": true,
      "stateMutability": "payable",
      "type": "function"
    },
    {
      "constant": false,
      "inputs": [
        {
          "name": "_approved",
          "type": "address"
        },
        {
          "name": "_tokenId",
          "type": "uint256"
        }
      ],
      "name": "approve",
      "outputs": [],
      "payable": true,
      "stateMutability": "payable",
      "type": "function"
    }
  ],
  "bytecode": "0x6080604052336000806101000a81548173ffffffffffffffffffffffffffffffffffffffff021916908373ffffffffffffffffffffffffffffffffffffffff1602179055506000809054906101000a900473ffffffffffffffffffffffffffffffffffffffff1673ffffffffffffffffffffffffffffffffffffffff16600073ffffffffffffffffffffffffffffffffffffffff167f8be0079c531659141344cd1fd0a4f28419497f9722a3daafe3b4186f6b6457e060405160405180910390a366071afd498d0000600760008060048111156100d857fe5b60ff1660ff16815260200190815260200160002081905550660c6f3b40b6c000600760006001600481111561010957fe5b60ff1660ff1681526020019081526020016000208190555066121e6c485ac000600760006002600481111561013a57fe5b60ff1660ff16815260200190815260200160002081905550661b5b1bf4c54000600760006003600481111561016b57fe5b60ff1660ff16815260200190815260200160002081905550612d8b80620001936000396000f3fe6080604052600436106100f5576000357c0100000000000000000000000000000000000000000000000000000000900480623f9d2f146100fa578063095ea7b31461031157806323b872dd1461035f5780632f9830f5146103cd57806332860d6b14610448578063392de999146104ee57806340859016146105695780636352211e1461059757806368dd3c07146106125780636e03b07f1461068d57806370a08231146107e8578063715018a61461084d5780638da5cb5b146108645780638f32d59b146108bb578063c173c0ae146108ea578063c96015db1461093c578063e0574e3f146109e2578063f2fde38b14610ba6575b600080fd5b34801561010657600080fd5b5061030f600480360360c081101561011d57600080fd5b810190808035906020019064010000000081111561013a57600080fd5b82018360208201111561014c57600080fd5b8035906020019184600183028401116401000000008311171561016e57600080fd5b91908080601f016020809104026020016040519081016040528093929190818152602001838380828437600081840152601f19601f820116905080830192505050505050509192919290803560ff1690602001909291908035906020019092919080359060200190929190803590602001906401000000008111156101f257600080fd5b82018360208201111561020457600080fd5b8035906020019184600183028401116401000000008311171561022657600080fd5b91908080601f016020809104026020016040519081016040528093929190818152602001838380828437600081840152601f19601f8201169050808301925050505050505091929192908035906020019064010000000081111561028957600080fd5b82018360208201111561029b57600080fd5b803590602001918460018302840111640100000000831117156102bd57600080fd5b91908080601f016020809104026020016040519081016040528093929190818152602001838380828437600081840152601f19601f820116905080830192505050505050509192919290505050610bf7565b005b61035d6004803603604081101561032757600080fd5b81019080803573ffffffffffffffffffffffffffffffffffffffff16906020019092919080359060200190929190505050610c0d565b005b6103cb6004803603606081101561037557600080fd5b81019080803573ffffffffffffffffffffffffffffffffffffffff169060200190929190803573ffffffffffffffffffffffffffffffffffffffff16906020019092919080359060200190929190505050610d2d565b005b3480156103d957600080fd5b50610406600480360360208110156103f057600080fd5b8101908080359060200190929190505050610e13565b604051808273ffffffffffffffffffffffffffffffffffffffff1673ffffffffffffffffffffffffffffffffffffffff16815260200191505060405180910390f35b34801561045457600080fd5b506104976004803603602081101561046b57600080fd5b81019080803573ffffffffffffffffffffffffffffffffffffffff169060200190929190505050610e46565b6040518080602001828103825283818151815260200191508051906020019060200280838360005b838110156104da5780820151818401526020810190506104bf565b505050509050019250505060405180910390f35b3480156104fa57600080fd5b506105276004803603602081101561051157600080fd5b8101908080359060200190929190505050610f89565b604051808273ffffffffffffffffffffffffffffffffffffffff1673ffffffffffffffffffffffffffffffffffffffff16815260200191505060405180910390f35b6105956004803603602081101561057f57600080fd5b8101908080359060200190929190505050610fbc565b005b3480156105a357600080fd5b506105d0600480360360208110156105ba57600080fd5b81019080803590602001909291905050506115e5565b604051808273ffffffffffffffffffffffffffffffffffffffff1673ffffffffffffffffffffffffffffffffffffffff16815260200191505060405180910390f35b34801561061e57600080fd5b5061066f6004803603604081101561063557600080fd5b81019080803573ffffffffffffffffffffffffffffffffffffffff169060200190929190803561ffff169060200190929190505050611622565b604051808261ffff1661ffff16815260200191505060405180910390f35b34801561069957600080fd5b506107e6600480360360e08110156106b057600080fd5b8101908080359060200190929190803590602001906401000000008111156106d757600080fd5b8201836020820111156106e957600080fd5b8035906020019184600183028401116401000000008311171561070b57600080fd5b9091929391929390803560ff16906020019092919080359060200190929190803590602001909291908035906020019064010000000081111561074d57600080fd5b82018360208201111561075f57600080fd5b8035906020019184600183028401116401000000008311171561078157600080fd5b9091929391929390803590602001906401000000008111156107a257600080fd5b8201836020820111156107b457600080fd5b803590602001918460018302840111640100000000831117156107d657600080fd5b9091929391929390505050611652565b005b3480156107f457600080fd5b506108376004803603602081101561080b57600080fd5b81019080803573ffffffffffffffffffffffffffffffffffffffff1690602001909291905050506118ce565b6040518082815260200191505060405180910390f35b34801561085957600080fd5b50610862611929565b005b34801561087057600080fd5b506108796119fb565b604051808273ffffffffffffffffffffffffffffffffffffffff1673ffffffffffffffffffffffffffffffffffffffff16815260200191505060405180910390f35b3480156108c757600080fd5b506108d0611a24565b604051808215151515815260200191505060405180910390f35b3480156108f657600080fd5b506109266004803603602081101561090d57600080fd5b81019080803560ff169060200190929190505050611a7b565b6040518082815260200191505060405180910390f35b34801561094857600080fd5b5061098b6004803603602081101561095f57600080fd5b81019080803573ffffffffffffffffffffffffffffffffffffffff169060200190929190505050611a93565b6040518080602001828103825283818151815260200191508051906020019060200280838360005b838110156109ce5780820151818401526020810190506109b3565b505050509050019250505060405180910390f35b3480156109ee57600080fd5b50610a1b60048036036020811015610a0557600080fd5b8101908080359060200190929190505050611bd6565b6040518080602001886002811115610a2f57fe5b60ff1681526020018781526020018681526020018060200180602001856004811115610a5757fe5b60ff16815260200184810384528b818151815260200191508051906020019080838360005b83811015610a97578082015181840152602081019050610a7c565b50505050905090810190601f168015610ac45780820380516001836020036101000a031916815260200191505b50848103835287818151815260200191508051906020019080838360005b83811015610afd578082015181840152602081019050610ae2565b50505050905090810190601f168015610b2a5780820380516001836020036101000a031916815260200191505b50848103825286818151815260200191508051906020019080838360005b83811015610b63578082015181840152602081019050610b48565b50505050905090810190601f168015610b905780820380516001836020036101000a031916815260200191505b509a505050505050505050505060405180910390f35b348015610bb257600080fd5b50610bf560048036036020811015610bc957600080fd5b81019080803573ffffffffffffffffffffffffffffffffffffffff169060200190929190505050611e09565b005b610c05868686868686611e28565b505050505050565b806003600082815260200190815260200160002060009054906101000a900473ffffffffffffffffffffffffffffffffffffffff1673ffffffffffffffffffffffffffffffffffffffff163373ffffffffffffffffffffffffffffffffffffffff16141515610c7b57600080fd5b826008600084815260200190815260200160002060006101000a81548173ffffffffffffffffffffffffffffffffffffffff021916908373ffffffffffffffffffffffffffffffffffffffff160217905550818373ffffffffffffffffffffffffffffffffffffffff163373ffffffffffffffffffffffffffffffffffffffff167f8c5be1e5ebec7d5bd14f71427d1e84f3dd0314c0f7b2291e5b200ac8c7c3b92560405160405180910390a4505050565b3373ffffffffffffffffffffffffffffffffffffffff166003600083815260200190815260200160002060009054906101000a900473ffffffffffffffffffffffffffffffffffffffff1673ffffffffffffffffffffffffffffffffffffffff161480610df857503373ffffffffffffffffffffffffffffffffffffffff166008600083815260200190815260200160002060009054906101000a900473ffffffffffffffffffffffffffffffffffffffff1673ffffffffffffffffffffffffffffffffffffffff16145b1515610e0357600080fd5b610e0e8383836122d5565b505050565b60026020528060005260406000206000915054906101000a900473ffffffffffffffffffffffffffffffffffffffff1681565b606080600560008473ffffffffffffffffffffffffffffffffffffffff1673ffffffffffffffffffffffffffffffffffffffff16815260200190815260200160002060009054906101000a900461ffff1661ffff16604051908082528060200260200182016040528015610ec95781602001602082028038833980820191505090505b509050600080905060008090505b600180549050811015610f7e578473ffffffffffffffffffffffffffffffffffffffff166003600083815260200190815260200160002060009054906101000a900473ffffffffffffffffffffffffffffffffffffffff1673ffffffffffffffffffffffffffffffffffffffff161415610f7157808383815181101515610f5a57fe5b906020019060200201818152505081806001019250505b8080600101915050610ed7565b508192505050919050565b60036020528060005260406000206000915054906101000a900473ffffffffffffffffffffffffffffffffffffffff1681565b806003600082815260200190815260200160002060009054906101000a900473ffffffffffffffffffffffffffffffffffffffff1673ffffffffffffffffffffffffffffffffffffffff163373ffffffffffffffffffffffffffffffffffffffff16148061108857506002600082815260200190815260200160002060009054906101000a900473ffffffffffffffffffffffffffffffffffffffff1673ffffffffffffffffffffffffffffffffffffffff163373ffffffffffffffffffffffffffffffffffffffff16145b151561109357600080fd5b816004808111156110a057fe5b6001828154811015156110af57fe5b906000526020600020906007020160060160009054906101000a900460ff1660048111156110d957fe5b1415151561114f576040517f08c379a00000000000000000000000000000000000000000000000000000000081526004018080602001828103825260178152602001807f52616e6b20697320616c7265616479204469616d6f6e6400000000000000000081525060200191505060405180910390fd5b60006002600085815260200190815260200160002060009054906101000a900473ffffffffffffffffffffffffffffffffffffffff169050600060018581548110151561119857fe5b9060005260206000209060070201905060008160060160009054906101000a900460ff1660048111156111c757fe5b90506000600760008360ff1660ff1681526020019081526020016000205490508373ffffffffffffffffffffffffffffffffffffffff163373ffffffffffffffffffffffffffffffffffffffff161415611293578034141515611292576040517f08c379a00000000000000000000000000000000000000000000000000000000081526004018080602001828103825260168152602001807f46656520726571756972656420666f72206f776e65720000000000000000000081525060200191505060405180910390fd5b5b60006001888154811015156112a457fe5b906000526020600020906007020160060160009054906101000a900460ff1660048111156112ce57fe5b90506001810160ff1660048111156112e257fe5b6001898154811015156112f157fe5b906000526020600020906007020160060160006101000a81548160ff0219169083600481111561131d57fe5b0217905550600060018981548110151561133357fe5b906000526020600020906007020160060160009054906101000a900460ff16600481111561135d57fe5b90506113dd6001600660008973ffffffffffffffffffffffffffffffffffffffff1673ffffffffffffffffffffffffffffffffffffffff16815260200190815260200160002060008461ffff1661ffff16815260200190815260200160002060009054906101000a900461ffff1661ffff1661257390919063ffffffff16565b600660008873ffffffffffffffffffffffffffffffffffffffff1673ffffffffffffffffffffffffffffffffffffffff16815260200190815260200160002060008361ffff1661ffff16815260200190815260200160002060006101000a81548161ffff021916908361ffff1602179055506114cc6001600660008973ffffffffffffffffffffffffffffffffffffffff1673ffffffffffffffffffffffffffffffffffffffff16815260200190815260200160002060008560ff1661ffff16815260200190815260200160002060009054906101000a900461ffff1661ffff1661259990919063ffffffff16565b600660008873ffffffffffffffffffffffffffffffffffffffff1673ffffffffffffffffffffffffffffffffffffffff16815260200190815260200160002060008460ff1661ffff16815260200190815260200160002060006101000a81548161ffff021916908361ffff1602179055507eb858b01e1fe72d3245324108c0bb4a0c180a17f35133d3b699795c6b5c6405898360ff16600481111561156d57fe5b60018c81548110151561157c57fe5b906000526020600020906007020160060160009054906101000a900460ff16604051808481526020018360048111156115b157fe5b60ff1681526020018260048111156115c557fe5b60ff168152602001935050505060405180910390a1505050505050505050565b60006002600083815260200190815260200160002060009054906101000a900473ffffffffffffffffffffffffffffffffffffffff169050919050565b60066020528160005260406000206020528060005260406000206000915091509054906101000a900461ffff1681565b896003600082815260200190815260200160002060009054906101000a900473ffffffffffffffffffffffffffffffffffffffff1673ffffffffffffffffffffffffffffffffffffffff163373ffffffffffffffffffffffffffffffffffffffff161415156116c057600080fd5b61170e8b8b8b8080601f016020809104026020016040519081016040528093929190818152602001838380828437600081840152601f19601f820116905080830192505050505050506125ba565b6117188b89612662565b6117228b886127e7565b61172c8b8761287f565b61177a8b86868080601f016020809104026020016040519081016040528093929190818152602001838380828437600081840152601f19601f8201169050808301925050505050505061299c565b6117c88b84848080601f016020809104026020016040519081016040528093929190818152602001838380828437600081840152601f19601f82011690508083019250505050505050612a44565b7f31350a620a954dd1b89fe8a5534ca3f11839a50e23ec0cfd6c292438a3c2e6b38b8b8b8b8b8b8b8b8b8b604051808b81526020018060200189600281111561180d57fe5b60ff168152602001888152602001878152602001806020018060200184810384528d8d82818152602001925080828437600081840152601f19601f8201169050808301925050508481038352888882818152602001925080828437600081840152601f19601f8201169050808301925050508481038252868682818152602001925080828437600081840152601f19601f8201169050808301925050509d505050505050505050505050505060405180910390a15050505050505050505050565b6000600460008373ffffffffffffffffffffffffffffffffffffffff1673ffffffffffffffffffffffffffffffffffffffff16815260200190815260200160002060009054906101000a900461ffff1661ffff169050919050565b611931611a24565b151561193c57600080fd5b600073ffffffffffffffffffffffffffffffffffffffff166000809054906101000a900473ffffffffffffffffffffffffffffffffffffffff1673ffffffffffffffffffffffffffffffffffffffff167f8be0079c531659141344cd1fd0a4f28419497f9722a3daafe3b4186f6b6457e060405160405180910390a360008060006101000a81548173ffffffffffffffffffffffffffffffffffffffff021916908373ffffffffffffffffffffffffffffffffffffffff160217905550565b60008060009054906101000a900473ffffffffffffffffffffffffffffffffffffffff16905090565b60008060009054906101000a900473ffffffffffffffffffffffffffffffffffffffff1673ffffffffffffffffffffffffffffffffffffffff163373ffffffffffffffffffffffffffffffffffffffff1614905090565b60076020528060005260406000206000915090505481565b606080600460008473ffffffffffffffffffffffffffffffffffffffff1673ffffffffffffffffffffffffffffffffffffffff16815260200190815260200160002060009054906101000a900461ffff1661ffff16604051908082528060200260200182016040528015611b165781602001602082028038833980820191505090505b509050600080905060008090505b600180549050811015611bcb578473ffffffffffffffffffffffffffffffffffffffff166002600083815260200190815260200160002060009054906101000a900473ffffffffffffffffffffffffffffffffffffffff1673ffffffffffffffffffffffffffffffffffffffff161415611bbe57808383815181101515611ba757fe5b906020019060200201818152505081806001019250505b8080600101915050611b24565b508192505050919050565b600181815481101515611be557fe5b9060005260206000209060070201600091509050806000018054600181600116156101000203166002900480601f016020809104026020016040519081016040528092919081815260200182805460018160011615610100020316600290048015611c915780601f10611c6657610100808354040283529160200191611c91565b820191906000526020600020905b815481529060010190602001808311611c7457829003601f168201915b5050505050908060010160009054906101000a900460ff1690806002015490806003015490806004018054600181600116156101000203166002900480601f016020809104026020016040519081016040528092919081815260200182805460018160011615610100020316600290048015611d4e5780601f10611d2357610100808354040283529160200191611d4e565b820191906000526020600020905b815481529060010190602001808311611d3157829003601f168201915b505050505090806005018054600181600116156101000203166002900480601f016020809104026020016040519081016040528092919081815260200182805460018160011615610100020316600290048015611dec5780601f10611dc157610100808354040283529160200191611dec565b820191906000526020600020905b815481529060010190602001808311611dcf57829003601f168201915b5050505050908060060160009054906101000a900460ff16905087565b611e11611a24565b1515611e1c57600080fd5b611e2581612aec565b50565b8460006002811115611e3657fe5b816002811115611e4257fe5b1480611e64575060016002811115611e5657fe5b816002811115611e6257fe5b145b80611e845750600280811115611e7657fe5b816002811115611e8257fe5b145b1515611ef8576040517f08c379a00000000000000000000000000000000000000000000000000000000081526004018080602001828103825260178152602001807f496e76616c69642063726564656e7469616c207479706500000000000000000081525060200191505060405180910390fd5b834281101580611f085750600081145b1515611f7c576040517f08c379a00000000000000000000000000000000000000000000000000000000081526004018080602001828103825260168152602001807f43726564656e7469616c2068617320657870697265640000000000000000000081525060200191505060405180910390fd5b611f84612be6565b60e0604051908101604052808a8152602001896002811115611fa257fe5b815260200188815260200187815260200186815260200185815260200160006004811115611fcc57fe5b815250905060018190806001815401808255809150509060018203906000526020600020906007020160009091929091909150600082015181600001908051906020019061201b929190612c3a565b5060208201518160010160006101000a81548160ff0219169083600281111561204057fe5b021790555060408201518160020155606082015181600301556080820151816004019080519060200190612075929190612c3a565b5060a0820151816005019080519060200190612092929190612c3a565b5060c08201518160060160006101000a81548160ff021916908360048111156120b757fe5b0217905550505050600060018080549050039050336003600083815260200190815260200160002060006101000a81548173ffffffffffffffffffffffffffffffffffffffff021916908373ffffffffffffffffffffffffffffffffffffffff1602179055506121826001600560003373ffffffffffffffffffffffffffffffffffffffff1673ffffffffffffffffffffffffffffffffffffffff16815260200190815260200160002060009054906101000a900461ffff1661ffff1661257390919063ffffffff16565b600560003373ffffffffffffffffffffffffffffffffffffffff1673ffffffffffffffffffffffffffffffffffffffff16815260200190815260200160002060006101000a81548161ffff021916908361ffff1602179055507fbe135cbc475f7cdc37a822551dbd23653680d65440798fb5bd944dfff1bbd173818b8b33604051808581526020018060200184600281111561221a57fe5b60ff1681526020018373ffffffffffffffffffffffffffffffffffffffff1673ffffffffffffffffffffffffffffffffffffffff168152602001828103825285818151815260200191508051906020019080838360005b8381101561228c578082015181840152602081019050612271565b50505050905090810190601f1680156122b95780820380516001836020036101000a031916815260200191505b509550505050505060405180910390a150505050505050505050565b61233a6001600460008573ffffffffffffffffffffffffffffffffffffffff1673ffffffffffffffffffffffffffffffffffffffff16815260200190815260200160002060009054906101000a900461ffff1661ffff1661257390919063ffffffff16565b600460008473ffffffffffffffffffffffffffffffffffffffff1673ffffffffffffffffffffffffffffffffffffffff16815260200190815260200160002060006101000a81548161ffff021916908361ffff16021790555060006001828154811015156123a457fe5b906000526020600020906007020160060160009054906101000a900460ff1660048111156123ce57fe5b905061244e6001600660008673ffffffffffffffffffffffffffffffffffffffff1673ffffffffffffffffffffffffffffffffffffffff16815260200190815260200160002060008461ffff1661ffff16815260200190815260200160002060009054906101000a900461ffff1661ffff1661257390919063ffffffff16565b600660008573ffffffffffffffffffffffffffffffffffffffff1673ffffffffffffffffffffffffffffffffffffffff16815260200190815260200160002060008361ffff1661ffff16815260200190815260200160002060006101000a81548161ffff021916908361ffff160217905550826002600084815260200190815260200160002060006101000a81548173ffffffffffffffffffffffffffffffffffffffff021916908373ffffffffffffffffffffffffffffffffffffffff160217905550818373ffffffffffffffffffffffffffffffffffffffff168573ffffffffffffffffffffffffffffffffffffffff167fddf252ad1be2c89b69c2b068fc378daa952ba7f163c4a11628f55a4df523b3ef60405160405180910390a450505050565b60008082840190508361ffff168161ffff161015151561258f57fe5b8091505092915050565b60008261ffff168261ffff16111515156125af57fe5b818303905092915050565b816003600082815260200190815260200160002060009054906101000a900473ffffffffffffffffffffffffffffffffffffffff1673ffffffffffffffffffffffffffffffffffffffff163373ffffffffffffffffffffffffffffffffffffffff1614151561262857600080fd5b8160018481548110151561263857fe5b9060005260206000209060070201600001908051906020019061265c929190612cba565b50505050565b816003600082815260200190815260200160002060009054906101000a900473ffffffffffffffffffffffffffffffffffffffff1673ffffffffffffffffffffffffffffffffffffffff163373ffffffffffffffffffffffffffffffffffffffff161415156126d057600080fd5b81600060028111156126de57fe5b8160028111156126ea57fe5b148061270c5750600160028111156126fe57fe5b81600281111561270a57fe5b145b8061272c575060028081111561271e57fe5b81600281111561272a57fe5b145b15156127a0576040517f08c379a00000000000000000000000000000000000000000000000000000000081526004018080602001828103825260178152602001807f496e76616c69642063726564656e7469616c207479706500000000000000000081525060200191505060405180910390fd5b826001858154811015156127b057fe5b906000526020600020906007020160010160006101000a81548160ff021916908360028111156127dc57fe5b021790555050505050565b816003600082815260200190815260200160002060009054906101000a900473ffffffffffffffffffffffffffffffffffffffff1673ffffffffffffffffffffffffffffffffffffffff163373ffffffffffffffffffffffffffffffffffffffff1614151561285557600080fd5b8160018481548110151561286557fe5b906000526020600020906007020160020181905550505050565b816003600082815260200190815260200160002060009054906101000a900473ffffffffffffffffffffffffffffffffffffffff1673ffffffffffffffffffffffffffffffffffffffff163373ffffffffffffffffffffffffffffffffffffffff161415156128ed57600080fd5b8142811015806128fd5750600081145b1515612971576040517f08c379a00000000000000000000000000000000000000000000000000000000081526004018080602001828103825260168152602001807f43726564656e7469616c2068617320657870697265640000000000000000000081525060200191505060405180910390fd5b8260018581548110151561298157fe5b90600052602060002090600702016003018190555050505050565b816003600082815260200190815260200160002060009054906101000a900473ffffffffffffffffffffffffffffffffffffffff1673ffffffffffffffffffffffffffffffffffffffff163373ffffffffffffffffffffffffffffffffffffffff16141515612a0a57600080fd5b81600184815481101515612a1a57fe5b90600052602060002090600702016004019080519060200190612a3e929190612cba565b50505050565b816003600082815260200190815260200160002060009054906101000a900473ffffffffffffffffffffffffffffffffffffffff1673ffffffffffffffffffffffffffffffffffffffff163373ffffffffffffffffffffffffffffffffffffffff16141515612ab257600080fd5b81600184815481101515612ac257fe5b90600052602060002090600702016005019080519060200190612ae6929190612cba565b50505050565b600073ffffffffffffffffffffffffffffffffffffffff168173ffffffffffffffffffffffffffffffffffffffff1614151515612b2857600080fd5b8073ffffffffffffffffffffffffffffffffffffffff166000809054906101000a900473ffffffffffffffffffffffffffffffffffffffff1673ffffffffffffffffffffffffffffffffffffffff167f8be0079c531659141344cd1fd0a4f28419497f9722a3daafe3b4186f6b6457e060405160405180910390a3806000806101000a81548173ffffffffffffffffffffffffffffffffffffffff021916908373ffffffffffffffffffffffffffffffffffffffff16021790555050565b60e0604051908101604052806060815260200160006002811115612c0657fe5b81526020016000815260200160008152602001606081526020016060815260200160006004811115612c3457fe5b81525090565b828054600181600116156101000203166002900490600052602060002090601f016020900481019282601f10612c7b57805160ff1916838001178555612ca9565b82800160010185558215612ca9579182015b82811115612ca8578251825591602001919060010190612c8d565b5b509050612cb69190612d3a565b5090565b828054600181600116156101000203166002900490600052602060002090601f016020900481019282601f10612cfb57805160ff1916838001178555612d29565b82800160010185558215612d29579182015b82811115612d28578251825591602001919060010190612d0d565b5b509050612d369190612d3a565b5090565b612d5c91905b80821115612d58576000816000905550600101612d40565b5090565b9056fea165627a7a723058202466dfd73c25618d8dc911b4436a9d55ba8686f4b307ddfa5c0b9de06e9223eb0029",
  "source": "// SPDX-License-Identifier: MIT\r\npragma solidity >=0.4.22 <0.9.0;\r\n\r\nimport \"./CredentialHelper.sol\";\r\nimport \"./ERC721.sol\";\r\n\r\ncontract CredentialOwnership is CredentialHelper, ERC721 {\r\n    mapping(uint => address) credentialApprovals;\r\n\r\n    /**\r\n     * @dev Returns the number of credentials owned by a specific address.\r\n     * @param _owner The owner address to check\r\n     * @return uint256 representing the number of credentials owned by the passed address\r\n     */\r\n    function balanceOf(address _owner) external view returns (uint256) {\r\n        return ownerCredentialCount[_owner];\r\n    }\r\n\r\n    /**\r\n     * @dev Returns the owner of the credential with the given ID.\r\n     * @param _tokenId The ID of the credential to query the owner of\r\n     * @return the owner of the credential\r\n     */\r\n    function ownerOf(uint256 _tokenId) external view returns (address) {\r\n        return credentialToOwner[_tokenId];\r\n    }\r\n\r\n    /**\r\n     * @dev Transfers the ownership of a given credential ID to another address.\r\n     * Only the issuer of the credential or an approved address can transfer\r\n     * a credential.\r\n     * @param _from The current owner of the credential (aka issuer)\r\n     * @param _to The new owner (aka employee)\r\n     * @param _tokenId The credential ID to transfer\r\n     */\r\n    function _transfer(address _from, address _to, uint256 _tokenId) private {\r\n        ownerCredentialCount[_to] = ownerCredentialCount[_to].add(1);\r\n        uint16 credentialRank = uint16(credentials[_tokenId].rank);\r\n        ownerCredentialRankCount[_to][\r\n            credentialRank\r\n        ] = ownerCredentialRankCount[_to][credentialRank].add(1);\r\n        credentialToOwner[_tokenId] = _to;\r\n        emit Transfer(_from, _to, _tokenId);\r\n    }\r\n\r\n    /**\r\n     * @dev Transfers the ownership of a given credential ID to another address.\r\n     *  Only the issuer of the credential or an approved address can transfer\r\n     *  a credential.\r\n     * @param _from The current owner of the credential (aka issuer)\r\n     * @param _to The new owner (aka employee)\r\n     * @param _tokenId The credential ID to transfer\r\n     */\r\n    function transferFrom(\r\n        address _from,\r\n        address _to,\r\n        uint256 _tokenId\r\n    ) external payable {\r\n        require(\r\n            credentialToIssuer[_tokenId] == msg.sender ||\r\n                credentialApprovals[_tokenId] == msg.sender\r\n        );\r\n        _transfer(_from, _to, _tokenId);\r\n    }\r\n\r\n    /**\r\n     * @dev Approves another address to transfer the given credential ID\r\n     * The zero address indicates there is no approved address.\r\n     * There can only be one approved address per credential at a time.\r\n     * Can only be called by the issuer of the credential.\r\n     * @param _approved The new approved person that can transfer the credential to himself\r\n     * @param _tokenId The credential that is being approved\r\n     */\r\n    function approve(\r\n        address _approved,\r\n        uint256 _tokenId\r\n    ) external payable onlyIssuerOf(_tokenId) {\r\n        credentialApprovals[_tokenId] = _approved;\r\n        emit Approval(msg.sender, _approved, _tokenId);\r\n    }\r\n}\r\n",
  "sourcePath": "C:\\GIT\\Immutable-Academic-Credentials\\contracts\\CredentialOwnership.sol",
  "compiler": {
    "name": "solc",
    "version": "0.5.1+commit.c8a2cb62.Emscripten.clang"
  },
  "schemaVersion": "3.4.16",
  "updatedAt": "2024-05-01T22:06:29.316Z",
  "devdoc": {
    "methods": {
      "approve(address,uint256)": {
        "details": "Approves another address to transfer the given credential ID\r The zero address indicates there is no approved address.\r There can only be one approved address per credential at a time.\r Can only be called by the issuer of the credential.\r",
        "params": {
          "_approved": "The new approved person that can transfer the credential to himself\r",
          "_tokenId": "The credential that is being approved\r"
        }
      },
      "balanceOf(address)": {
        "details": "Returns the number of credentials owned by a specific address.\r",
        "params": {
          "_owner": "The owner address to check\r"
        },
        "return": "uint256 representing the number of credentials owned by the passed address\r"
      },
      "changeRank(uint256)": {
        "details": "This function is can be called by the owner of the credential to change the rank of the credential or by the issuer of the credential.\r The rank can only be changed if the rank is not already Diamond.\r The function requires the caller to send the ranking fee in order to change the rank if the caller is the owner.\r The function allows the issuer to directly set the rank without paying the fee.\r The function increments the rank of the credential by one.\r",
        "params": {
          "_credentialId": "The ID of the credential to change the rank of.\r"
        }
      },
      "getCredentialsByIssuer(address)": {
        "details": "This function returns all the credentials issued by a given address.\r",
        "params": {
          "_issuer": "The address to query the credentials of.\r"
        },
        "return": "An array of credential IDs issued by the address.\r"
      },
      "getCredentialsByOwner(address)": {
        "details": "This function returns all the credentials owned by a given address.\r",
        "params": {
          "_owner": "The address to query the credentials of.\r"
        },
        "return": "An array of credential IDs owned by the address.\r"
      },
      "isOwner()": {
        "return": "true if `msg.sender` is the owner of the contract.\r"
      },
      "owner()": {
        "return": "the address of the owner.\r"
      },
      "ownerOf(uint256)": {
        "details": "Returns the owner of the credential with the given ID.\r",
        "params": {
          "_tokenId": "The ID of the credential to query the owner of\r"
        },
        "return": "the owner of the credential\r"
      },
      "renounceOwnership()": {
        "details": "Allows the current owner to relinquish control of the contract.\r"
      },
      "transferFrom(address,address,uint256)": {
        "details": "Transfers the ownership of a given credential ID to another address.\r Only the issuer of the credential or an approved address can transfer\r a credential.\r",
        "params": {
          "_from": "The current owner of the credential (aka issuer)\r",
          "_to": "The new owner (aka employee)\r",
          "_tokenId": "The credential ID to transfer\r"
        }
      },
      "transferOwnership(address)": {
        "details": "Allows the current owner to transfer control of the contract to a newOwner.\r",
        "params": {
          "newOwner": "The address to transfer ownership to.\r"
        }
      }
    }
  },
  "userdoc": {
    "methods": {
      "renounceOwnership()": {
        "notice": "Renouncing to ownership will leave the contract without an owner.\r It will not be possible to call the functions with the `onlyOwner`\r modifier anymore.\r"
      }
    }
  }
}