{
  "contractName": "CredentialHelper",
  "abi": [
    {
      "constant": false,
      "inputs": [
        {
          "name": "_name",
          "type": "string"
        },
        {
          "name": "_type",
          "type": "uint8"
        },
        {
          "name": "_dateOfIssue",
          "type": "uint256"
        },
        {
          "name": "_expirationDate",
          "type": "uint256"
        },
        {
          "name": "_description",
          "type": "string"
        },
        {
          "name": "_credentialUrl",
          "type": "string"
        }
      ],
      "name": "createCredential",
      "outputs": [],
      "payable": false,
      "stateMutability": "nonpayable",
      "type": "function"
    },
    {
      "constant": true,
      "inputs": [
        {
          "name": "",
          "type": "uint256"
        }
      ],
      "name": "credentialToOwner",
      "outputs": [
        {
          "name": "",
          "type": "address"
        }
      ],
      "payable": false,
      "stateMutability": "view",
      "type": "function"
    },
    {
      "constant": true,
      "inputs": [
        {
          "name": "",
          "type": "uint256"
        }
      ],
      "name": "credentialToIssuer",
      "outputs": [
        {
          "name": "",
          "type": "address"
        }
      ],
      "payable": false,
      "stateMutability": "view",
      "type": "function"
    },
    {
      "constant": true,
      "inputs": [
        {
          "name": "",
          "type": "address"
        },
        {
          "name": "",
          "type": "uint16"
        }
      ],
      "name": "ownerCredentialRankCount",
      "outputs": [
        {
          "name": "",
          "type": "uint16"
        }
      ],
      "payable": false,
      "stateMutability": "view",
      "type": "function"
    },
    {
      "constant": false,
      "inputs": [],
      "name": "renounceOwnership",
      "outputs": [],
      "payable": false,
      "stateMutability": "nonpayable",
      "type": "function"
    },
    {
      "constant": true,
      "inputs": [],
      "name": "owner",
      "outputs": [
        {
          "name": "",
          "type": "address"
        }
      ],
      "payable": false,
      "stateMutability": "view",
      "type": "function"
    },
    {
      "constant": true,
      "inputs": [],
      "name": "isOwner",
      "outputs": [
        {
          "name": "",
          "type": "bool"
        }
      ],
      "payable": false,
      "stateMutability": "view",
      "type": "function"
    },
    {
      "constant": true,
      "inputs": [
        {
          "name": "",
          "type": "uint8"
        }
      ],
      "name": "rankingFees",
      "outputs": [
        {
          "name": "",
          "type": "uint256"
        }
      ],
      "payable": false,
      "stateMutability": "view",
      "type": "function"
    },
    {
      "constant": true,
      "inputs": [
        {
          "name": "",
          "type": "uint256"
        }
      ],
      "name": "credentials",
      "outputs": [
        {
          "name": "name",
          "type": "string"
        },
        {
          "name": "credentialType",
          "type": "uint8"
        },
        {
          "name": "dateIssued",
          "type": "uint256"
        },
        {
          "name": "expirationDate",
          "type": "uint256"
        },
        {
          "name": "description",
          "type": "string"
        },
        {
          "name": "credentialUrl",
          "type": "string"
        },
        {
          "name": "rank",
          "type": "uint8"
        }
      ],
      "payable": false,
      "stateMutability": "view",
      "type": "function"
    },
    {
      "constant": false,
      "inputs": [
        {
          "name": "newOwner",
          "type": "address"
        }
      ],
      "name": "transferOwnership",
      "outputs": [],
      "payable": false,
      "stateMutability": "nonpayable",
      "type": "function"
    },
    {
      "inputs": [],
      "payable": false,
      "stateMutability": "nonpayable",
      "type": "constructor"
    },
    {
      "anonymous": false,
      "inputs": [
        {
          "indexed": false,
          "name": "credentialId",
          "type": "uint256"
        },
        {
          "indexed": false,
          "name": "name",
          "type": "string"
        },
        {
          "indexed": false,
          "name": "credentialType",
          "type": "uint8"
        },
        {
          "indexed": false,
          "name": "issuer",
          "type": "address"
        }
      ],
      "name": "NewCredential",
      "type": "event"
    },
    {
      "anonymous": false,
      "inputs": [
        {
          "indexed": false,
          "name": "credentialId",
          "type": "uint256"
        },
        {
          "indexed": false,
          "name": "oldRank",
          "type": "uint8"
        },
        {
          "indexed": false,
          "name": "newRank",
          "type": "uint8"
        }
      ],
      "name": "RankChanged",
      "type": "event"
    },
    {
      "anonymous": false,
      "inputs": [
        {
          "indexed": false,
          "name": "credentialId",
          "type": "uint256"
        },
        {
          "indexed": false,
          "name": "name",
          "type": "string"
        },
        {
          "indexed": false,
          "name": "credentialType",
          "type": "uint8"
        },
        {
          "indexed": false,
          "name": "dateIssued",
          "type": "uint256"
        },
        {
          "indexed": false,
          "name": "expirationDate",
          "type": "uint256"
        },
        {
          "indexed": false,
          "name": "description",
          "type": "string"
        },
        {
          "indexed": false,
          "name": "credentialUrl",
          "type": "string"
        }
      ],
      "name": "CredentialChanged",
      "type": "event"
    },
    {
      "anonymous": false,
      "inputs": [
        {
          "indexed": true,
          "name": "previousOwner",
          "type": "address"
        },
        {
          "indexed": true,
          "name": "newOwner",
          "type": "address"
        }
      ],
      "name": "OwnershipTransferred",
      "type": "event"
    },
    {
      "constant": false,
      "inputs": [
        {
          "name": "_credentialId",
          "type": "uint256"
        },
        {
          "name": "_newName",
          "type": "string"
        },
        {
          "name": "_newType",
          "type": "uint8"
        },
        {
          "name": "_newDateIssued",
          "type": "uint256"
        },
        {
          "name": "_newExpirationDate",
          "type": "uint256"
        },
        {
          "name": "_newDescription",
          "type": "string"
        },
        {
          "name": "_newCredentialUrl",
          "type": "string"
        }
      ],
      "name": "changeCredential",
      "outputs": [],
      "payable": false,
      "stateMutability": "nonpayable",
      "type": "function"
    },
    {
      "constant": false,
      "inputs": [
        {
          "name": "_credentialId",
          "type": "uint256"
        }
      ],
      "name": "changeRank",
      "outputs": [],
      "payable": true,
      "stateMutability": "payable",
      "type": "function"
    },
    {
      "constant": true,
      "inputs": [
        {
          "name": "_owner",
          "type": "address"
        }
      ],
      "name": "getCredentialsByOwner",
      "outputs": [
        {
          "name": "",
          "type": "uint256[]"
        }
      ],
      "payable": false,
      "stateMutability": "view",
      "type": "function"
    },
    {
      "constant": true,
      "inputs": [
        {
          "name": "_issuer",
          "type": "address"
        }
      ],
      "name": "getCredentialsByIssuer",
      "outputs": [
        {
          "name": "",
          "type": "uint256[]"
        }
      ],
      "payable": false,
      "stateMutability": "view",
      "type": "function"
    }
  ],
  "bytecode": "0x608060405234801561001057600080fd5b50336000806101000a81548173ffffffffffffffffffffffffffffffffffffffff021916908373ffffffffffffffffffffffffffffffffffffffff1602179055506000809054906101000a900473ffffffffffffffffffffffffffffffffffffffff1673ffffffffffffffffffffffffffffffffffffffff16600073ffffffffffffffffffffffffffffffffffffffff167f8be0079c531659141344cd1fd0a4f28419497f9722a3daafe3b4186f6b6457e060405160405180910390a366071afd498d0000600760008060048111156100e557fe5b60ff1660ff16815260200190815260200160002081905550660c6f3b40b6c000600760006001600481111561011657fe5b60ff1660ff1681526020019081526020016000208190555066121e6c485ac000600760006002600481111561014757fe5b60ff1660ff16815260200190815260200160002081905550661b5b1bf4c54000600760006003600481111561017857fe5b60ff1660ff1681526020019081526020016000208190555061268780620001a06000396000f3fe6080604052600436106100c9576000357c0100000000000000000000000000000000000000000000000000000000900480623f9d2f146100ce5780632f9830f5146102e557806332860d6b14610360578063392de99914610406578063408590161461048157806368dd3c07146104af5780636e03b07f1461052a578063715018a6146106855780638da5cb5b1461069c5780638f32d59b146106f3578063c173c0ae14610722578063c96015db14610774578063e0574e3f1461081a578063f2fde38b146109de575b600080fd5b3480156100da57600080fd5b506102e3600480360360c08110156100f157600080fd5b810190808035906020019064010000000081111561010e57600080fd5b82018360208201111561012057600080fd5b8035906020019184600183028401116401000000008311171561014257600080fd5b91908080601f016020809104026020016040519081016040528093929190818152602001838380828437600081840152601f19601f820116905080830192505050505050509192919290803560ff1690602001909291908035906020019092919080359060200190929190803590602001906401000000008111156101c657600080fd5b8201836020820111156101d857600080fd5b803590602001918460018302840111640100000000831117156101fa57600080fd5b91908080601f016020809104026020016040519081016040528093929190818152602001838380828437600081840152601f19601f8201169050808301925050505050505091929192908035906020019064010000000081111561025d57600080fd5b82018360208201111561026f57600080fd5b8035906020019184600183028401116401000000008311171561029157600080fd5b91908080601f016020809104026020016040519081016040528093929190818152602001838380828437600081840152601f19601f820116905080830192505050505050509192919290505050610a2f565b005b3480156102f157600080fd5b5061031e6004803603602081101561030857600080fd5b8101908080359060200190929190505050610a45565b604051808273ffffffffffffffffffffffffffffffffffffffff1673ffffffffffffffffffffffffffffffffffffffff16815260200191505060405180910390f35b34801561036c57600080fd5b506103af6004803603602081101561038357600080fd5b81019080803573ffffffffffffffffffffffffffffffffffffffff169060200190929190505050610a78565b6040518080602001828103825283818151815260200191508051906020019060200280838360005b838110156103f25780820151818401526020810190506103d7565b505050509050019250505060405180910390f35b34801561041257600080fd5b5061043f6004803603602081101561042957600080fd5b8101908080359060200190929190505050610bbb565b604051808273ffffffffffffffffffffffffffffffffffffffff1673ffffffffffffffffffffffffffffffffffffffff16815260200191505060405180910390f35b6104ad6004803603602081101561049757600080fd5b8101908080359060200190929190505050610bee565b005b3480156104bb57600080fd5b5061050c600480360360408110156104d257600080fd5b81019080803573ffffffffffffffffffffffffffffffffffffffff169060200190929190803561ffff169060200190929190505050611217565b604051808261ffff1661ffff16815260200191505060405180910390f35b34801561053657600080fd5b50610683600480360360e081101561054d57600080fd5b81019080803590602001909291908035906020019064010000000081111561057457600080fd5b82018360208201111561058657600080fd5b803590602001918460018302840111640100000000831117156105a857600080fd5b9091929391929390803560ff1690602001909291908035906020019092919080359060200190929190803590602001906401000000008111156105ea57600080fd5b8201836020820111156105fc57600080fd5b8035906020019184600183028401116401000000008311171561061e57600080fd5b90919293919293908035906020019064010000000081111561063f57600080fd5b82018360208201111561065157600080fd5b8035906020019184600183028401116401000000008311171561067357600080fd5b9091929391929390505050611247565b005b34801561069157600080fd5b5061069a6114c3565b005b3480156106a857600080fd5b506106b1611595565b604051808273ffffffffffffffffffffffffffffffffffffffff1673ffffffffffffffffffffffffffffffffffffffff16815260200191505060405180910390f35b3480156106ff57600080fd5b506107086115be565b604051808215151515815260200191505060405180910390f35b34801561072e57600080fd5b5061075e6004803603602081101561074557600080fd5b81019080803560ff169060200190929190505050611615565b6040518082815260200191505060405180910390f35b34801561078057600080fd5b506107c36004803603602081101561079757600080fd5b81019080803573ffffffffffffffffffffffffffffffffffffffff16906020019092919050505061162d565b6040518080602001828103825283818151815260200191508051906020019060200280838360005b838110156108065780820151818401526020810190506107eb565b505050509050019250505060405180910390f35b34801561082657600080fd5b506108536004803603602081101561083d57600080fd5b8101908080359060200190929190505050611770565b604051808060200188600281111561086757fe5b60ff168152602001878152602001868152602001806020018060200185600481111561088f57fe5b60ff16815260200184810384528b818151815260200191508051906020019080838360005b838110156108cf5780820151818401526020810190506108b4565b50505050905090810190601f1680156108fc5780820380516001836020036101000a031916815260200191505b50848103835287818151815260200191508051906020019080838360005b8381101561093557808201518184015260208101905061091a565b50505050905090810190601f1680156109625780820380516001836020036101000a031916815260200191505b50848103825286818151815260200191508051906020019080838360005b8381101561099b578082015181840152602081019050610980565b50505050905090810190601f1680156109c85780820380516001836020036101000a031916815260200191505b509a505050505050505050505060405180910390f35b3480156109ea57600080fd5b50610a2d60048036036020811015610a0157600080fd5b81019080803573ffffffffffffffffffffffffffffffffffffffff1690602001909291905050506119a3565b005b610a3d8686868686866119c2565b505050505050565b60026020528060005260406000206000915054906101000a900473ffffffffffffffffffffffffffffffffffffffff1681565b606080600560008473ffffffffffffffffffffffffffffffffffffffff1673ffffffffffffffffffffffffffffffffffffffff16815260200190815260200160002060009054906101000a900461ffff1661ffff16604051908082528060200260200182016040528015610afb5781602001602082028038833980820191505090505b509050600080905060008090505b600180549050811015610bb0578473ffffffffffffffffffffffffffffffffffffffff166003600083815260200190815260200160002060009054906101000a900473ffffffffffffffffffffffffffffffffffffffff1673ffffffffffffffffffffffffffffffffffffffff161415610ba357808383815181101515610b8c57fe5b906020019060200201818152505081806001019250505b8080600101915050610b09565b508192505050919050565b60036020528060005260406000206000915054906101000a900473ffffffffffffffffffffffffffffffffffffffff1681565b806003600082815260200190815260200160002060009054906101000a900473ffffffffffffffffffffffffffffffffffffffff1673ffffffffffffffffffffffffffffffffffffffff163373ffffffffffffffffffffffffffffffffffffffff161480610cba57506002600082815260200190815260200160002060009054906101000a900473ffffffffffffffffffffffffffffffffffffffff1673ffffffffffffffffffffffffffffffffffffffff163373ffffffffffffffffffffffffffffffffffffffff16145b1515610cc557600080fd5b81600480811115610cd257fe5b600182815481101515610ce157fe5b906000526020600020906007020160060160009054906101000a900460ff166004811115610d0b57fe5b14151515610d81576040517f08c379a00000000000000000000000000000000000000000000000000000000081526004018080602001828103825260178152602001807f52616e6b20697320616c7265616479204469616d6f6e6400000000000000000081525060200191505060405180910390fd5b60006002600085815260200190815260200160002060009054906101000a900473ffffffffffffffffffffffffffffffffffffffff1690506000600185815481101515610dca57fe5b9060005260206000209060070201905060008160060160009054906101000a900460ff166004811115610df957fe5b90506000600760008360ff1660ff1681526020019081526020016000205490508373ffffffffffffffffffffffffffffffffffffffff163373ffffffffffffffffffffffffffffffffffffffff161415610ec5578034141515610ec4576040517f08c379a00000000000000000000000000000000000000000000000000000000081526004018080602001828103825260168152602001807f46656520726571756972656420666f72206f776e65720000000000000000000081525060200191505060405180910390fd5b5b6000600188815481101515610ed657fe5b906000526020600020906007020160060160009054906101000a900460ff166004811115610f0057fe5b90506001810160ff166004811115610f1457fe5b600189815481101515610f2357fe5b906000526020600020906007020160060160006101000a81548160ff02191690836004811115610f4f57fe5b02179055506000600189815481101515610f6557fe5b906000526020600020906007020160060160009054906101000a900460ff166004811115610f8f57fe5b905061100f6001600660008973ffffffffffffffffffffffffffffffffffffffff1673ffffffffffffffffffffffffffffffffffffffff16815260200190815260200160002060008461ffff1661ffff16815260200190815260200160002060009054906101000a900461ffff1661ffff16611e6f90919063ffffffff16565b600660008873ffffffffffffffffffffffffffffffffffffffff1673ffffffffffffffffffffffffffffffffffffffff16815260200190815260200160002060008361ffff1661ffff16815260200190815260200160002060006101000a81548161ffff021916908361ffff1602179055506110fe6001600660008973ffffffffffffffffffffffffffffffffffffffff1673ffffffffffffffffffffffffffffffffffffffff16815260200190815260200160002060008560ff1661ffff16815260200190815260200160002060009054906101000a900461ffff1661ffff16611e9590919063ffffffff16565b600660008873ffffffffffffffffffffffffffffffffffffffff1673ffffffffffffffffffffffffffffffffffffffff16815260200190815260200160002060008460ff1661ffff16815260200190815260200160002060006101000a81548161ffff021916908361ffff1602179055507eb858b01e1fe72d3245324108c0bb4a0c180a17f35133d3b699795c6b5c6405898360ff16600481111561119f57fe5b60018c8154811015156111ae57fe5b906000526020600020906007020160060160009054906101000a900460ff16604051808481526020018360048111156111e357fe5b60ff1681526020018260048111156111f757fe5b60ff168152602001935050505060405180910390a1505050505050505050565b60066020528160005260406000206020528060005260406000206000915091509054906101000a900461ffff1681565b896003600082815260200190815260200160002060009054906101000a900473ffffffffffffffffffffffffffffffffffffffff1673ffffffffffffffffffffffffffffffffffffffff163373ffffffffffffffffffffffffffffffffffffffff161415156112b557600080fd5b6113038b8b8b8080601f016020809104026020016040519081016040528093929190818152602001838380828437600081840152601f19601f82011690508083019250505050505050611eb6565b61130d8b89611f5e565b6113178b886120e3565b6113218b8761217b565b61136f8b86868080601f016020809104026020016040519081016040528093929190818152602001838380828437600081840152601f19601f82011690508083019250505050505050612298565b6113bd8b84848080601f016020809104026020016040519081016040528093929190818152602001838380828437600081840152601f19601f82011690508083019250505050505050612340565b7f31350a620a954dd1b89fe8a5534ca3f11839a50e23ec0cfd6c292438a3c2e6b38b8b8b8b8b8b8b8b8b8b604051808b81526020018060200189600281111561140257fe5b60ff168152602001888152602001878152602001806020018060200184810384528d8d82818152602001925080828437600081840152601f19601f8201169050808301925050508481038352888882818152602001925080828437600081840152601f19601f8201169050808301925050508481038252868682818152602001925080828437600081840152601f19601f8201169050808301925050509d505050505050505050505050505060405180910390a15050505050505050505050565b6114cb6115be565b15156114d657600080fd5b600073ffffffffffffffffffffffffffffffffffffffff166000809054906101000a900473ffffffffffffffffffffffffffffffffffffffff1673ffffffffffffffffffffffffffffffffffffffff167f8be0079c531659141344cd1fd0a4f28419497f9722a3daafe3b4186f6b6457e060405160405180910390a360008060006101000a81548173ffffffffffffffffffffffffffffffffffffffff021916908373ffffffffffffffffffffffffffffffffffffffff160217905550565b60008060009054906101000a900473ffffffffffffffffffffffffffffffffffffffff16905090565b60008060009054906101000a900473ffffffffffffffffffffffffffffffffffffffff1673ffffffffffffffffffffffffffffffffffffffff163373ffffffffffffffffffffffffffffffffffffffff1614905090565b60076020528060005260406000206000915090505481565b606080600460008473ffffffffffffffffffffffffffffffffffffffff1673ffffffffffffffffffffffffffffffffffffffff16815260200190815260200160002060009054906101000a900461ffff1661ffff166040519080825280602002602001820160405280156116b05781602001602082028038833980820191505090505b509050600080905060008090505b600180549050811015611765578473ffffffffffffffffffffffffffffffffffffffff166002600083815260200190815260200160002060009054906101000a900473ffffffffffffffffffffffffffffffffffffffff1673ffffffffffffffffffffffffffffffffffffffff1614156117585780838381518110151561174157fe5b906020019060200201818152505081806001019250505b80806001019150506116be565b508192505050919050565b60018181548110151561177f57fe5b9060005260206000209060070201600091509050806000018054600181600116156101000203166002900480601f01602080910402602001604051908101604052809291908181526020018280546001816001161561010002031660029004801561182b5780601f106118005761010080835404028352916020019161182b565b820191906000526020600020905b81548152906001019060200180831161180e57829003601f168201915b5050505050908060010160009054906101000a900460ff1690806002015490806003015490806004018054600181600116156101000203166002900480601f0160208091040260200160405190810160405280929190818152602001828054600181600116156101000203166002900480156118e85780601f106118bd576101008083540402835291602001916118e8565b820191906000526020600020905b8154815290600101906020018083116118cb57829003601f168201915b505050505090806005018054600181600116156101000203166002900480601f0160208091040260200160405190810160405280929190818152602001828054600181600116156101000203166002900480156119865780601f1061195b57610100808354040283529160200191611986565b820191906000526020600020905b81548152906001019060200180831161196957829003601f168201915b5050505050908060060160009054906101000a900460ff16905087565b6119ab6115be565b15156119b657600080fd5b6119bf816123e8565b50565b84600060028111156119d057fe5b8160028111156119dc57fe5b14806119fe5750600160028111156119f057fe5b8160028111156119fc57fe5b145b80611a1e5750600280811115611a1057fe5b816002811115611a1c57fe5b145b1515611a92576040517f08c379a00000000000000000000000000000000000000000000000000000000081526004018080602001828103825260178152602001807f496e76616c69642063726564656e7469616c207479706500000000000000000081525060200191505060405180910390fd5b834281101580611aa25750600081145b1515611b16576040517f08c379a00000000000000000000000000000000000000000000000000000000081526004018080602001828103825260168152602001807f43726564656e7469616c2068617320657870697265640000000000000000000081525060200191505060405180910390fd5b611b1e6124e2565b60e0604051908101604052808a8152602001896002811115611b3c57fe5b815260200188815260200187815260200186815260200185815260200160006004811115611b6657fe5b8152509050600181908060018154018082558091505090600182039060005260206000209060070201600090919290919091506000820151816000019080519060200190611bb5929190612536565b5060208201518160010160006101000a81548160ff02191690836002811115611bda57fe5b021790555060408201518160020155606082015181600301556080820151816004019080519060200190611c0f929190612536565b5060a0820151816005019080519060200190611c2c929190612536565b5060c08201518160060160006101000a81548160ff02191690836004811115611c5157fe5b0217905550505050600060018080549050039050336003600083815260200190815260200160002060006101000a81548173ffffffffffffffffffffffffffffffffffffffff021916908373ffffffffffffffffffffffffffffffffffffffff160217905550611d1c6001600560003373ffffffffffffffffffffffffffffffffffffffff1673ffffffffffffffffffffffffffffffffffffffff16815260200190815260200160002060009054906101000a900461ffff1661ffff16611e6f90919063ffffffff16565b600560003373ffffffffffffffffffffffffffffffffffffffff1673ffffffffffffffffffffffffffffffffffffffff16815260200190815260200160002060006101000a81548161ffff021916908361ffff1602179055507fbe135cbc475f7cdc37a822551dbd23653680d65440798fb5bd944dfff1bbd173818b8b336040518085815260200180602001846002811115611db457fe5b60ff1681526020018373ffffffffffffffffffffffffffffffffffffffff1673ffffffffffffffffffffffffffffffffffffffff168152602001828103825285818151815260200191508051906020019080838360005b83811015611e26578082015181840152602081019050611e0b565b50505050905090810190601f168015611e535780820380516001836020036101000a031916815260200191505b509550505050505060405180910390a150505050505050505050565b60008082840190508361ffff168161ffff1610151515611e8b57fe5b8091505092915050565b60008261ffff168261ffff1611151515611eab57fe5b818303905092915050565b816003600082815260200190815260200160002060009054906101000a900473ffffffffffffffffffffffffffffffffffffffff1673ffffffffffffffffffffffffffffffffffffffff163373ffffffffffffffffffffffffffffffffffffffff16141515611f2457600080fd5b81600184815481101515611f3457fe5b90600052602060002090600702016000019080519060200190611f589291906125b6565b50505050565b816003600082815260200190815260200160002060009054906101000a900473ffffffffffffffffffffffffffffffffffffffff1673ffffffffffffffffffffffffffffffffffffffff163373ffffffffffffffffffffffffffffffffffffffff16141515611fcc57600080fd5b8160006002811115611fda57fe5b816002811115611fe657fe5b1480612008575060016002811115611ffa57fe5b81600281111561200657fe5b145b80612028575060028081111561201a57fe5b81600281111561202657fe5b145b151561209c576040517f08c379a00000000000000000000000000000000000000000000000000000000081526004018080602001828103825260178152602001807f496e76616c69642063726564656e7469616c207479706500000000000000000081525060200191505060405180910390fd5b826001858154811015156120ac57fe5b906000526020600020906007020160010160006101000a81548160ff021916908360028111156120d857fe5b021790555050505050565b816003600082815260200190815260200160002060009054906101000a900473ffffffffffffffffffffffffffffffffffffffff1673ffffffffffffffffffffffffffffffffffffffff163373ffffffffffffffffffffffffffffffffffffffff1614151561215157600080fd5b8160018481548110151561216157fe5b906000526020600020906007020160020181905550505050565b816003600082815260200190815260200160002060009054906101000a900473ffffffffffffffffffffffffffffffffffffffff1673ffffffffffffffffffffffffffffffffffffffff163373ffffffffffffffffffffffffffffffffffffffff161415156121e957600080fd5b8142811015806121f95750600081145b151561226d576040517f08c379a00000000000000000000000000000000000000000000000000000000081526004018080602001828103825260168152602001807f43726564656e7469616c2068617320657870697265640000000000000000000081525060200191505060405180910390fd5b8260018581548110151561227d57fe5b90600052602060002090600702016003018190555050505050565b816003600082815260200190815260200160002060009054906101000a900473ffffffffffffffffffffffffffffffffffffffff1673ffffffffffffffffffffffffffffffffffffffff163373ffffffffffffffffffffffffffffffffffffffff1614151561230657600080fd5b8160018481548110151561231657fe5b9060005260206000209060070201600401908051906020019061233a9291906125b6565b50505050565b816003600082815260200190815260200160002060009054906101000a900473ffffffffffffffffffffffffffffffffffffffff1673ffffffffffffffffffffffffffffffffffffffff163373ffffffffffffffffffffffffffffffffffffffff161415156123ae57600080fd5b816001848154811015156123be57fe5b906000526020600020906007020160050190805190602001906123e29291906125b6565b50505050565b600073ffffffffffffffffffffffffffffffffffffffff168173ffffffffffffffffffffffffffffffffffffffff161415151561242457600080fd5b8073ffffffffffffffffffffffffffffffffffffffff166000809054906101000a900473ffffffffffffffffffffffffffffffffffffffff1673ffffffffffffffffffffffffffffffffffffffff167f8be0079c531659141344cd1fd0a4f28419497f9722a3daafe3b4186f6b6457e060405160405180910390a3806000806101000a81548173ffffffffffffffffffffffffffffffffffffffff021916908373ffffffffffffffffffffffffffffffffffffffff16021790555050565b60e060405190810160405280606081526020016000600281111561250257fe5b8152602001600081526020016000815260200160608152602001606081526020016000600481111561253057fe5b81525090565b828054600181600116156101000203166002900490600052602060002090601f016020900481019282601f1061257757805160ff19168380011785556125a5565b828001600101855582156125a5579182015b828111156125a4578251825591602001919060010190612589565b5b5090506125b29190612636565b5090565b828054600181600116156101000203166002900490600052602060002090601f016020900481019282601f106125f757805160ff1916838001178555612625565b82800160010185558215612625579182015b82811115612624578251825591602001919060010190612609565b5b5090506126329190612636565b5090565b61265891905b8082111561265457600081600090555060010161263c565b5090565b9056fea165627a7a72305820ca5659a57575a22cb37038f81dbe26f4b1e40b6ab77b950fc3baa25478963b510029",
  "source": "// SPDX-License-Identifier: MIT\r\npragma solidity >=0.4.22 <0.9.0;\r\n\r\nimport \"./CredentialFactory.sol\";\r\n\r\ncontract CredentialHelper is CredentialFactory {\r\n    mapping(uint8 => uint) public rankingFees;\r\n\r\n    constructor() public {\r\n        // Set default fees for each rank transition\r\n        rankingFees[uint8(CredentialRank.Bronze)] = 0.002 ether; // Bronze to Silver\r\n        rankingFees[uint8(CredentialRank.Silver)] = 0.0035 ether; // Silver to Gold\r\n        rankingFees[uint8(CredentialRank.Gold)] = 0.0051 ether; // Gold to Platinum\r\n        rankingFees[uint8(CredentialRank.Platinum)] = 0.0077 ether; // Platinum to Diamond\r\n    }\r\n\r\n    /**\r\n     * @dev This modifier checks if the sender is the issuer of the credential.\r\n     * @param _credentialId The ID of the credential to check the issuer of.\r\n     */\r\n    modifier onlyIssuerOf(uint _credentialId) {\r\n        require(msg.sender == credentialToIssuer[_credentialId]);\r\n        _;\r\n    }\r\n\r\n    /**\r\n     * @dev This modifier checks if the sender is the owner of the credential or the issuer of the credential.\r\n     * @param _credentialId The ID of the credential to check the owner of or the issuer of.\r\n     */\r\n    modifier onlyIssuerOrOwnerOf(uint _credentialId) {\r\n        require(\r\n            msg.sender == credentialToIssuer[_credentialId] ||\r\n                msg.sender == credentialToOwner[_credentialId]\r\n        );\r\n        _;\r\n    }\r\n\r\n    /**\r\n     * @dev This modifier checks if the rank of the credential is not Diamond.\r\n     * @param _credentialId The ID of the credential to check the rank of.\r\n     */\r\n    modifier canChangeRank(uint _credentialId) {\r\n        require(\r\n            credentials[_credentialId].rank != CredentialRank.Diamond,\r\n            \"Rank is already Diamond\"\r\n        );\r\n        _;\r\n    }\r\n\r\n    /**\r\n     * @dev This modifier checks if the credential rank is valid.\r\n     * @param _rank The credential rank to check.\r\n     */\r\n    modifier onlyValidCredentialRank(CredentialRank _rank) {\r\n        require(\r\n            _rank == CredentialRank.Bronze ||\r\n                _rank == CredentialRank.Silver ||\r\n                _rank == CredentialRank.Gold ||\r\n                _rank == CredentialRank.Platinum ||\r\n                _rank == CredentialRank.Diamond,\r\n            \"Invalid credential rank\"\r\n        );\r\n        _;\r\n    }\r\n\r\n    function changeName(\r\n        uint _credentialId,\r\n        string memory _newName\r\n    ) private onlyIssuerOf(_credentialId) {\r\n        credentials[_credentialId].name = _newName;\r\n    }\r\n\r\n    function changeCredentialType(\r\n        uint _credentialId,\r\n        CredentialType _newType\r\n    ) private onlyIssuerOf(_credentialId) onlyValidCredentialType(_newType) {\r\n        credentials[_credentialId].credentialType = _newType;\r\n    }\r\n\r\n    function changeDateIssued(\r\n        uint _credentialId,\r\n        uint _newDateIssued\r\n    ) private onlyIssuerOf(_credentialId) {\r\n        credentials[_credentialId].dateIssued = _newDateIssued;\r\n    }\r\n\r\n    function changeExpirationDate(\r\n        uint _credentialId,\r\n        uint _newExpirationDate\r\n    )\r\n        private\r\n        onlyIssuerOf(_credentialId)\r\n        onlyNonExpiredCredential(_newExpirationDate)\r\n    {\r\n        credentials[_credentialId].expirationDate = _newExpirationDate;\r\n    }\r\n\r\n    function changeDescription(\r\n        uint _credentialId,\r\n        string memory _newDescription\r\n    ) private onlyIssuerOf(_credentialId) {\r\n        credentials[_credentialId].description = _newDescription;\r\n    }\r\n\r\n    function changeCredentialUrl(\r\n        uint _credentialId,\r\n        string memory _newCredentialUrl\r\n    ) private onlyIssuerOf(_credentialId) {\r\n        credentials[_credentialId].credentialUrl = _newCredentialUrl;\r\n    }\r\n\r\n    function changeCredential(\r\n        uint _credentialId,\r\n        string calldata _newName,\r\n        CredentialType _newType,\r\n        uint _newDateIssued,\r\n        uint _newExpirationDate,\r\n        string calldata _newDescription,\r\n        string calldata _newCredentialUrl\r\n    ) external onlyIssuerOf(_credentialId) {\r\n        changeName(_credentialId, _newName);\r\n        changeCredentialType(_credentialId, _newType);\r\n        changeDateIssued(_credentialId, _newDateIssued);\r\n        changeExpirationDate(_credentialId, _newExpirationDate);\r\n        changeDescription(_credentialId, _newDescription);\r\n        changeCredentialUrl(_credentialId, _newCredentialUrl);\r\n        emit CredentialChanged(\r\n            _credentialId,\r\n            _newName,\r\n            _newType,\r\n            _newDateIssued,\r\n            _newExpirationDate,\r\n            _newDescription,\r\n            _newCredentialUrl\r\n        );\r\n    }\r\n\r\n    /**\r\n     * @dev This function is can be called by the owner of the credential to change the rank of the credential or by the issuer of the credential.\r\n     * The rank can only be changed if the rank is not already Diamond.\r\n     * The function requires the caller to send the ranking fee in order to change the rank if the caller is the owner.\r\n     * The function allows the issuer to directly set the rank without paying the fee.\r\n     * The function increments the rank of the credential by one.\r\n     * @param _credentialId The ID of the credential to change the rank of.\r\n     */\r\n    function changeRank(\r\n        uint _credentialId\r\n    )\r\n        external\r\n        payable\r\n        onlyIssuerOrOwnerOf(_credentialId)\r\n        canChangeRank(_credentialId)\r\n    {\r\n        address owner = credentialToOwner[_credentialId];\r\n\r\n        Credential storage credential = credentials[_credentialId];\r\n        uint8 currentRank = uint8(credential.rank);\r\n\r\n        uint fee = rankingFees[currentRank];\r\n        if (msg.sender == owner) {\r\n            require(msg.value == fee, \"Fee required for owner\");\r\n        }\r\n\r\n        uint8 oldRank = uint8(credentials[_credentialId].rank);\r\n        credentials[_credentialId].rank = CredentialRank(oldRank + 1);\r\n\r\n        uint16 credentialRank = uint16(credentials[_credentialId].rank);\r\n        ownerCredentialRankCount[owner][\r\n            credentialRank\r\n        ] = ownerCredentialRankCount[owner][credentialRank].add(1);\r\n        ownerCredentialRankCount[owner][oldRank] = ownerCredentialRankCount[\r\n            owner\r\n        ][oldRank].sub(1);\r\n\r\n        emit RankChanged(\r\n            _credentialId,\r\n            CredentialRank(oldRank),\r\n            credentials[_credentialId].rank\r\n        );\r\n    }\r\n\r\n    /**\r\n     * @dev This function returns all the credentials owned by a given address.\r\n     * @param _owner The address to query the credentials of.\r\n     * @return An array of credential IDs owned by the address.\r\n     */\r\n    function getCredentialsByOwner(\r\n        address _owner\r\n    ) external view returns (uint[] memory) {\r\n        uint[] memory result = new uint[](ownerCredentialCount[_owner]);\r\n        uint counter = 0;\r\n        for (uint i = 0; i < credentials.length; i++) {\r\n            if (credentialToOwner[i] == _owner) {\r\n                result[counter] = i;\r\n                counter++;\r\n            }\r\n        }\r\n        return result;\r\n    }\r\n\r\n    /**\r\n     * @dev This function returns all the credentials issued by a given address.\r\n     * @param _issuer The address to query the credentials of.\r\n     * @return An array of credential IDs issued by the address.\r\n     */\r\n    function getCredentialsByIssuer(\r\n        address _issuer\r\n    ) external view returns (uint[] memory) {\r\n        uint[] memory result = new uint[](issuerCredentialCount[_issuer]);\r\n        uint counter = 0;\r\n        for (uint i = 0; i < credentials.length; i++) {\r\n            if (credentialToIssuer[i] == _issuer) {\r\n                result[counter] = i;\r\n                counter++;\r\n            }\r\n        }\r\n        return result;\r\n    }\r\n}\r\n",
  "sourcePath": "C:\\GIT\\Immutable-Academic-Credentials\\contracts\\CredentialHelper.sol",
  "compiler": {
    "name": "solc",
    "version": "0.5.1+commit.c8a2cb62.Emscripten.clang"
  },
  "schemaVersion": "3.4.16",
  "updatedAt": "2024-05-01T22:06:29.309Z",
  "devdoc": {
    "methods": {
      "changeRank(uint256)": {
        "details": "This function is can be called by the owner of the credential to change the rank of the credential or by the issuer of the credential.\r The rank can only be changed if the rank is not already Diamond.\r The function requires the caller to send the ranking fee in order to change the rank if the caller is the owner.\r The function allows the issuer to directly set the rank without paying the fee.\r The function increments the rank of the credential by one.\r",
        "params": {
          "_credentialId": "The ID of the credential to change the rank of.\r"
        }
      },
      "getCredentialsByIssuer(address)": {
        "details": "This function returns all the credentials issued by a given address.\r",
        "params": {
          "_issuer": "The address to query the credentials of.\r"
        },
        "return": "An array of credential IDs issued by the address.\r"
      },
      "getCredentialsByOwner(address)": {
        "details": "This function returns all the credentials owned by a given address.\r",
        "params": {
          "_owner": "The address to query the credentials of.\r"
        },
        "return": "An array of credential IDs owned by the address.\r"
      },
      "isOwner()": {
        "return": "true if `msg.sender` is the owner of the contract.\r"
      },
      "owner()": {
        "return": "the address of the owner.\r"
      },
      "renounceOwnership()": {
        "details": "Allows the current owner to relinquish control of the contract.\r"
      },
      "transferOwnership(address)": {
        "details": "Allows the current owner to transfer control of the contract to a newOwner.\r",
        "params": {
          "newOwner": "The address to transfer ownership to.\r"
        }
      }
    }
  },
  "userdoc": {
    "methods": {
      "renounceOwnership()": {
        "notice": "Renouncing to ownership will leave the contract without an owner.\r It will not be possible to call the functions with the `onlyOwner`\r modifier anymore.\r"
      }
    }
  }
}