{
  "contractName": "CredentialFactory",
  "abi": [
    {
      "constant": true,
      "inputs": [
        {
          "name": "",
          "type": "uint256"
        }
      ],
      "name": "credentialToOwner",
      "outputs": [
        {
          "name": "",
          "type": "address"
        }
      ],
      "payable": false,
      "stateMutability": "view",
      "type": "function"
    },
    {
      "constant": true,
      "inputs": [
        {
          "name": "",
          "type": "uint256"
        }
      ],
      "name": "credentialToIssuer",
      "outputs": [
        {
          "name": "",
          "type": "address"
        }
      ],
      "payable": false,
      "stateMutability": "view",
      "type": "function"
    },
    {
      "constant": true,
      "inputs": [
        {
          "name": "",
          "type": "address"
        },
        {
          "name": "",
          "type": "uint16"
        }
      ],
      "name": "ownerCredentialRankCount",
      "outputs": [
        {
          "name": "",
          "type": "uint16"
        }
      ],
      "payable": false,
      "stateMutability": "view",
      "type": "function"
    },
    {
      "constant": false,
      "inputs": [],
      "name": "renounceOwnership",
      "outputs": [],
      "payable": false,
      "stateMutability": "nonpayable",
      "type": "function"
    },
    {
      "constant": true,
      "inputs": [],
      "name": "owner",
      "outputs": [
        {
          "name": "",
          "type": "address"
        }
      ],
      "payable": false,
      "stateMutability": "view",
      "type": "function"
    },
    {
      "constant": true,
      "inputs": [],
      "name": "isOwner",
      "outputs": [
        {
          "name": "",
          "type": "bool"
        }
      ],
      "payable": false,
      "stateMutability": "view",
      "type": "function"
    },
    {
      "constant": true,
      "inputs": [
        {
          "name": "",
          "type": "uint256"
        }
      ],
      "name": "credentials",
      "outputs": [
        {
          "name": "name",
          "type": "string"
        },
        {
          "name": "credentialType",
          "type": "uint8"
        },
        {
          "name": "dateIssued",
          "type": "uint256"
        },
        {
          "name": "expirationDate",
          "type": "uint256"
        },
        {
          "name": "description",
          "type": "string"
        },
        {
          "name": "credentialUrl",
          "type": "string"
        },
        {
          "name": "rank",
          "type": "uint8"
        }
      ],
      "payable": false,
      "stateMutability": "view",
      "type": "function"
    },
    {
      "constant": false,
      "inputs": [
        {
          "name": "newOwner",
          "type": "address"
        }
      ],
      "name": "transferOwnership",
      "outputs": [],
      "payable": false,
      "stateMutability": "nonpayable",
      "type": "function"
    },
    {
      "anonymous": false,
      "inputs": [
        {
          "indexed": false,
          "name": "credentialId",
          "type": "uint256"
        },
        {
          "indexed": false,
          "name": "name",
          "type": "string"
        },
        {
          "indexed": false,
          "name": "credentialType",
          "type": "uint8"
        },
        {
          "indexed": false,
          "name": "issuer",
          "type": "address"
        }
      ],
      "name": "NewCredential",
      "type": "event"
    },
    {
      "anonymous": false,
      "inputs": [
        {
          "indexed": false,
          "name": "credentialId",
          "type": "uint256"
        },
        {
          "indexed": false,
          "name": "oldRank",
          "type": "uint8"
        },
        {
          "indexed": false,
          "name": "newRank",
          "type": "uint8"
        }
      ],
      "name": "RankChanged",
      "type": "event"
    },
    {
      "anonymous": false,
      "inputs": [
        {
          "indexed": false,
          "name": "credentialId",
          "type": "uint256"
        },
        {
          "indexed": false,
          "name": "name",
          "type": "string"
        },
        {
          "indexed": false,
          "name": "credentialType",
          "type": "uint8"
        },
        {
          "indexed": false,
          "name": "dateIssued",
          "type": "uint256"
        },
        {
          "indexed": false,
          "name": "expirationDate",
          "type": "uint256"
        },
        {
          "indexed": false,
          "name": "description",
          "type": "string"
        },
        {
          "indexed": false,
          "name": "credentialUrl",
          "type": "string"
        }
      ],
      "name": "CredentialChanged",
      "type": "event"
    },
    {
      "anonymous": false,
      "inputs": [
        {
          "indexed": true,
          "name": "previousOwner",
          "type": "address"
        },
        {
          "indexed": true,
          "name": "newOwner",
          "type": "address"
        }
      ],
      "name": "OwnershipTransferred",
      "type": "event"
    },
    {
      "constant": false,
      "inputs": [
        {
          "name": "_name",
          "type": "string"
        },
        {
          "name": "_type",
          "type": "uint8"
        },
        {
          "name": "_dateOfIssue",
          "type": "uint256"
        },
        {
          "name": "_expirationDate",
          "type": "uint256"
        },
        {
          "name": "_description",
          "type": "string"
        },
        {
          "name": "_credentialUrl",
          "type": "string"
        }
      ],
      "name": "createCredential",
      "outputs": [],
      "payable": false,
      "stateMutability": "nonpayable",
      "type": "function"
    }
  ],
  "bytecode": "0x6080604052336000806101000a81548173ffffffffffffffffffffffffffffffffffffffff021916908373ffffffffffffffffffffffffffffffffffffffff1602179055506000809054906101000a900473ffffffffffffffffffffffffffffffffffffffff1673ffffffffffffffffffffffffffffffffffffffff16600073ffffffffffffffffffffffffffffffffffffffff167f8be0079c531659141344cd1fd0a4f28419497f9722a3daafe3b4186f6b6457e060405160405180910390a3611213806100cf6000396000f3fe608060405260043610610092576000357c0100000000000000000000000000000000000000000000000000000000900480623f9d2f146100975780632f9830f5146102ae578063392de9991461032957806368dd3c07146103a4578063715018a61461041f5780638da5cb5b146104365780638f32d59b1461048d578063e0574e3f146104bc578063f2fde38b14610680575b600080fd5b3480156100a357600080fd5b506102ac600480360360c08110156100ba57600080fd5b81019080803590602001906401000000008111156100d757600080fd5b8201836020820111156100e957600080fd5b8035906020019184600183028401116401000000008311171561010b57600080fd5b91908080601f016020809104026020016040519081016040528093929190818152602001838380828437600081840152601f19601f820116905080830192505050505050509192919290803560ff16906020019092919080359060200190929190803590602001909291908035906020019064010000000081111561018f57600080fd5b8201836020820111156101a157600080fd5b803590602001918460018302840111640100000000831117156101c357600080fd5b91908080601f016020809104026020016040519081016040528093929190818152602001838380828437600081840152601f19601f8201169050808301925050505050505091929192908035906020019064010000000081111561022657600080fd5b82018360208201111561023857600080fd5b8035906020019184600183028401116401000000008311171561025a57600080fd5b91908080601f016020809104026020016040519081016040528093929190818152602001838380828437600081840152601f19601f8201169050808301925050505050505091929192905050506106d1565b005b3480156102ba57600080fd5b506102e7600480360360208110156102d157600080fd5b81019080803590602001909291905050506106e7565b604051808273ffffffffffffffffffffffffffffffffffffffff1673ffffffffffffffffffffffffffffffffffffffff16815260200191505060405180910390f35b34801561033557600080fd5b506103626004803603602081101561034c57600080fd5b810190808035906020019092919050505061071a565b604051808273ffffffffffffffffffffffffffffffffffffffff1673ffffffffffffffffffffffffffffffffffffffff16815260200191505060405180910390f35b3480156103b057600080fd5b50610401600480360360408110156103c757600080fd5b81019080803573ffffffffffffffffffffffffffffffffffffffff169060200190929190803561ffff16906020019092919050505061074d565b604051808261ffff1661ffff16815260200191505060405180910390f35b34801561042b57600080fd5b5061043461077d565b005b34801561044257600080fd5b5061044b61084f565b604051808273ffffffffffffffffffffffffffffffffffffffff1673ffffffffffffffffffffffffffffffffffffffff16815260200191505060405180910390f35b34801561049957600080fd5b506104a2610878565b604051808215151515815260200191505060405180910390f35b3480156104c857600080fd5b506104f5600480360360208110156104df57600080fd5b81019080803590602001909291905050506108cf565b604051808060200188600281111561050957fe5b60ff168152602001878152602001868152602001806020018060200185600481111561053157fe5b60ff16815260200184810384528b818151815260200191508051906020019080838360005b83811015610571578082015181840152602081019050610556565b50505050905090810190601f16801561059e5780820380516001836020036101000a031916815260200191505b50848103835287818151815260200191508051906020019080838360005b838110156105d75780820151818401526020810190506105bc565b50505050905090810190601f1680156106045780820380516001836020036101000a031916815260200191505b50848103825286818151815260200191508051906020019080838360005b8381101561063d578082015181840152602081019050610622565b50505050905090810190601f16801561066a5780820380516001836020036101000a031916815260200191505b509a505050505050505050505060405180910390f35b34801561068c57600080fd5b506106cf600480360360208110156106a357600080fd5b81019080803573ffffffffffffffffffffffffffffffffffffffff169060200190929190505050610b02565b005b6106df868686868686610b21565b505050505050565b60026020528060005260406000206000915054906101000a900473ffffffffffffffffffffffffffffffffffffffff1681565b60036020528060005260406000206000915054906101000a900473ffffffffffffffffffffffffffffffffffffffff1681565b60066020528160005260406000206020528060005260406000206000915091509054906101000a900461ffff1681565b610785610878565b151561079057600080fd5b600073ffffffffffffffffffffffffffffffffffffffff166000809054906101000a900473ffffffffffffffffffffffffffffffffffffffff1673ffffffffffffffffffffffffffffffffffffffff167f8be0079c531659141344cd1fd0a4f28419497f9722a3daafe3b4186f6b6457e060405160405180910390a360008060006101000a81548173ffffffffffffffffffffffffffffffffffffffff021916908373ffffffffffffffffffffffffffffffffffffffff160217905550565b60008060009054906101000a900473ffffffffffffffffffffffffffffffffffffffff16905090565b60008060009054906101000a900473ffffffffffffffffffffffffffffffffffffffff1673ffffffffffffffffffffffffffffffffffffffff163373ffffffffffffffffffffffffffffffffffffffff1614905090565b6001818154811015156108de57fe5b9060005260206000209060070201600091509050806000018054600181600116156101000203166002900480601f01602080910402602001604051908101604052809291908181526020018280546001816001161561010002031660029004801561098a5780601f1061095f5761010080835404028352916020019161098a565b820191906000526020600020905b81548152906001019060200180831161096d57829003601f168201915b5050505050908060010160009054906101000a900460ff1690806002015490806003015490806004018054600181600116156101000203166002900480601f016020809104026020016040519081016040528092919081815260200182805460018160011615610100020316600290048015610a475780601f10610a1c57610100808354040283529160200191610a47565b820191906000526020600020905b815481529060010190602001808311610a2a57829003601f168201915b505050505090806005018054600181600116156101000203166002900480601f016020809104026020016040519081016040528092919081815260200182805460018160011615610100020316600290048015610ae55780601f10610aba57610100808354040283529160200191610ae5565b820191906000526020600020905b815481529060010190602001808311610ac857829003601f168201915b5050505050908060060160009054906101000a900460ff16905087565b610b0a610878565b1515610b1557600080fd5b610b1e81610fce565b50565b8460006002811115610b2f57fe5b816002811115610b3b57fe5b1480610b5d575060016002811115610b4f57fe5b816002811115610b5b57fe5b145b80610b7d5750600280811115610b6f57fe5b816002811115610b7b57fe5b145b1515610bf1576040517f08c379a00000000000000000000000000000000000000000000000000000000081526004018080602001828103825260178152602001807f496e76616c69642063726564656e7469616c207479706500000000000000000081525060200191505060405180910390fd5b834281101580610c015750600081145b1515610c75576040517f08c379a00000000000000000000000000000000000000000000000000000000081526004018080602001828103825260168152602001807f43726564656e7469616c2068617320657870697265640000000000000000000081525060200191505060405180910390fd5b610c7d6110ee565b60e0604051908101604052808a8152602001896002811115610c9b57fe5b815260200188815260200187815260200186815260200185815260200160006004811115610cc557fe5b8152509050600181908060018154018082558091505090600182039060005260206000209060070201600090919290919091506000820151816000019080519060200190610d14929190611142565b5060208201518160010160006101000a81548160ff02191690836002811115610d3957fe5b021790555060408201518160020155606082015181600301556080820151816004019080519060200190610d6e929190611142565b5060a0820151816005019080519060200190610d8b929190611142565b5060c08201518160060160006101000a81548160ff02191690836004811115610db057fe5b0217905550505050600060018080549050039050336003600083815260200190815260200160002060006101000a81548173ffffffffffffffffffffffffffffffffffffffff021916908373ffffffffffffffffffffffffffffffffffffffff160217905550610e7b6001600560003373ffffffffffffffffffffffffffffffffffffffff1673ffffffffffffffffffffffffffffffffffffffff16815260200190815260200160002060009054906101000a900461ffff1661ffff166110c890919063ffffffff16565b600560003373ffffffffffffffffffffffffffffffffffffffff1673ffffffffffffffffffffffffffffffffffffffff16815260200190815260200160002060006101000a81548161ffff021916908361ffff1602179055507fbe135cbc475f7cdc37a822551dbd23653680d65440798fb5bd944dfff1bbd173818b8b336040518085815260200180602001846002811115610f1357fe5b60ff1681526020018373ffffffffffffffffffffffffffffffffffffffff1673ffffffffffffffffffffffffffffffffffffffff168152602001828103825285818151815260200191508051906020019080838360005b83811015610f85578082015181840152602081019050610f6a565b50505050905090810190601f168015610fb25780820380516001836020036101000a031916815260200191505b509550505050505060405180910390a150505050505050505050565b600073ffffffffffffffffffffffffffffffffffffffff168173ffffffffffffffffffffffffffffffffffffffff161415151561100a57600080fd5b8073ffffffffffffffffffffffffffffffffffffffff166000809054906101000a900473ffffffffffffffffffffffffffffffffffffffff1673ffffffffffffffffffffffffffffffffffffffff167f8be0079c531659141344cd1fd0a4f28419497f9722a3daafe3b4186f6b6457e060405160405180910390a3806000806101000a81548173ffffffffffffffffffffffffffffffffffffffff021916908373ffffffffffffffffffffffffffffffffffffffff16021790555050565b60008082840190508361ffff168161ffff16101515156110e457fe5b8091505092915050565b60e060405190810160405280606081526020016000600281111561110e57fe5b8152602001600081526020016000815260200160608152602001606081526020016000600481111561113c57fe5b81525090565b828054600181600116156101000203166002900490600052602060002090601f016020900481019282601f1061118357805160ff19168380011785556111b1565b828001600101855582156111b1579182015b828111156111b0578251825591602001919060010190611195565b5b5090506111be91906111c2565b5090565b6111e491905b808211156111e05760008160009055506001016111c8565b5090565b9056fea165627a7a72305820ae26ae116bfc922b13bc59b62b2115e190d379f8bfe56f2f31e352c6ae224cd40029",
  "source": "// SPDX-License-Identifier: MIT\r\npragma solidity >=0.4.22 <0.9.0;\r\n\r\nimport \"./Ownable.sol\";\r\nimport \"./SafeMath.sol\";\r\n\r\n// This contract handles the issuance of academic credentials (certificates, degrees, achievements) onto the blockchain.\r\ncontract CredentialFactory is Ownable {\r\n    using SafeMath16 for uint16;\r\n\r\n    enum CredentialType {\r\n        Certificate, // Type for certificates\r\n        Degree, // Type for degrees\r\n        Achievement // Type for achievements\r\n    }\r\n\r\n    enum CredentialRank {\r\n        Bronze, // Lowest rank\r\n        Silver,\r\n        Gold,\r\n        Platinum,\r\n        Diamond // Highest rank\r\n    }\r\n\r\n    event NewCredential(\r\n        uint credentialId,\r\n        string name,\r\n        CredentialType credentialType,\r\n        address issuer\r\n    );\r\n\r\n    event RankChanged(\r\n        uint credentialId,\r\n        CredentialRank oldRank,\r\n        CredentialRank newRank\r\n    );\r\n\r\n    event CredentialChanged(\r\n        uint credentialId,\r\n        string name,\r\n        CredentialType credentialType,\r\n        uint dateIssued,\r\n        uint expirationDate,\r\n        string description,\r\n        string credentialUrl\r\n    );\r\n\r\n    struct Credential {\r\n        string name; // Name of the credential\r\n        CredentialType credentialType; // Type of the credential\r\n        uint dateIssued; // Date when the credential was issued\r\n        uint expirationDate; // Expiration date of the credential (0 if it does not expire)\r\n        string description; // Description of the credential\r\n        string credentialUrl; // URL for additional information about the credential\r\n        CredentialRank rank; // Rank of the credential\r\n    }\r\n\r\n    Credential[] public credentials; // Array to store all credentials\r\n\r\n    mapping(uint => address) public credentialToOwner; // Mapping from credential ID to owner address\r\n    mapping(uint => address) public credentialToIssuer; // Mapping from credential ID to issuer address\r\n    mapping(address => uint16) ownerCredentialCount; // Mapping from owner address to count of owned credentials\r\n    mapping(address => uint16) issuerCredentialCount; // Mapping from owner address to count of owned credentials\r\n\r\n    // Mapping for count of credential ranks owned by each address\r\n    mapping(address => mapping(uint16 => uint16))\r\n        public ownerCredentialRankCount;\r\n\r\n    function _createCredential(\r\n        string memory _name,\r\n        CredentialType _type,\r\n        uint _dateOfIssue,\r\n        uint _expirationDate,\r\n        string memory _description,\r\n        string memory _credentialUrl\r\n    )\r\n        internal\r\n        onlyValidCredentialType(_type) /// Modifier to check if the credential type is valid\r\n        onlyNonExpiredCredential(_expirationDate) /// Modifier to check if the credential is non-expired\r\n    {\r\n        Credential memory credential = Credential(\r\n            _name,\r\n            _type,\r\n            _dateOfIssue,\r\n            _expirationDate,\r\n            _description,\r\n            _credentialUrl,\r\n            CredentialRank.Bronze // Default rank is set to Bronze\r\n        );\r\n        credentials.push(credential);\r\n        uint id = credentials.length - 1;\r\n        credentialToIssuer[id] = msg.sender;\r\n        issuerCredentialCount[msg.sender] = issuerCredentialCount[msg.sender]\r\n            .add(1);\r\n        emit NewCredential(id, _name, _type, msg.sender);\r\n    }\r\n\r\n    // Modifier to check if the credential type is valid\r\n    modifier onlyValidCredentialType(CredentialType _type) {\r\n        require(\r\n            _type == CredentialType.Certificate ||\r\n                _type == CredentialType.Degree ||\r\n                _type == CredentialType.Achievement,\r\n            \"Invalid credential type\"\r\n        );\r\n        _;\r\n    }\r\n\r\n    // Modifier to check if the credential is non-expired\r\n    modifier onlyNonExpiredCredential(uint _expirationDate) {\r\n        require(\r\n            _expirationDate >= block.timestamp || _expirationDate == 0,\r\n            \"Credential has expired\"\r\n        );\r\n        _;\r\n    }\r\n\r\n    // Function to create a new credential with the specified details\r\n    function createCredential(\r\n        string memory _name,\r\n        CredentialType _type,\r\n        uint _dateOfIssue,\r\n        uint _expirationDate,\r\n        string memory _description,\r\n        string memory _credentialUrl\r\n    ) public {\r\n        _createCredential(\r\n            _name,\r\n            _type,\r\n            _dateOfIssue,\r\n            _expirationDate,\r\n            _description,\r\n            _credentialUrl\r\n        );\r\n    }\r\n}\r\n",
  "sourcePath": "C:\\GIT\\Immutable-Academic-Credentials\\contracts\\CredentialFactory.sol",
  "compiler": {
    "name": "solc",
    "version": "0.5.1+commit.c8a2cb62.Emscripten.clang"
  },
  "schemaVersion": "3.4.16",
  "updatedAt": "2024-05-01T22:20:45.095Z",
  "devdoc": {
    "methods": {
      "isOwner()": {
        "return": "true if `msg.sender` is the owner of the contract.\r"
      },
      "owner()": {
        "return": "the address of the owner.\r"
      },
      "renounceOwnership()": {
        "details": "Allows the current owner to relinquish control of the contract.\r"
      },
      "transferOwnership(address)": {
        "details": "Allows the current owner to transfer control of the contract to a newOwner.\r",
        "params": {
          "newOwner": "The address to transfer ownership to.\r"
        }
      }
    }
  },
  "userdoc": {
    "methods": {
      "renounceOwnership()": {
        "notice": "Renouncing to ownership will leave the contract without an owner.\r It will not be possible to call the functions with the `onlyOwner`\r modifier anymore.\r"
      }
    }
  }
}