{
  "contractName": "CredentialOwnership",
  "abi": [
    {
      "constant": false,
      "inputs": [
        {
          "name": "_name",
          "type": "string"
        },
        {
          "name": "_type",
          "type": "uint8"
        },
        {
          "name": "_dateOfIssue",
          "type": "uint256"
        },
        {
          "name": "_expirationDate",
          "type": "uint256"
        },
        {
          "name": "_description",
          "type": "string"
        },
        {
          "name": "_credentialUrl",
          "type": "string"
        }
      ],
      "name": "createCredential",
      "outputs": [],
      "payable": false,
      "stateMutability": "nonpayable",
      "type": "function"
    },
    {
      "constant": true,
      "inputs": [
        {
          "name": "",
          "type": "uint256"
        }
      ],
      "name": "credentialToOwner",
      "outputs": [
        {
          "name": "",
          "type": "address"
        }
      ],
      "payable": false,
      "stateMutability": "view",
      "type": "function"
    },
    {
      "constant": true,
      "inputs": [
        {
          "name": "_issuer",
          "type": "address"
        }
      ],
      "name": "getCredentialsByIssuer",
      "outputs": [
        {
          "name": "",
          "type": "uint256[]"
        }
      ],
      "payable": false,
      "stateMutability": "view",
      "type": "function"
    },
    {
      "constant": true,
      "inputs": [
        {
          "name": "",
          "type": "uint256"
        }
      ],
      "name": "credentialToIssuer",
      "outputs": [
        {
          "name": "",
          "type": "address"
        }
      ],
      "payable": false,
      "stateMutability": "view",
      "type": "function"
    },
    {
      "constant": false,
      "inputs": [
        {
          "name": "_credentialId",
          "type": "uint256"
        }
      ],
      "name": "changeRank",
      "outputs": [],
      "payable": true,
      "stateMutability": "payable",
      "type": "function"
    },
    {
      "constant": true,
      "inputs": [
        {
          "name": "",
          "type": "address"
        },
        {
          "name": "",
          "type": "uint16"
        }
      ],
      "name": "ownerCredentialRankCount",
      "outputs": [
        {
          "name": "",
          "type": "uint16"
        }
      ],
      "payable": false,
      "stateMutability": "view",
      "type": "function"
    },
    {
      "constant": false,
      "inputs": [
        {
          "name": "_credentialId",
          "type": "uint256"
        },
        {
          "name": "_newName",
          "type": "string"
        },
        {
          "name": "_newType",
          "type": "uint8"
        },
        {
          "name": "_newDateIssued",
          "type": "uint256"
        },
        {
          "name": "_newExpirationDate",
          "type": "uint256"
        },
        {
          "name": "_newDescription",
          "type": "string"
        },
        {
          "name": "_newCredentialUrl",
          "type": "string"
        }
      ],
      "name": "changeCredential",
      "outputs": [],
      "payable": false,
      "stateMutability": "nonpayable",
      "type": "function"
    },
    {
      "constant": false,
      "inputs": [],
      "name": "renounceOwnership",
      "outputs": [],
      "payable": false,
      "stateMutability": "nonpayable",
      "type": "function"
    },
    {
      "constant": true,
      "inputs": [],
      "name": "owner",
      "outputs": [
        {
          "name": "",
          "type": "address"
        }
      ],
      "payable": false,
      "stateMutability": "view",
      "type": "function"
    },
    {
      "constant": true,
      "inputs": [],
      "name": "isOwner",
      "outputs": [
        {
          "name": "",
          "type": "bool"
        }
      ],
      "payable": false,
      "stateMutability": "view",
      "type": "function"
    },
    {
      "constant": true,
      "inputs": [
        {
          "name": "",
          "type": "address"
        },
        {
          "name": "",
          "type": "uint16"
        }
      ],
      "name": "ownerCredentialTypeCount",
      "outputs": [
        {
          "name": "",
          "type": "uint16"
        }
      ],
      "payable": false,
      "stateMutability": "view",
      "type": "function"
    },
    {
      "constant": true,
      "inputs": [
        {
          "name": "",
          "type": "uint8"
        }
      ],
      "name": "rankingFees",
      "outputs": [
        {
          "name": "",
          "type": "uint256"
        }
      ],
      "payable": false,
      "stateMutability": "view",
      "type": "function"
    },
    {
      "constant": true,
      "inputs": [
        {
          "name": "_owner",
          "type": "address"
        }
      ],
      "name": "getCredentialsByOwner",
      "outputs": [
        {
          "name": "",
          "type": "uint256[]"
        }
      ],
      "payable": false,
      "stateMutability": "view",
      "type": "function"
    },
    {
      "constant": true,
      "inputs": [
        {
          "name": "",
          "type": "uint256"
        }
      ],
      "name": "credentials",
      "outputs": [
        {
          "name": "name",
          "type": "string"
        },
        {
          "name": "credentialType",
          "type": "uint8"
        },
        {
          "name": "dateIssued",
          "type": "uint256"
        },
        {
          "name": "expirationDate",
          "type": "uint256"
        },
        {
          "name": "description",
          "type": "string"
        },
        {
          "name": "credentialUrl",
          "type": "string"
        },
        {
          "name": "rank",
          "type": "uint8"
        }
      ],
      "payable": false,
      "stateMutability": "view",
      "type": "function"
    },
    {
      "constant": false,
      "inputs": [
        {
          "name": "newOwner",
          "type": "address"
        }
      ],
      "name": "transferOwnership",
      "outputs": [],
      "payable": false,
      "stateMutability": "nonpayable",
      "type": "function"
    },
    {
      "anonymous": false,
      "inputs": [
        {
          "indexed": true,
          "name": "_from",
          "type": "address"
        },
        {
          "indexed": true,
          "name": "_to",
          "type": "address"
        },
        {
          "indexed": true,
          "name": "_tokenId",
          "type": "uint256"
        }
      ],
      "name": "Transfer",
      "type": "event"
    },
    {
      "anonymous": false,
      "inputs": [
        {
          "indexed": true,
          "name": "_owner",
          "type": "address"
        },
        {
          "indexed": true,
          "name": "_approved",
          "type": "address"
        },
        {
          "indexed": true,
          "name": "_tokenId",
          "type": "uint256"
        }
      ],
      "name": "Approval",
      "type": "event"
    },
    {
      "anonymous": false,
      "inputs": [
        {
          "indexed": false,
          "name": "credentialId",
          "type": "uint256"
        },
        {
          "indexed": false,
          "name": "name",
          "type": "string"
        },
        {
          "indexed": false,
          "name": "credentialType",
          "type": "uint8"
        },
        {
          "indexed": false,
          "name": "issuer",
          "type": "address"
        }
      ],
      "name": "NewCredential",
      "type": "event"
    },
    {
      "anonymous": false,
      "inputs": [
        {
          "indexed": false,
          "name": "credentialId",
          "type": "uint256"
        },
        {
          "indexed": false,
          "name": "oldRank",
          "type": "uint8"
        },
        {
          "indexed": false,
          "name": "newRank",
          "type": "uint8"
        }
      ],
      "name": "RankChanged",
      "type": "event"
    },
    {
      "anonymous": false,
      "inputs": [
        {
          "indexed": false,
          "name": "credentialId",
          "type": "uint256"
        },
        {
          "indexed": false,
          "name": "name",
          "type": "string"
        },
        {
          "indexed": false,
          "name": "credentialType",
          "type": "uint8"
        },
        {
          "indexed": false,
          "name": "dateIssued",
          "type": "uint256"
        },
        {
          "indexed": false,
          "name": "expirationDate",
          "type": "uint256"
        },
        {
          "indexed": false,
          "name": "description",
          "type": "string"
        },
        {
          "indexed": false,
          "name": "credentialUrl",
          "type": "string"
        }
      ],
      "name": "CredentialChanged",
      "type": "event"
    },
    {
      "anonymous": false,
      "inputs": [
        {
          "indexed": true,
          "name": "previousOwner",
          "type": "address"
        },
        {
          "indexed": true,
          "name": "newOwner",
          "type": "address"
        }
      ],
      "name": "OwnershipTransferred",
      "type": "event"
    },
    {
      "constant": true,
      "inputs": [
        {
          "name": "_owner",
          "type": "address"
        }
      ],
      "name": "balanceOf",
      "outputs": [
        {
          "name": "",
          "type": "uint256"
        }
      ],
      "payable": false,
      "stateMutability": "view",
      "type": "function"
    },
    {
      "constant": true,
      "inputs": [
        {
          "name": "_owner",
          "type": "address"
        },
        {
          "name": "_type",
          "type": "uint16"
        }
      ],
      "name": "balanceOfCredentialType",
      "outputs": [
        {
          "name": "",
          "type": "uint16"
        }
      ],
      "payable": false,
      "stateMutability": "view",
      "type": "function"
    },
    {
      "constant": true,
      "inputs": [
        {
          "name": "_tokenId",
          "type": "uint256"
        }
      ],
      "name": "ownerOf",
      "outputs": [
        {
          "name": "",
          "type": "address"
        }
      ],
      "payable": false,
      "stateMutability": "view",
      "type": "function"
    },
    {
      "constant": false,
      "inputs": [
        {
          "name": "_from",
          "type": "address"
        },
        {
          "name": "_to",
          "type": "address"
        },
        {
          "name": "_tokenId",
          "type": "uint256"
        }
      ],
      "name": "transferFrom",
      "outputs": [],
      "payable": true,
      "stateMutability": "payable",
      "type": "function"
    },
    {
      "constant": false,
      "inputs": [
        {
          "name": "_approved",
          "type": "address"
        },
        {
          "name": "_tokenId",
          "type": "uint256"
        }
      ],
      "name": "approve",
      "outputs": [],
      "payable": true,
      "stateMutability": "payable",
      "type": "function"
    }
  ],
  "bytecode": "0x6080604052336000806101000a81548173ffffffffffffffffffffffffffffffffffffffff021916908373ffffffffffffffffffffffffffffffffffffffff1602179055506000809054906101000a900473ffffffffffffffffffffffffffffffffffffffff1673ffffffffffffffffffffffffffffffffffffffff16600073ffffffffffffffffffffffffffffffffffffffff167f8be0079c531659141344cd1fd0a4f28419497f9722a3daafe3b4186f6b6457e060405160405180910390a366071afd498d0000600860008060048111156100d857fe5b60ff1660ff16815260200190815260200160002081905550660c6f3b40b6c000600860006001600481111561010957fe5b60ff1660ff1681526020019081526020016000208190555066121e6c485ac000600860006002600481111561013a57fe5b60ff1660ff16815260200190815260200160002081905550661b5b1bf4c54000600860006003600481111561016b57fe5b60ff1660ff1681526020019081526020016000208190555061306680620001936000396000f3fe60806040526004361061010b576000357c0100000000000000000000000000000000000000000000000000000000900480623f9d2f14610110578063095ea7b31461032757806323b872dd146103755780632f9830f5146103e35780632fb1125b1461045e57806332860d6b146104d9578063392de9991461057f57806340859016146105fa5780636352211e1461062857806368dd3c07146106a35780636e03b07f1461071e57806370a0823114610879578063715018a6146108de5780638da5cb5b146108f55780638f32d59b1461094c578063a398dc0b1461097b578063c173c0ae146109f6578063c96015db14610a48578063e0574e3f14610aee578063f2fde38b14610cb2575b600080fd5b34801561011c57600080fd5b50610325600480360360c081101561013357600080fd5b810190808035906020019064010000000081111561015057600080fd5b82018360208201111561016257600080fd5b8035906020019184600183028401116401000000008311171561018457600080fd5b91908080601f016020809104026020016040519081016040528093929190818152602001838380828437600081840152601f19601f820116905080830192505050505050509192919290803560ff16906020019092919080359060200190929190803590602001909291908035906020019064010000000081111561020857600080fd5b82018360208201111561021a57600080fd5b8035906020019184600183028401116401000000008311171561023c57600080fd5b91908080601f016020809104026020016040519081016040528093929190818152602001838380828437600081840152601f19601f8201169050808301925050505050505091929192908035906020019064010000000081111561029f57600080fd5b8201836020820111156102b157600080fd5b803590602001918460018302840111640100000000831117156102d357600080fd5b91908080601f016020809104026020016040519081016040528093929190818152602001838380828437600081840152601f19601f820116905080830192505050505050509192919290505050610d03565b005b6103736004803603604081101561033d57600080fd5b81019080803573ffffffffffffffffffffffffffffffffffffffff16906020019092919080359060200190929190505050610d19565b005b6103e16004803603606081101561038b57600080fd5b81019080803573ffffffffffffffffffffffffffffffffffffffff169060200190929190803573ffffffffffffffffffffffffffffffffffffffff16906020019092919080359060200190929190505050610e39565b005b3480156103ef57600080fd5b5061041c6004803603602081101561040657600080fd5b8101908080359060200190929190505050610f1f565b604051808273ffffffffffffffffffffffffffffffffffffffff1673ffffffffffffffffffffffffffffffffffffffff16815260200191505060405180910390f35b34801561046a57600080fd5b506104bb6004803603604081101561048157600080fd5b81019080803573ffffffffffffffffffffffffffffffffffffffff169060200190929190803561ffff169060200190929190505050610f52565b604051808261ffff1661ffff16815260200191505060405180910390f35b3480156104e557600080fd5b50610528600480360360208110156104fc57600080fd5b81019080803573ffffffffffffffffffffffffffffffffffffffff169060200190929190505050610fc3565b6040518080602001828103825283818151815260200191508051906020019060200280838360005b8381101561056b578082015181840152602081019050610550565b505050509050019250505060405180910390f35b34801561058b57600080fd5b506105b8600480360360208110156105a257600080fd5b8101908080359060200190929190505050611106565b604051808273ffffffffffffffffffffffffffffffffffffffff1673ffffffffffffffffffffffffffffffffffffffff16815260200191505060405180910390f35b6106266004803603602081101561061057600080fd5b8101908080359060200190929190505050611139565b005b34801561063457600080fd5b506106616004803603602081101561064b57600080fd5b8101908080359060200190929190505050611762565b604051808273ffffffffffffffffffffffffffffffffffffffff1673ffffffffffffffffffffffffffffffffffffffff16815260200191505060405180910390f35b3480156106af57600080fd5b50610700600480360360408110156106c657600080fd5b81019080803573ffffffffffffffffffffffffffffffffffffffff169060200190929190803561ffff16906020019092919050505061179f565b604051808261ffff1661ffff16815260200191505060405180910390f35b34801561072a57600080fd5b50610877600480360360e081101561074157600080fd5b81019080803590602001909291908035906020019064010000000081111561076857600080fd5b82018360208201111561077a57600080fd5b8035906020019184600183028401116401000000008311171561079c57600080fd5b9091929391929390803560ff1690602001909291908035906020019092919080359060200190929190803590602001906401000000008111156107de57600080fd5b8201836020820111156107f057600080fd5b8035906020019184600183028401116401000000008311171561081257600080fd5b90919293919293908035906020019064010000000081111561083357600080fd5b82018360208201111561084557600080fd5b8035906020019184600183028401116401000000008311171561086757600080fd5b90919293919293905050506117cf565b005b34801561088557600080fd5b506108c86004803603602081101561089c57600080fd5b81019080803573ffffffffffffffffffffffffffffffffffffffff169060200190929190505050611a4b565b6040518082815260200191505060405180910390f35b3480156108ea57600080fd5b506108f3611aa6565b005b34801561090157600080fd5b5061090a611b78565b604051808273ffffffffffffffffffffffffffffffffffffffff1673ffffffffffffffffffffffffffffffffffffffff16815260200191505060405180910390f35b34801561095857600080fd5b50610961611ba1565b604051808215151515815260200191505060405180910390f35b34801561098757600080fd5b506109d86004803603604081101561099e57600080fd5b81019080803573ffffffffffffffffffffffffffffffffffffffff169060200190929190803561ffff169060200190929190505050611bf8565b604051808261ffff1661ffff16815260200191505060405180910390f35b348015610a0257600080fd5b50610a3260048036036020811015610a1957600080fd5b81019080803560ff169060200190929190505050611c28565b6040518082815260200191505060405180910390f35b348015610a5457600080fd5b50610a9760048036036020811015610a6b57600080fd5b81019080803573ffffffffffffffffffffffffffffffffffffffff169060200190929190505050611c40565b6040518080602001828103825283818151815260200191508051906020019060200280838360005b83811015610ada578082015181840152602081019050610abf565b505050509050019250505060405180910390f35b348015610afa57600080fd5b50610b2760048036036020811015610b1157600080fd5b8101908080359060200190929190505050611d83565b6040518080602001886002811115610b3b57fe5b60ff1681526020018781526020018681526020018060200180602001856004811115610b6357fe5b60ff16815260200184810384528b818151815260200191508051906020019080838360005b83811015610ba3578082015181840152602081019050610b88565b50505050905090810190601f168015610bd05780820380516001836020036101000a031916815260200191505b50848103835287818151815260200191508051906020019080838360005b83811015610c09578082015181840152602081019050610bee565b50505050905090810190601f168015610c365780820380516001836020036101000a031916815260200191505b50848103825286818151815260200191508051906020019080838360005b83811015610c6f578082015181840152602081019050610c54565b50505050905090810190601f168015610c9c5780820380516001836020036101000a031916815260200191505b509a505050505050505050505060405180910390f35b348015610cbe57600080fd5b50610d0160048036036020811015610cd557600080fd5b81019080803573ffffffffffffffffffffffffffffffffffffffff169060200190929190505050611fb6565b005b610d11868686868686611fd5565b505050505050565b806003600082815260200190815260200160002060009054906101000a900473ffffffffffffffffffffffffffffffffffffffff1673ffffffffffffffffffffffffffffffffffffffff163373ffffffffffffffffffffffffffffffffffffffff16141515610d8757600080fd5b826009600084815260200190815260200160002060006101000a81548173ffffffffffffffffffffffffffffffffffffffff021916908373ffffffffffffffffffffffffffffffffffffffff160217905550818373ffffffffffffffffffffffffffffffffffffffff163373ffffffffffffffffffffffffffffffffffffffff167f8c5be1e5ebec7d5bd14f71427d1e84f3dd0314c0f7b2291e5b200ac8c7c3b92560405160405180910390a4505050565b3373ffffffffffffffffffffffffffffffffffffffff166003600083815260200190815260200160002060009054906101000a900473ffffffffffffffffffffffffffffffffffffffff1673ffffffffffffffffffffffffffffffffffffffff161480610f0457503373ffffffffffffffffffffffffffffffffffffffff166009600083815260200190815260200160002060009054906101000a900473ffffffffffffffffffffffffffffffffffffffff1673ffffffffffffffffffffffffffffffffffffffff16145b1515610f0f57600080fd5b610f1a838383612482565b505050565b60026020528060005260406000206000915054906101000a900473ffffffffffffffffffffffffffffffffffffffff1681565b6000600660008473ffffffffffffffffffffffffffffffffffffffff1673ffffffffffffffffffffffffffffffffffffffff16815260200190815260200160002060008361ffff1661ffff16815260200190815260200160002060009054906101000a900461ffff16905092915050565b606080600560008473ffffffffffffffffffffffffffffffffffffffff1673ffffffffffffffffffffffffffffffffffffffff16815260200190815260200160002060009054906101000a900461ffff1661ffff166040519080825280602002602001820160405280156110465781602001602082028038833980820191505090505b509050600080905060008090505b6001805490508110156110fb578473ffffffffffffffffffffffffffffffffffffffff166003600083815260200190815260200160002060009054906101000a900473ffffffffffffffffffffffffffffffffffffffff1673ffffffffffffffffffffffffffffffffffffffff1614156110ee578083838151811015156110d757fe5b906020019060200201818152505081806001019250505b8080600101915050611054565b508192505050919050565b60036020528060005260406000206000915054906101000a900473ffffffffffffffffffffffffffffffffffffffff1681565b806003600082815260200190815260200160002060009054906101000a900473ffffffffffffffffffffffffffffffffffffffff1673ffffffffffffffffffffffffffffffffffffffff163373ffffffffffffffffffffffffffffffffffffffff16148061120557506002600082815260200190815260200160002060009054906101000a900473ffffffffffffffffffffffffffffffffffffffff1673ffffffffffffffffffffffffffffffffffffffff163373ffffffffffffffffffffffffffffffffffffffff16145b151561121057600080fd5b8160048081111561121d57fe5b60018281548110151561122c57fe5b906000526020600020906007020160060160009054906101000a900460ff16600481111561125657fe5b141515156112cc576040517f08c379a00000000000000000000000000000000000000000000000000000000081526004018080602001828103825260178152602001807f52616e6b20697320616c7265616479204469616d6f6e6400000000000000000081525060200191505060405180910390fd5b60006002600085815260200190815260200160002060009054906101000a900473ffffffffffffffffffffffffffffffffffffffff169050600060018581548110151561131557fe5b9060005260206000209060070201905060008160060160009054906101000a900460ff16600481111561134457fe5b90506000600860008360ff1660ff1681526020019081526020016000205490508373ffffffffffffffffffffffffffffffffffffffff163373ffffffffffffffffffffffffffffffffffffffff16141561141057803414151561140f576040517f08c379a00000000000000000000000000000000000000000000000000000000081526004018080602001828103825260168152602001807f46656520726571756972656420666f72206f776e65720000000000000000000081525060200191505060405180910390fd5b5b600060018881548110151561142157fe5b906000526020600020906007020160060160009054906101000a900460ff16600481111561144b57fe5b90506001810160ff16600481111561145f57fe5b60018981548110151561146e57fe5b906000526020600020906007020160060160006101000a81548160ff0219169083600481111561149a57fe5b021790555060006001898154811015156114b057fe5b906000526020600020906007020160060160009054906101000a900460ff1660048111156114da57fe5b905061155a6001600760008973ffffffffffffffffffffffffffffffffffffffff1673ffffffffffffffffffffffffffffffffffffffff16815260200190815260200160002060008461ffff1661ffff16815260200190815260200160002060009054906101000a900461ffff1661ffff1661284e90919063ffffffff16565b600760008873ffffffffffffffffffffffffffffffffffffffff1673ffffffffffffffffffffffffffffffffffffffff16815260200190815260200160002060008361ffff1661ffff16815260200190815260200160002060006101000a81548161ffff021916908361ffff1602179055506116496001600760008973ffffffffffffffffffffffffffffffffffffffff1673ffffffffffffffffffffffffffffffffffffffff16815260200190815260200160002060008560ff1661ffff16815260200190815260200160002060009054906101000a900461ffff1661ffff1661287490919063ffffffff16565b600760008873ffffffffffffffffffffffffffffffffffffffff1673ffffffffffffffffffffffffffffffffffffffff16815260200190815260200160002060008460ff1661ffff16815260200190815260200160002060006101000a81548161ffff021916908361ffff1602179055507eb858b01e1fe72d3245324108c0bb4a0c180a17f35133d3b699795c6b5c6405898360ff1660048111156116ea57fe5b60018c8154811015156116f957fe5b906000526020600020906007020160060160009054906101000a900460ff166040518084815260200183600481111561172e57fe5b60ff16815260200182600481111561174257fe5b60ff168152602001935050505060405180910390a1505050505050505050565b60006002600083815260200190815260200160002060009054906101000a900473ffffffffffffffffffffffffffffffffffffffff169050919050565b60076020528160005260406000206020528060005260406000206000915091509054906101000a900461ffff1681565b896003600082815260200190815260200160002060009054906101000a900473ffffffffffffffffffffffffffffffffffffffff1673ffffffffffffffffffffffffffffffffffffffff163373ffffffffffffffffffffffffffffffffffffffff1614151561183d57600080fd5b61188b8b8b8b8080601f016020809104026020016040519081016040528093929190818152602001838380828437600081840152601f19601f82011690508083019250505050505050612895565b6118958b8961293d565b61189f8b88612ac2565b6118a98b87612b5a565b6118f78b86868080601f016020809104026020016040519081016040528093929190818152602001838380828437600081840152601f19601f82011690508083019250505050505050612c77565b6119458b84848080601f016020809104026020016040519081016040528093929190818152602001838380828437600081840152601f19601f82011690508083019250505050505050612d1f565b7f31350a620a954dd1b89fe8a5534ca3f11839a50e23ec0cfd6c292438a3c2e6b38b8b8b8b8b8b8b8b8b8b604051808b81526020018060200189600281111561198a57fe5b60ff168152602001888152602001878152602001806020018060200184810384528d8d82818152602001925080828437600081840152601f19601f8201169050808301925050508481038352888882818152602001925080828437600081840152601f19601f8201169050808301925050508481038252868682818152602001925080828437600081840152601f19601f8201169050808301925050509d505050505050505050505050505060405180910390a15050505050505050505050565b6000600460008373ffffffffffffffffffffffffffffffffffffffff1673ffffffffffffffffffffffffffffffffffffffff16815260200190815260200160002060009054906101000a900461ffff1661ffff169050919050565b611aae611ba1565b1515611ab957600080fd5b600073ffffffffffffffffffffffffffffffffffffffff166000809054906101000a900473ffffffffffffffffffffffffffffffffffffffff1673ffffffffffffffffffffffffffffffffffffffff167f8be0079c531659141344cd1fd0a4f28419497f9722a3daafe3b4186f6b6457e060405160405180910390a360008060006101000a81548173ffffffffffffffffffffffffffffffffffffffff021916908373ffffffffffffffffffffffffffffffffffffffff160217905550565b60008060009054906101000a900473ffffffffffffffffffffffffffffffffffffffff16905090565b60008060009054906101000a900473ffffffffffffffffffffffffffffffffffffffff1673ffffffffffffffffffffffffffffffffffffffff163373ffffffffffffffffffffffffffffffffffffffff1614905090565b60066020528160005260406000206020528060005260406000206000915091509054906101000a900461ffff1681565b60086020528060005260406000206000915090505481565b606080600460008473ffffffffffffffffffffffffffffffffffffffff1673ffffffffffffffffffffffffffffffffffffffff16815260200190815260200160002060009054906101000a900461ffff1661ffff16604051908082528060200260200182016040528015611cc35781602001602082028038833980820191505090505b509050600080905060008090505b600180549050811015611d78578473ffffffffffffffffffffffffffffffffffffffff166002600083815260200190815260200160002060009054906101000a900473ffffffffffffffffffffffffffffffffffffffff1673ffffffffffffffffffffffffffffffffffffffff161415611d6b57808383815181101515611d5457fe5b906020019060200201818152505081806001019250505b8080600101915050611cd1565b508192505050919050565b600181815481101515611d9257fe5b9060005260206000209060070201600091509050806000018054600181600116156101000203166002900480601f016020809104026020016040519081016040528092919081815260200182805460018160011615610100020316600290048015611e3e5780601f10611e1357610100808354040283529160200191611e3e565b820191906000526020600020905b815481529060010190602001808311611e2157829003601f168201915b5050505050908060010160009054906101000a900460ff1690806002015490806003015490806004018054600181600116156101000203166002900480601f016020809104026020016040519081016040528092919081815260200182805460018160011615610100020316600290048015611efb5780601f10611ed057610100808354040283529160200191611efb565b820191906000526020600020905b815481529060010190602001808311611ede57829003601f168201915b505050505090806005018054600181600116156101000203166002900480601f016020809104026020016040519081016040528092919081815260200182805460018160011615610100020316600290048015611f995780601f10611f6e57610100808354040283529160200191611f99565b820191906000526020600020905b815481529060010190602001808311611f7c57829003601f168201915b5050505050908060060160009054906101000a900460ff16905087565b611fbe611ba1565b1515611fc957600080fd5b611fd281612dc7565b50565b8460006002811115611fe357fe5b816002811115611fef57fe5b148061201157506001600281111561200357fe5b81600281111561200f57fe5b145b80612031575060028081111561202357fe5b81600281111561202f57fe5b145b15156120a5576040517f08c379a00000000000000000000000000000000000000000000000000000000081526004018080602001828103825260178152602001807f496e76616c69642063726564656e7469616c207479706500000000000000000081525060200191505060405180910390fd5b8342811015806120b55750600081145b1515612129576040517f08c379a00000000000000000000000000000000000000000000000000000000081526004018080602001828103825260168152602001807f43726564656e7469616c2068617320657870697265640000000000000000000081525060200191505060405180910390fd5b612131612ec1565b60e0604051908101604052808a815260200189600281111561214f57fe5b81526020018881526020018781526020018681526020018581526020016000600481111561217957fe5b81525090506001819080600181540180825580915050906001820390600052602060002090600702016000909192909190915060008201518160000190805190602001906121c8929190612f15565b5060208201518160010160006101000a81548160ff021916908360028111156121ed57fe5b021790555060408201518160020155606082015181600301556080820151816004019080519060200190612222929190612f15565b5060a082015181600501908051906020019061223f929190612f15565b5060c08201518160060160006101000a81548160ff0219169083600481111561226457fe5b0217905550505050600060018080549050039050336003600083815260200190815260200160002060006101000a81548173ffffffffffffffffffffffffffffffffffffffff021916908373ffffffffffffffffffffffffffffffffffffffff16021790555061232f6001600560003373ffffffffffffffffffffffffffffffffffffffff1673ffffffffffffffffffffffffffffffffffffffff16815260200190815260200160002060009054906101000a900461ffff1661ffff1661284e90919063ffffffff16565b600560003373ffffffffffffffffffffffffffffffffffffffff1673ffffffffffffffffffffffffffffffffffffffff16815260200190815260200160002060006101000a81548161ffff021916908361ffff1602179055507fbe135cbc475f7cdc37a822551dbd23653680d65440798fb5bd944dfff1bbd173818b8b3360405180858152602001806020018460028111156123c757fe5b60ff1681526020018373ffffffffffffffffffffffffffffffffffffffff1673ffffffffffffffffffffffffffffffffffffffff168152602001828103825285818151815260200191508051906020019080838360005b8381101561243957808201518184015260208101905061241e565b50505050905090810190601f1680156124665780820380516001836020036101000a031916815260200191505b509550505050505060405180910390a150505050505050505050565b6124e76001600460008573ffffffffffffffffffffffffffffffffffffffff1673ffffffffffffffffffffffffffffffffffffffff16815260200190815260200160002060009054906101000a900461ffff1661ffff1661284e90919063ffffffff16565b600460008473ffffffffffffffffffffffffffffffffffffffff1673ffffffffffffffffffffffffffffffffffffffff16815260200190815260200160002060006101000a81548161ffff021916908361ffff160217905550600060018281548110151561255157fe5b906000526020600020906007020160010160009054906101000a900460ff16600281111561257b57fe5b90506125fb6001600660008673ffffffffffffffffffffffffffffffffffffffff1673ffffffffffffffffffffffffffffffffffffffff16815260200190815260200160002060008461ffff1661ffff16815260200190815260200160002060009054906101000a900461ffff1661ffff1661284e90919063ffffffff16565b600660008573ffffffffffffffffffffffffffffffffffffffff1673ffffffffffffffffffffffffffffffffffffffff16815260200190815260200160002060008361ffff1661ffff16815260200190815260200160002060006101000a81548161ffff021916908361ffff160217905550600060018381548110151561267e57fe5b906000526020600020906007020160060160009054906101000a900460ff1660048111156126a857fe5b90506127286001600760008773ffffffffffffffffffffffffffffffffffffffff1673ffffffffffffffffffffffffffffffffffffffff16815260200190815260200160002060008461ffff1661ffff16815260200190815260200160002060009054906101000a900461ffff1661ffff1661284e90919063ffffffff16565b600760008673ffffffffffffffffffffffffffffffffffffffff1673ffffffffffffffffffffffffffffffffffffffff16815260200190815260200160002060008361ffff1661ffff16815260200190815260200160002060006101000a81548161ffff021916908361ffff160217905550836002600085815260200190815260200160002060006101000a81548173ffffffffffffffffffffffffffffffffffffffff021916908373ffffffffffffffffffffffffffffffffffffffff160217905550828473ffffffffffffffffffffffffffffffffffffffff168673ffffffffffffffffffffffffffffffffffffffff167fddf252ad1be2c89b69c2b068fc378daa952ba7f163c4a11628f55a4df523b3ef60405160405180910390a45050505050565b60008082840190508361ffff168161ffff161015151561286a57fe5b8091505092915050565b60008261ffff168261ffff161115151561288a57fe5b818303905092915050565b816003600082815260200190815260200160002060009054906101000a900473ffffffffffffffffffffffffffffffffffffffff1673ffffffffffffffffffffffffffffffffffffffff163373ffffffffffffffffffffffffffffffffffffffff1614151561290357600080fd5b8160018481548110151561291357fe5b90600052602060002090600702016000019080519060200190612937929190612f95565b50505050565b816003600082815260200190815260200160002060009054906101000a900473ffffffffffffffffffffffffffffffffffffffff1673ffffffffffffffffffffffffffffffffffffffff163373ffffffffffffffffffffffffffffffffffffffff161415156129ab57600080fd5b81600060028111156129b957fe5b8160028111156129c557fe5b14806129e75750600160028111156129d957fe5b8160028111156129e557fe5b145b80612a0757506002808111156129f957fe5b816002811115612a0557fe5b145b1515612a7b576040517f08c379a00000000000000000000000000000000000000000000000000000000081526004018080602001828103825260178152602001807f496e76616c69642063726564656e7469616c207479706500000000000000000081525060200191505060405180910390fd5b82600185815481101515612a8b57fe5b906000526020600020906007020160010160006101000a81548160ff02191690836002811115612ab757fe5b021790555050505050565b816003600082815260200190815260200160002060009054906101000a900473ffffffffffffffffffffffffffffffffffffffff1673ffffffffffffffffffffffffffffffffffffffff163373ffffffffffffffffffffffffffffffffffffffff16141515612b3057600080fd5b81600184815481101515612b4057fe5b906000526020600020906007020160020181905550505050565b816003600082815260200190815260200160002060009054906101000a900473ffffffffffffffffffffffffffffffffffffffff1673ffffffffffffffffffffffffffffffffffffffff163373ffffffffffffffffffffffffffffffffffffffff16141515612bc857600080fd5b814281101580612bd85750600081145b1515612c4c576040517f08c379a00000000000000000000000000000000000000000000000000000000081526004018080602001828103825260168152602001807f43726564656e7469616c2068617320657870697265640000000000000000000081525060200191505060405180910390fd5b82600185815481101515612c5c57fe5b90600052602060002090600702016003018190555050505050565b816003600082815260200190815260200160002060009054906101000a900473ffffffffffffffffffffffffffffffffffffffff1673ffffffffffffffffffffffffffffffffffffffff163373ffffffffffffffffffffffffffffffffffffffff16141515612ce557600080fd5b81600184815481101515612cf557fe5b90600052602060002090600702016004019080519060200190612d19929190612f95565b50505050565b816003600082815260200190815260200160002060009054906101000a900473ffffffffffffffffffffffffffffffffffffffff1673ffffffffffffffffffffffffffffffffffffffff163373ffffffffffffffffffffffffffffffffffffffff16141515612d8d57600080fd5b81600184815481101515612d9d57fe5b90600052602060002090600702016005019080519060200190612dc1929190612f95565b50505050565b600073ffffffffffffffffffffffffffffffffffffffff168173ffffffffffffffffffffffffffffffffffffffff1614151515612e0357600080fd5b8073ffffffffffffffffffffffffffffffffffffffff166000809054906101000a900473ffffffffffffffffffffffffffffffffffffffff1673ffffffffffffffffffffffffffffffffffffffff167f8be0079c531659141344cd1fd0a4f28419497f9722a3daafe3b4186f6b6457e060405160405180910390a3806000806101000a81548173ffffffffffffffffffffffffffffffffffffffff021916908373ffffffffffffffffffffffffffffffffffffffff16021790555050565b60e0604051908101604052806060815260200160006002811115612ee157fe5b81526020016000815260200160008152602001606081526020016060815260200160006004811115612f0f57fe5b81525090565b828054600181600116156101000203166002900490600052602060002090601f016020900481019282601f10612f5657805160ff1916838001178555612f84565b82800160010185558215612f84579182015b82811115612f83578251825591602001919060010190612f68565b5b509050612f919190613015565b5090565b828054600181600116156101000203166002900490600052602060002090601f016020900481019282601f10612fd657805160ff1916838001178555613004565b82800160010185558215613004579182015b82811115613003578251825591602001919060010190612fe8565b5b5090506130119190613015565b5090565b61303791905b8082111561303357600081600090555060010161301b565b5090565b9056fea165627a7a72305820f33ca1464d2a9b842cc094cc3742acef6471cba50d7931dd6b88cae00a14fd4c0029",
  "source": "// SPDX-License-Identifier: MIT\r\npragma solidity >=0.4.22 <0.9.0;\r\n\r\nimport \"./CredentialHelper.sol\";\r\nimport \"./ERC721.sol\";\r\n\r\ncontract CredentialOwnership is CredentialHelper, ERC721 {\r\n    mapping(uint => address) credentialApprovals;\r\n\r\n    /**\r\n     * @dev Returns the number of credentials owned by a specific address.\r\n     * @param _owner The owner address to check\r\n     * @return uint256 representing the number of credentials owned by the passed address\r\n     */\r\n    function balanceOf(address _owner) external view returns (uint256) {\r\n        return ownerCredentialCount[_owner];\r\n    }\r\n\r\n    /**\r\n     * @dev Returns the number of credentials of a specific type owned by a specific address.\r\n     * @param _owner The owner address to check\r\n     * @param _type The type of credential to check\r\n     * @return uint16 representing the number of credentials of a specific type owned by the passed address\r\n     */\r\n    function balanceOfCredentialType(\r\n        address _owner,\r\n        uint16 _type\r\n    ) external view returns (uint16) {\r\n        return ownerCredentialTypeCount[_owner][_type];\r\n    }\r\n\r\n    /**\r\n     * @dev Returns the owner of the credential with the given ID.\r\n     * @param _tokenId The ID of the credential to query the owner of\r\n     * @return the owner of the credential\r\n     */\r\n    function ownerOf(uint256 _tokenId) external view returns (address) {\r\n        return credentialToOwner[_tokenId];\r\n    }\r\n\r\n    /**\r\n     * @dev Transfers the ownership of a given credential ID to another address.\r\n     * Only the issuer of the credential or an approved address can transfer\r\n     * a credential.\r\n     * @param _from The current owner of the credential (aka issuer)\r\n     * @param _to The new owner (aka employee)\r\n     * @param _tokenId The credential ID to transfer\r\n     */\r\n    function _transfer(address _from, address _to, uint256 _tokenId) private {\r\n        ownerCredentialCount[_to] = ownerCredentialCount[_to].add(1);\r\n        uint16 credentialType = uint16(credentials[_tokenId].credentialType);\r\n        ownerCredentialTypeCount[_to][\r\n            credentialType\r\n        ] = ownerCredentialTypeCount[_to][credentialType].add(1);\r\n        uint16 credentialRank = uint16(credentials[_tokenId].rank);\r\n        ownerCredentialRankCount[_to][\r\n            credentialRank\r\n        ] = ownerCredentialRankCount[_to][credentialRank].add(1);\r\n        credentialToOwner[_tokenId] = _to;\r\n        emit Transfer(_from, _to, _tokenId);\r\n    }\r\n\r\n    /**\r\n     * @dev Transfers the ownership of a given credential ID to another address.\r\n     *  Only the issuer of the credential or an approved address can transfer\r\n     *  a credential.\r\n     * @param _from The current owner of the credential (aka issuer)\r\n     * @param _to The new owner (aka employee)\r\n     * @param _tokenId The credential ID to transfer\r\n     */\r\n    function transferFrom(\r\n        address _from,\r\n        address _to,\r\n        uint256 _tokenId\r\n    ) external payable {\r\n        require(\r\n            credentialToIssuer[_tokenId] == msg.sender ||\r\n                credentialApprovals[_tokenId] == msg.sender\r\n        );\r\n        _transfer(_from, _to, _tokenId);\r\n    }\r\n\r\n    /**\r\n     * @dev Approves another address to transfer the given credential ID\r\n     * The zero address indicates there is no approved address.\r\n     * There can only be one approved address per credential at a time.\r\n     * Can only be called by the issuer of the credential.\r\n     * @param _approved The new approved person that can transfer the credential to himself\r\n     * @param _tokenId The credential that is being approved\r\n     */\r\n    function approve(\r\n        address _approved,\r\n        uint256 _tokenId\r\n    ) external payable onlyIssuerOf(_tokenId) {\r\n        credentialApprovals[_tokenId] = _approved;\r\n        emit Approval(msg.sender, _approved, _tokenId);\r\n    }\r\n}\r\n",
  "sourcePath": "C:\\GIT\\Immutable-Academic-Credentials\\contracts\\CredentialOwnership.sol",
  "compiler": {
    "name": "solc",
    "version": "0.5.1+commit.c8a2cb62.Emscripten.clang"
  },
  "schemaVersion": "3.4.16",
  "updatedAt": "2024-05-01T20:17:24.278Z",
  "devdoc": {
    "methods": {
      "approve(address,uint256)": {
        "details": "Approves another address to transfer the given credential ID\r The zero address indicates there is no approved address.\r There can only be one approved address per credential at a time.\r Can only be called by the issuer of the credential.\r",
        "params": {
          "_approved": "The new approved person that can transfer the credential to himself\r",
          "_tokenId": "The credential that is being approved\r"
        }
      },
      "balanceOf(address)": {
        "details": "Returns the number of credentials owned by a specific address.\r",
        "params": {
          "_owner": "The owner address to check\r"
        },
        "return": "uint256 representing the number of credentials owned by the passed address\r"
      },
      "balanceOfCredentialType(address,uint16)": {
        "details": "Returns the number of credentials of a specific type owned by a specific address.\r",
        "params": {
          "_owner": "The owner address to check\r",
          "_type": "The type of credential to check\r"
        },
        "return": "uint16 representing the number of credentials of a specific type owned by the passed address\r"
      },
      "changeRank(uint256)": {
        "details": "This function is can be called by the owner of the credential to change the rank of the credential or by the issuer of the credential.\r The rank can only be changed if the rank is not already Diamond.\r The function requires the caller to send the ranking fee in order to change the rank if the caller is the owner.\r The function allows the issuer to directly set the rank without paying the fee.\r The function increments the rank of the credential by one.\r",
        "params": {
          "_credentialId": "The ID of the credential to change the rank of.\r"
        }
      },
      "getCredentialsByIssuer(address)": {
        "details": "This function returns all the credentials issued by a given address.\r",
        "params": {
          "_issuer": "The address to query the credentials of.\r"
        },
        "return": "An array of credential IDs issued by the address.\r"
      },
      "getCredentialsByOwner(address)": {
        "details": "This function returns all the credentials owned by a given address.\r",
        "params": {
          "_owner": "The address to query the credentials of.\r"
        },
        "return": "An array of credential IDs owned by the address.\r"
      },
      "isOwner()": {
        "return": "true if `msg.sender` is the owner of the contract.\r"
      },
      "owner()": {
        "return": "the address of the owner.\r"
      },
      "ownerOf(uint256)": {
        "details": "Returns the owner of the credential with the given ID.\r",
        "params": {
          "_tokenId": "The ID of the credential to query the owner of\r"
        },
        "return": "the owner of the credential\r"
      },
      "renounceOwnership()": {
        "details": "Allows the current owner to relinquish control of the contract.\r"
      },
      "transferFrom(address,address,uint256)": {
        "details": "Transfers the ownership of a given credential ID to another address.\r Only the issuer of the credential or an approved address can transfer\r a credential.\r",
        "params": {
          "_from": "The current owner of the credential (aka issuer)\r",
          "_to": "The new owner (aka employee)\r",
          "_tokenId": "The credential ID to transfer\r"
        }
      },
      "transferOwnership(address)": {
        "details": "Allows the current owner to transfer control of the contract to a newOwner.\r",
        "params": {
          "newOwner": "The address to transfer ownership to.\r"
        }
      }
    }
  },
  "userdoc": {
    "methods": {
      "renounceOwnership()": {
        "notice": "Renouncing to ownership will leave the contract without an owner.\r It will not be possible to call the functions with the `onlyOwner`\r modifier anymore.\r"
      }
    }
  }
}